:100000000C94DB000C943A050C9413050C9403013A
:100010000C9403010C9403010C9403010C94030150
:100020000C9403010C9403010C9403010C94030140
:100030000C9403010C9403010C9403010C94030130
:100040000C94C9040C9403010C94C9030C94A303ED
:100050000C9403010C9403010C9403010C94030110
:100060000C9403010C94030100407A10F35A00A091
:10007000724E18090010A5D4E80000E87648170071
:1000800000E40B54020000CA9A3B000000E1F505B1
:10009000000080969800000040420F000000A086FB
:1000A00001000000102700000000E803000000002D
:1000B0006400000000000A000000000001000000D1
:1000C00000002C76D888DC674F0823DFC1DFAE59EB
:1000D000E1B1B796E5E3E453C63AE651997696E87E
:1000E000E6C28426EB898C9B62ED407C6FFCEFBC02
:1000F0009C9F40F2BAA56FA5F490055A2AF75C932D
:100100006B6CF9676DC11BFCE0E40D47FEF520E662
:10011000B500D0ED902E0300943577050080841E45
:10012000080000204E0A000000C80C333333330FA0
:10013000986E12831141EF8D2114893BE65516CF3D
:10014000FEE6DB18D1844B381BF77C1D901DA4BB49
:10015000E424203284725E228100C9F124ECA1E5FE
:100160003D2700000000250028002B0000000008AB
:10017000000201000003040700000000000000006E
:1001800000000000240027002A00010204081020BB
:100190004080010204081020010204081020040419
:1001A000040404040404020202020202030303031F
:1001B00003036B11C70C11241FBECFEFD8E0DEBFC5
:1001C000CDBF11E0A0E0B1E0EAE3F7E302C00590A3
:1001D0000D92AE3FB107D9F723E0AEEFB1E001C019
:1001E0001D92A333B207E1F710E0CAEDD0E004C0DE
:1001F0002197FE010E94C916C93DD107C9F70E9487
:10020000FB0C0C94901B0C940000CF92DF92EF92A9
:10021000FF920F931F93CF93DF936C017A018B01B1
:10022000C0E0D0E0CE15DF0589F0D8016D918D01D9
:10023000D601ED91FC910190F081E02DC601099568
:10024000892B11F47E0102C02196ECCFC701DF910A
:10025000CF911F910F91FF90EF90DF90CF90089575
:10026000FC01538D448D252F30E0842F90E0821BBC
:10027000930B541710F0CF96089501970895FC0141
:10028000918D828D981761F0828DDF01A80FB11DCD
:100290005D968C91928D9F5F9F73928F90E00895F1
:1002A0008FEF9FEF0895FC01918D828D981731F0AB
:1002B000828DE80FF11D858D90E008958FEF9FEFFF
:1002C0000895FC01918D228D892F90E0805C9F4FD5
:1002D000821B91098F739927089589E192E00E940A
:1002E000610121E0892B09F420E0822F0895FC01AF
:1002F000848DDF01A80FB11DA35ABF4F2C91848DAF
:1003000090E001968F739927848FA689B7892C93E3
:10031000A089B1898C9180648C93938D848D98137E
:1003200006C00288F389E02D80818F7D8083089547
:10033000EF92FF920F931F93CF93DF93EC0181E035
:10034000888F9B8D8C8D981305C0E889F9898081F1
:1003500085FD24C0F62E0B8D10E00F5F1F4F0F732D
:100360001127E02E8C8DE8120CC00FB607FCFACFD7
:10037000E889F989808185FFF5CFCE010E94770158
:10038000F1CF8B8DFE01E80FF11DE35AFF4FF08294
:100390000B8FEA89FB898081806207C0EE89FF8923
:1003A0006083E889F98980818064808381E090E0BE
:1003B000DF91CF911F910F91FF90EF900895CF9310
:1003C000DF93EC01888D8823C9F0EA89FB8980815D
:1003D00085FD05C0A889B9898C9186FD0FC00FB62F
:1003E00007FCF5CF808185FFF2CFA889B9898C9170
:1003F00085FFEDCFCE010E947701E7CFDF91CF914E
:10040000089580E090E0892B29F00E946D01811110
:100410000C94000008958E3008F08E508770806430
:1004200080937C0080917A00806480937A00809130
:100430007A0086FDFCCF809178002091790090E0D1
:10044000922B08953FB7F894809103029091040293
:10045000A0910502B091060226B5A89B05C02F3FCA
:1004600019F00196A11DB11D3FBFBA2FA92F982FDA
:100470008827820F911DA11DB11DBC01CD0142E055
:10048000660F771F881F991F4A95D1F70895089521
:100490000895CF93DF931F92CDB7DEB76983DC0158
:1004A000ED91FC910280F381E02D41E050E0BE012E
:1004B0006F5F7F4F09950F90DF91CF910895089559
:1004C00080E090E008950F931F93CF93DF93EC01AA
:1004D00088819981009729F02A813B812617370767
:1004E00088F48B016F5F7F4F0E94FC17009761F0CB
:1004F000998388831B830A832C813D81232B11F4EC
:10050000FC01108281E001C080E0DF91CF911F915A
:100510000F910895EF92FF920F931F93CF93DF9364
:10052000FC01248135816115710511F480E019C049
:1005300041155105A9F07B01EC018A01020F131F3F
:10054000B8010E946302882389F3288139818C8154
:100550009D81B701820F931F0E94E8181D830C83B1
:1005600081E0DF91CF911F910F91FF90EF9008955F
:10057000EF92FF920F931F93CF93DF93CDB7DEB728
:1005800028970FB6F894DEBF0FBECDBF7C01CB011C
:100590004AE08E010F5F1F4FB8010E944E12F80112
:1005A00001900020E9F73197AF01401B510BB801D2
:1005B000C7010E948A0228960FB6F894DEBF0FBECC
:1005C000CDBFDF91CF911F910F91FF90EF900895D4
:1005D0006115710551F0FB0101900020E9F7319799
:1005E000AF01461B570B0C948A0280E00895CF930D
:1005F000DF93EC0188819981009711F00E946417C4
:10060000198218821D821C821B821A82DF91CF916F
:100610000895CF93DF93EC01FB0144815581608104
:1006200071810E948A02811103C0CE010E94F702EB
:10063000CE01DF91CF910895EF92FF920F931F9318
:10064000CF93DF93EC017B018A01BA010E94630220
:10065000811104C0CE010E94F70207C01D830C83E4
:10066000B701888199810E94E818CE01DF91CF916E
:100670001F910F91FF90EF900895CF93DF93EC01BE
:100680006115710559F0FB0101900020E9F73197E0
:10069000AF01461B570B0E941C0302C00E94F702C9
:1006A000CE01DF91CF910895CF93DF93EC01FB0151
:1006B0008617970761F0608171816115710529F0D6
:1006C000448155810E941C0302C00E94F702CE01A2
:1006D000DF91CF910895FC01808191810C94641782
:1006E000FC011182108213821282158214820C94F2
:1006F0005403FC011182108213821282158214822B
:100700006115710551F0FB0101900020E9F7319767
:10071000AF01461B570B0C941C030895611571051E
:1007200079F0FB0101900020E9F73197AF01461BFA
:10073000570BDC01ED91FC910280F381E02D0994CF
:1007400080E090E008951F920F920FB60F9211244F
:100750002F933F934F935F936F937F938F939F93C9
:10076000AF93BF93EF93FF9389E192E00E947701EB
:10077000FF91EF91BF91AF919F918F917F916F9179
:100780005F914F913F912F910F900FBE0F901F904F
:1007900018951F920F920FB60F9211242F938F93DB
:1007A0009F93EF93FF93E0912902F0912A028081B9
:1007B000E0912F02F091300282FD12C09081809171
:1007C00032028F5F8F7320913302821751F0E091D4
:1007D0003202F0E0E75EFD4F958F8093320201C058
:1007E0008081FF91EF919F918F912F910F900FBE7C
:1007F0000F901F90189590E0FC01E459FE4F349142
:10080000FC01E657FE4F2491FC01E256FE4FE491B5
:10081000EE2309F43BC0332339F1333091F038F43F
:100820003130A9F0323001F584B58F7D12C03730F8
:1008300091F03830A1F03430B9F4809180008F7D90
:1008400003C0809180008F77809380000DC084B5B5
:100850008F7784BD09C08091B0008F7703C08091ED
:10086000B0008F7D8093B000F0E0EE0FFF1FEE59D7
:10087000FE4FA591B4918FB7F894EC91611103C02C
:1008800020952E2301C02E2B2C938FBF0895CF933C
:10089000DF9390E0FC01E657FE4F2491FC01E25605
:1008A000FE4F8491882361F190E0880F991FFC012D
:1008B000E058FE4FC591D491FC01EE59FE4FA59131
:1008C000B491611109C09FB7F89488812095822363
:1008D0008883EC912E230BC0623061F49FB7F894AB
:1008E0003881822F809583238883EC912E2B2C9343
:1008F0009FBF06C08FB7F894E8812E2B28838FBF47
:10090000DF91CF9108958F929F92AF92BF92CF9235
:10091000DF92EF92FF926B017C010E9422024B0159
:100920005C01C114D104E104F104F1F00E9422023F
:10093000DC01CB0188199909AA09BB09883E9340BB
:10094000A105B10570F321E0C21AD108E108F10850
:1009500088EE880E83E0981EA11CB11CC114D1043E
:10096000E104F10419F7DDCFFF90EF90DF90CF9015
:10097000BF90AF909F908F9008952FB7F89460919B
:10098000FF017091000280910102909102022FBF3D
:1009900008951F920F920FB60F9211242F933F9339
:1009A0008F939F93AF93BF938091FF01909100022B
:1009B000A0910102B09102023091FE0123E0230FC9
:1009C0002D3720F40196A11DB11D05C026E8230F87
:1009D0000296A11DB11D2093FE018093FF0190930B
:1009E0000002A0930102B093020280910302909151
:1009F0000402A0910502B09106020196A11DB11D4D
:100A00008093030290930402A0930502B093060220
:100A1000BF91AF919F918F913F912F910F900FBEFA
:100A20000F901F9018951F920F920FB60F921124DE
:100A30002F933F934F935F936F937F938F939F93E6
:100A4000AF93BF93EF93FF93E0910201F091030105
:100A50000995FF91EF91BF91AF919F918F917F91F8
:100A60006F915F914F913F912F910F900FBE0F901B
:100A70001F9018951F920F920FB60F9211242F936B
:100A80003F934F935F936F937F938F939F93AF9316
:100A9000BF93EF93FF93E0910001F091010109955D
:100AA000FF91EF91BF91AF919F918F917F916F9146
:100AB0005F914F913F912F910F900FBE0F901F901C
:100AC0001895EF92FF921F93CF93DF931F92CDB7AC
:100AD000DEB77C01162F60E0FC01808949830E940B
:100AE000FB03F701948585859CBD8DBD1EBD00006F
:100AF00049810DB407FEFDCF8EB54EBD00000DB48B
:100B000007FEFDCF1EB561E0F70180890E94FB035F
:100B1000812F0F90DF91CF911F91FF90EF9008955B
:100B20006F7740E00C946105EF92FF921F93CF9393
:100B3000DF931F92CDB7DEB77C01DC01ED91FC9114
:100B40000084F185E02D0995892B99F06DE0C701AE
:100B50000E949005482F60E0C70149830E949005DC
:100B6000182F49816DE8C7010E946105812F90E02F
:100B700002C08FEF9FEF0F90DF91CF911F91FF90F9
:100B8000EF900895CF93DF93EC01E881F981008421
:100B9000F185E02D0995892B59F08A8D9B8D019661
:100BA0009B8F8A8F60E0CE010E94900590E002C08A
:100BB0008FEF9FEFDF91CF910895CF93DF93EC01FB
:100BC00063E10E949005282F30E08A8D9B8DA9015A
:100BD000481B590BCA01DF91CF9108958F929F92C4
:100BE000AF92BF92CF92DF92FF920F931F93CF935A
:100BF000DF931F92CDB7DEB76C01B62E4A0162E2D9
:100C000079830E949005F82E90E09C01280D391DF3
:100C100079812F3F310531F028F02FEF30E0490185
:100C2000881A990A0B2D172F5801A80CB91C0A1500
:100C30001B0541F0F80141918F0160E8C6010E9457
:100C40006105F5CF482D4F0D62EAC6010E9461058E
:100C5000C4010F90DF91CF911F910F91FF90DF9012
:100C6000CF90BF90AF909F908F900895EF92FF929A
:100C70000F931F93CF93DF9377FD26C0FC0124854C
:100C800035856217730704F5EC018B010F5F1F4F69
:100C900026E0269FC001279F900D11248E0F9F1FD5
:100CA0002C853D857C01F6E0EF0EF11C0217130741
:100CB00038F4B7010E9454030F5F1F4FC701F0CFF4
:100CC000215031093D872C87DF91CF911F910F91E2
:100CD000FF90EF90089522E331E0FC0131832083FF
:100CE00082819381009711F00C9464170895CF933B
:100CF000DF93EC010E946B06CE01DF91CF910C9443
:100D000064170F931F93CF93DF9300D0CDB7DEB757
:100D10008C01DB011496ED91FC91159720E030E0F9
:100D20008BE62E173F0781F0DB014D915C91411559
:100D3000510529F0DA01A20FB31F9C9101C090E088
:100D400089272F5F3F4FEDCF6AE10E94B616F80169
:100D50001182108213821282158214829F59998304
:100D60001A82BE016F5F7F4FC8010E943D03C80118
:100D70000F900F90DF91CF911F910F9108950E94D6
:100D8000640C45E861E886EB92E00C946105CF9332
:100D9000DF93EC010E945E0C68EC70E080E090E074
:100DA0000E9483040E949D0CCE010E94B00CE09131
:100DB000B602F091B7024C815D8168817981028031
:100DC000F381E02D86EB92E009950E94740C68ECAB
:100DD00070E080E090E00E948304DF91CF910C945A
:100DE000BF06EF92FF920F931F93CF93DF938C0177
:100DF000EB0140E050E06CE7CE010E94D80BAC0163
:100E00004F5F5F4F6CE7CE010E94D80BAC014F5F84
:100E10005F4F6CE7CE010E94D80BAC014F5F5F4F74
:100E20006CE7CE010E94D80B01967C01AC016CE707
:100E3000CE010E94D80B9C01A701BE01C8010E94EF
:100E4000920BC801DF91CF911F910F91FF90EF900E
:100E50000895CF92DF92EF92FF920F931F93CF935B
:100E6000DF9300D000D000D0CDB7DEB77C018B017E
:100E700040E050E06CE7C8010E94D80BAC014F5F26
:100E80005F4F6CE7C8010E94D80BAC014F5F5F4F0A
:100E90006CE7C8010E94D80B01966C01AC016CE7AD
:100EA000C8010E94D80B9C01A601B801CE01019691
:100EB0000E94920BBE016F5F7F4FC7010E947003BB
:100EC000CE0101960E946B03C70126960FB6F894D7
:100ED000DEBF0FBECDBFDF91CF911F910F91FF906D
:100EE000EF90DF90CF9008950F931F93CF93DF93F0
:100EF000EC018B0140E050E06CE7C8010E94D80B88
:100F00009C0140E050E0B801CE010E94920BCE015E
:100F1000DF91CF911F910F910895EF92FF920F9360
:100F20001F93CF93DF938C01EB0140E050E06CE71F
:100F3000CE010E94D80BAC014F5F5F4F6CE7CE0132
:100F40000E94D80B01967C01AC016CE7CE010E9497
:100F5000D80B9C01A701BE01C8010E94920BC801D9
:100F6000DF91CF911F910F91FF90EF900895EF9235
:100F7000FF920F931F93CF93DF938C01EB0140E01F
:100F800050E06CE7CE010E94D80B01967C01AC01C9
:100F90006CE7CE010E94D80B9C01A701BE01C801DD
:100FA0000E94920BC801DF91CF911F910F91FF908A
:100FB000EF9008950F931F93CF93DF9300D000D04D
:100FC00000D0CDB7DEB78C01CE0101960E94700330
:100FD0006AED71E0CE0101960E94450C66E371E076
:100FE0000E94450C6AED71E00E94450CBC01C801ED
:100FF0000E947003CE0101960E946B03C8012696E1
:101000000FB6F894DEBF0FBECDBFDF91CF911F9119
:101010000F9108958F929F92AF92BF92CF92DF92DD
:10102000EF92FF920F931F93CF93DF93CDB7DEB76D
:10103000E2970FB6F894DEBF0FBECDBF5C016B0127
:101040008EE391E00E948A0C62E471E0C5010E9487
:10105000F40B882309F45DC1F6018081918100972A
:1010600009F457C10E942712DC01CB01885C910969
:10107000A109B10984369105A105B10508F049C15E
:101080006CEF71E0CE0187960E9479036BE471E00A
:10109000CE0187960E943D0380E10E940B0224E668
:1010A00030E0DC010E94C21620E034E040E050E075
:1010B0000E94BD15CA01B9012AE0AE014F5F5F4F22
:1010C0007A010E945912F70101900020E9F7319747
:1010D000AF014E195F09B701CE0187960E948A02BF
:1010E0006DE571E0CE0187960E94E80281E10E94E1
:1010F0000B0261E070E0C39714F060E070E0CE0195
:1011000087960E94B80263E671E0CE0187960E943E
:10111000E8028FE00E940B022DE7FC012E9FC00128
:101120002F9F900D1124792F770F770B692FCE0108
:1011300087960E94B80269E671E0CE0187960E9408
:10114000E8028EE00E940B02BC01990F880B990BFC
:101150000E94311520E030E040E251E40E94441644
:10116000870122E044E00E940712FC010190002068
:10117000E9F73197AF01481B590BBC01CE018796A7
:101180000E948A026FE671E0CE0187960E94E80213
:1011900060E070E0CE0187960E94B80265E771E0DA
:1011A000CE0187960E94E802F60144815581608154
:1011B0007181CE0187960E948A026BE771E0CE01B1
:1011C00087960E94E802CE0187960E94B00C6DE7D8
:1011D00071E0CE018D960E947903BE01635D7F4F61
:1011E000C7010E94700366E871E0C7010E94450CC8
:1011F000BE01695D7F4F0E940903BC01CE0181964B
:101200000E947003C7010E946B0368E871E0CE0181
:101210004B960E9479038DA19EA187960E94CF16BE
:101220008C01BE016F5D7F4FC7010E9470039980E2
:101230008A80BE01655E7F4FCE0145960E94DA0727
:101240008F929F928E898F938D898F9380E991E001
:101250009F938F931F930F930E94EF18CE01459693
:101260000E946B03C7010E946B03B801CE01459633
:101270000E947903BE016B5E7F4FC7010E94810609
:101280008A818F9389818F931F930F938AE991E0CD
:101290009F938F931F930F930E94EF18C7010E9493
:1012A0006B03CE0145960E946B030E945E0C68ECB6
:1012B00070E080E090E00E9483040E949D0CC801D1
:1012C0000E948A0CB80186EB92E00E948E030E9475
:1012D000740C68EC70E080E090E00E9483040E944F
:1012E000BF06C8010E946417CE014B960E946B0393
:1012F000CE0181960E946B03CE018D960E946B03F6
:10130000CE0187960E946B030FB6F894DEBF0FBE26
:10131000CDBF6FE971E0C5010E94F40B8823F1F0A5
:101320006EE871E0C6010E94F40B882341F061E091
:1013300084E00E94FB0385EB91E00E948A0C6CEB39
:1013400071E0C6010E94F40B882341F060E084E064
:101350000E94FB038EEB91E00E948A0C68EE73E022
:1013600080E090E00E948304E0E0F0E00995E296DE
:101370000FB6F894DEBF0FBECDBFDF91CF911F91A6
:101380000F91FF90EF90DF90CF90BF90AF909F9024
:101390008F9008958F929F92AF92BF92CF92DF92DB
:1013A000EF92FF920F931F93CF93DF93CDB7DEB7EA
:1013B00068970FB6F894DEBF0FBECDBF8C017B01DE
:1013C0006A015901BC0182E093E00E945403B70115
:1013D0008CEF92E00E945403B60186EF92E00E94E7
:1013E0005403B50180EF92E00E94540380910B02F8
:1013F000811135C08090070290900802B501CE019E
:1014000043960E947003B601CE010D960E947003B0
:10141000B701CE0107960E947003B801CE01019674
:101420000E9470039E012D5E3F4FAE01435F5F4FF0
:10143000BE01695F7F4FCE010196F4010995CE018F
:1014400001960E946B03CE0107960E946B03CE01AA
:101450000D960E946B03CE0143960E946B03689623
:101460000FB6F894DEBF0FBECDBFDF91CF911F91B5
:101470000F91FF90EF90DF90CF90BF90AF909F9033
:101480008F900895CF92DF92EF92FF920F931F9368
:10149000CF93DF936B01FC01E484F584EC0100E061
:1014A00010E00E151F0561F0B601CE010E94130C6D
:1014B0002696882311F0C80105C00F5F1F4FF1CF9A
:1014C0008FEF9FEFDF91CF911F910F91FF90EF90E2
:1014D000DF90CF9008950F931F93CF93DF93CDB7F5
:1014E000DEB768970FB6F894DEBF0FBECDBF8C0194
:1014F00040E050E064E20E94D80B8F3F2FEF92074C
:1015000009F472C09C0140E050E0B801CE0143965E
:101510000E94920B40E050E064E2C8010E94D80BA8
:10152000F80124813581AC014F5F5F4FB801CE01D6
:101530000D960E94920B66EC71E0CE0101960E941E
:101540007903BE016F5F7F4F82EE92E00E94420AF4
:10155000019661F4BE016D5E7F4F82EE92E00E94C3
:10156000420A11E0019619F410E001C011E0CE0129
:1015700001960E946B03112379F1BE016D5E7F4FCE
:101580008CED92E00E945403BE01635F7F4F86EDB5
:1015900092E00E9454030091090210910A02BE01D8
:1015A000635F7F4FCE0107960E947003BE016D5EA0
:1015B0007F4FCE0101960E947003BE01695F7F4F8D
:1015C000CE010196F8010995CE0101960E946B03A8
:1015D000CE0107960E946B03CE010D960E946B030D
:1015E000CE0143960E946B0368960FB6F894DEBF57
:1015F0000FBECDBFDF91CF911F910F910895AF9294
:10160000BF92CF92DF92EF92FF920F931F93CF93EF
:10161000DF9300D000D000D0CDB7DEB78C016B01D6
:10162000FC0184859585029749F5B801CE010196A4
:101630000E947003F80184859585892BD9F0C80133
:10164000EE24E394F12CF801248535855C01F6E065
:10165000AF0EB11CE216F30640F4B5010E9454032C
:10166000FFEFEF1AFF0AC501EECF21503109F80153
:1016700035872487CE0101960E946B03F8012485EB
:10168000358546E0429FC001439F900D1124B6016D
:10169000800F911F0E945403F8018485958501965F
:1016A0009587848726960FB6F894DEBF0FBECDBF10
:1016B000DF91CF911F910F91FF90EF90DF90CF902E
:1016C000BF90AF900895EF92FF920F931F93CF9327
:1016D000DF93EC016CEF71E00E9479036CEF71E035
:1016E000CE0106960E9479031D861C867E0100E0CD
:1016F00010E08C859D850817190758F46CEF71E090
:10170000C7010E943D030F5F1F4F86E0E80EF11CEA
:10171000F0CFDF91CF911F910F91FF90EF9008953F
:101720000E94C618BF92CF92DF92EF92FF920F9362
:101730001F93CF93DF937C016B018A01E90124178A
:10174000350720F4812F8901C42FD82F6CEF71E069
:10175000C7010E947903D60114968D919C9115972B
:1017600008171907D0F48C179D0708F4EC01D6016F
:10177000ED91FC911197EC0FFD1FB08010824D91FF
:101780005C91BA01600F711FC7010E943D03D60131
:10179000ED91FC91EC0FFD1FB082C701DF91CF915D
:1017A0001F910F91FF90EF90DF90CF90BF90089521
:1017B000CF93DF93FC01248135814217530778F4DE
:1017C000C081D181062E000C770BCE01840F951FAE
:1017D0000E94D418009719F08C1B9D0B02C08FEF4C
:1017E0009FEFDF91CF910895FC0124813581232B58
:1017F00031F421E061157105A1F0FB0108C0FC0185
:10180000808191816115710531F421E0FC018081B5
:10181000882339F005C00E94DF1821E0892B09F0E8
:1018200020E0822F0895FC0124813581FB01448151
:1018300055812417350721F5FC0180819181FB0139
:1018400060817181009719F061157105A1F461152E
:10185000710549F0232BB1F0FB01808190E0919557
:10186000819591090AC0009769F0232B59F0FC017A
:10187000808190E002C00E94DF1821E0892B19F0DE
:1018800020E001C021E0822F0895CF93DF93EC0187
:101890006115710561F0FB0101900020E9F73197B6
:1018A000AF01461B570B0E948A02811103C0CE0173
:1018B0000E94F702CE01DF91CF91089541E861E8DF
:1018C00086EB92E00C9461051092D3021092D20242
:1018D0006DE186EB92E00E949005482F4E7F6DE906
:1018E00086EB92E00C94610543E861E886EB92E0B8
:1018F0000E94610562E186EB92E00E94900583FF01
:10190000F9CF48E062E986EB92E00E94610581E050
:1019100090E00895CF93DF93BC0189E192E00E94AB
:101920008E03EC016AEF71E089E192E00E948E0380
:101930008C0F9D1FDF91CF9108950E945E0C0E9435
:10194000640C40E06DE886EB92E00E94610540E0A7
:1019500062EA86EB92E00E94610581E090E00895E2
:10196000CF93DF93FC01448155816081718189E1CE
:1019700092E00E940501EC016AEF71E089E192E0DA
:101980000E948E038C0F9D1FDF91CF91089586EDED
:1019900092E00E946B038CED92E00E946B0388EE54
:1019A00092E00E946B0382EE92E00E946B0380EF54
:1019B00092E00E946B0386EF92E00E946B038CEF33
:1019C00092E00E946B0382E093E00E946B0388E048
:1019D00093E00E946B0688E193E00E946B0382E132
:1019E00093E00E946B0386E293E00E946B0380E227
:1019F00093E00C946B03CF93DF93CDB7DEB7A4973E
:101A00000FB6F894DEBF0FBECDBF789484B5826068
:101A100084BD84B5816084BD85B5826085BD85B592
:101A2000816085BD80916E00816080936E00109210
:101A3000810080918100826080938100809181008B
:101A4000816080938100809180008160809380001C
:101A50008091B10084608093B1008091B00081607A
:101A60008093B00080917A00846080937A008091A6
:101A70007A00826080937A0080917A0081608093FE
:101A80007A0080917A00806880937A001092C10079
:101A9000E0912902F0912A0282E08083E091250200
:101AA000F09126021082E0912702F091280280E155
:101AB000808310923102E0912D02F0912E0286E097
:101AC0008083E0912B02F0912C02808180618083E1
:101AD000E0912B02F0912C02808188608083E0915C
:101AE0002B02F0912C02808180688083E0912B0290
:101AF000F0912C0280818F7D808361E08091C6020D
:101B00000E94470461E08091C6020E94FB0380911D
:101B1000C8029091C9028F3F2FEF9207C9F061E090
:101B20000E94470460E08091C8020E94FB036AE0C3
:101B300070E080E090E00E94830461E08091C80240
:101B40000E94FB036AE070E080E090E00E94830462
:101B50001FB7F89480910C02811127C0E8EAF1E0E8
:101B60008491E4E9F1E09491E82FF0E0EE0FFF1F9B
:101B7000E058FE4FA591B491EC91E92321F461E086
:101B80008AE00E94FB0361E08AE00E9447048CB572
:101B900080618CBD8CB580648CBD61E08DE00E945D
:101BA000470461E08BE00E94470480910C028F5F44
:101BB00080930C021FBF62E486EB92E00E949005C6
:101BC000823109F071C340E861E886EB92E00E943F
:101BD000610580E49EE0AFECB9E18093CC02909384
:101BE000CD02A093CE02B093CF024CE666E886EB1E
:101BF00092E00E94610540E467E886EB92E00E9473
:101C0000610540E068E886EB92E00E94610540E0F3
:101C10006EE886EB92E00E94610540E06FE886EB9B
:101C200092E00E9461056CE086EB92E00E949005D4
:101C3000482F43606CE886EB92E00E94610544E027
:101C400066EA86EB92E00E9461054FE869E886EB60
:101C500092E00E9461050E945E0C60E08EE00E94AE
:101C6000470460E08FE00E94470460E080E10E944A
:101C7000470460E081E10E94470461E084E00E9443
:101C800047040E94BF068BE69AE090930802809377
:101C9000070266EC71E0CE0101960E947903BE0155
:101CA0006F5F7F4F82EE92E00E94FF0ACE010196A5
:101CB0000E946B038AE098E090930A0280930902E5
:101CC00088EC91E00E948A0CE12CF12C96E0B92E70
:101CD0000E94BD0461327F4B8240910510F0F701F4
:101CE000099562E186EB92E00E949005182F0E9410
:101CF000640C412F62E986EB92E00E94610516FFB9
:101D00002CC015FD2AC01092D1021092D0028091F1
:101D1000D2029091D302892B11F062E201C063E1FB
:101D200086EB92E00E949005082F10E060E186EBC0
:101D300092E00E949005482F6DE886EB92E00E94A9
:101D400061050E945E0C012B09F4F4C16CEF71E097
:101D5000CE014F960E94790315C061E086EB92E0B8
:101D60000E949005863809F4E5C140E06DE886EBF5
:101D700092E00E94610546E861E886EB92E00E94ED
:101D80006105D8C186EB92E00E94DD05892B81F0C8
:101D900086EB92E00E94C20589831A8241E050E0FE
:101DA000BE016F5F7F4FCE014F960E948A02EACF3D
:101DB0002BA13CA12150310940E050E0BE01615E01
:101DC0007F4FCE010D960E94920BBE01635F7F4F45
:101DD000CE0101960E9481062BA13CA1A901415090
:101DE0005109BE01615E7F4FCE0107960E94920BA2
:101DF000BE016F5F7F4FCE0107960E94130C182F14
:101E0000CE0107960E946B03CE0101960E946B03E0
:101E1000CE010D960E946B03112309F487C1BE0108
:101E2000615E7F4FCE0101960E94B70766E371E0C5
:101E3000CE0101960E94F40B811115C0BE01615EB6
:101E40007F4FCE0107960E94B70768E871E0CE0188
:101E500007960E94F40B11E0811110E0CE01079665
:101E60000E946B0301C010E0CE0101960E946B033B
:101E700011115CC1BE01615E7F4FCE0101960E94CF
:101E8000740762ED71E0CE0101960E94F40B182FE9
:101E9000CE0101960E946B031123C1F162ED71E046
:101EA000CE0143960E947903BE01615E7F4FCE0151
:101EB0000D960E94B707BE01615E7F4FCE01079667
:101EC0000E948D07BE01615E7F4FCE0101960E9488
:101ED00029079E012D5E3F4FAE01435F5F4FBE015C
:101EE000695F7F4FCE0101960E94CA09CE0101961B
:101EF0000E946B03CE0107960E946B03CE010D96E4
:101F00000E946B03CE0143960E946B03BE01615E8B
:101F10007F4FCE0101960E9474076DED71E0CE01F6
:101F200001960E94F40B182FCE0101960E946B03BC
:101F3000112309F4B0C0BE01615E7F4F82E193E0DE
:101F40000E94FF0ABE01615E7F4FCE0101960E9492
:101F5000F106BE01615E7F4FCE010D960E948D0796
:101F6000BE01635F7F4FCE0107960E94DA0766EDE0
:101F700071E0CE0143960E947903BE01695F7F4FF5
:101F8000CE0143960E940903BE016F5F7F4F0E94FE
:101F900009036AED71E00E94450CBC01CE0149962F
:101FA0000E947003CE0143960E946B03CE010796F8
:101FB0000E946B03CE010D960E946B03CE01019629
:101FC0000E946B03BE01675E7F4FCE0101960E94A7
:101FD00081064D815E8169817A81CE0149960E9498
:101FE0008A02CE0101960E946B03CE0149960E949F
:101FF000C706CE0149960E946B03BE01615E7F4F0A
:1020000082E193E00E94420A019609F08FC06DEDD3
:1020100071E0CE0143960E947903BE01615E7F4F5D
:10202000CE010D960E94B707BE01615E7F4FCE01C3
:1020300007960E948D07BE01615E7F4FCE0101961B
:102040000E9429079E012D5E3F4FAE01435F5F4F07
:10205000BE01695F7F4FCE0101960E94CA09CE0181
:1020600001960E946B03CE0107960E946B03CE017E
:102070000D960E946B03CE0143960E946B038091E4
:102080001E0390911F03069734F060E070E082E138
:1020900093E00E943606BE01615E7F4FCE0101963D
:1020A0000E9474076CED71E0CE0101960E94F40B62
:1020B000182FCE0101960E946B031123B9F1BE01C6
:1020C000615E7F4FCE0107960E94290700E010E075
:1020D00080912C0390912D030817190718F517FD0F
:1020E00004C0081719070CF4E4C060E273E0CE01E5
:1020F00001960E94F106BE01695F7F4FCE010196F5
:102100000E94130CD82ECE0101960E946B03DD2095
:1021100031F0B80180E293E00E94360603C00F5F01
:102120001F4FD6CFCE0107960E946B03CE014F966C
:102130000E946B038091110281110DC00E94BD04A9
:1021400060930D0270930E0280930F029093100221
:1021500081E0809311020E94BD0400910D02109154
:102160000E0220910F0230911002DC01CB01801B86
:10217000910BA20BB30B893E9340A105B10508F466
:1021800090C0812C912C00E010E080912C03909164
:102190002D030817190708F07AC017FD04C00817A7
:1021A00019070CF48EC080E2C82E83E0D82E61EEB1
:1021B00071E0CE0101960E947903B601CE0101962D
:1021C0000E9409030E94C706CE0101960E946B037C
:1021D00080910E0390910F03801791073CF0E091DE
:1021E0000A03F0910B03E80DF91D02C0E0E1F3E0F2
:1021F0008081918101969183808380910E039091DB
:102200000F03801791073CF0E0910A03F0910B0354
:10221000E80DF91D02C0E0E1F3E080819181F80151
:1022200031966F01089770F1B80180E293E00E9447
:102230003606E0910A03F0910B03E80DF91D80E0EA
:1022400090E020910E0330910F03A9014F5F5F4F83
:10225000401B510B8417950734F4A601480F591FF2
:10226000241735074CF40C191D09200F311F30932A
:102270000F0320930E0306C02281338121933193F3
:102280000196DFCF8601F2E08F0E911C7ECF0E9477
:10229000BD0460930D0270930E0280930F02909321
:1022A00010020E94010214CD84EE91E00E948A0C7B
:1022B000FFCFB09EB001B19E700D1124605E7C4FC7
:1022C00016CFB09EC001B19E900D11249C01205EDE
:1022D0003C4F69016CCFCF93DF93E9E1F2E01382C9
:1022E000128288EE93E0A0E0B0E084839583A68319
:1022F000B7838EE091E09183808385EC90E09587B1
:10230000848784EC90E09787868780EC90E0918BBF
:10231000808B81EC90E0938B828B82EC90E0958BAC
:10232000848B86EC90E0978B868B118E128E138EA9
:10233000148EE6EBF2E01382128280E291E0918348
:10234000808380E5848781E085878EE293E09787AC
:1023500086878AE090E0918B808B89E090E0938B78
:10236000828B82E090E0958B848B168A178A108E80
:10237000118E138E128E158E148E178E168E148259
:1023800015821682178280E293E00E94630B82E13D
:1023900093E00E94630BC8E0D3E082E391E099836D
:1023A000888380E090E00E94CF169B838A832FEF82
:1023B0003FEF3F832E839D838C836CEF71E082E03F
:1023C00093E00E9479036CEF71E08CEF92E00E9441
:1023D00079036CEF71E086EF92E00E9479036CEF75
:1023E00071E080EF92E00E94790382EE92E00E9419
:1023F000630B6CEF71E08CED92E00E9479036CEF5F
:1024000071E086ED92E0DF91CF910C947903EF9229
:102410000F931F93CF93DF93E80147FD02C034E091
:1024200001C034E1E42F440FFF0BF7FF03C0F19527
:10243000E195F109E32E022F2E2FAE010E94B91271
:10244000CE01DF91CF911F910F91EF9008951F93CF
:10245000FC0199278827BC01E89411911032E9F317
:10246000193010F01E30C8F31B3251F01D3249F400
:10247000689406C00E946812610F711D811D911D34
:10248000119110531A30B0F33EF4909580957095E9
:1024900061957F4F8F4F9F4F1F910895BB274A3003
:1024A00031F4992322F4BDE2909581959F4F0C94CD
:1024B000A012BB272A3051F4992342F4BDE2909533
:1024C0008095709561957F4F8F4F9F4F0C947E1232
:1024D000592F482F372F262F660F771F881F991FD8
:1024E000660F771F881F991F620F731F841F951F28
:1024F000660F771F881F991F0895BB27FA01A62F23
:102500006217710581059105330B30FB66F0AA2730
:10251000660F771F881F991FAA1FA21710F0A21B12
:1025200063953850A9F7A05DAA3308F0A95DA1937F
:1025300036F7B111B1931082CA010C941F15BB2755
:10254000FB015527AA27880F991FAA1FA41710F06F
:10255000A41B83955051B9F7A05DAA3308F0A95D7B
:10256000A193009779F7B111B1931192CB010C941B
:102570001F154F925F926F927F929F92AF92BF9280
:10258000CF92DF92EF92FF920F931F93CF93DF933F
:10259000CDB7DEB729970FB6F894DEBF0FBECDBF1B
:1025A0006A01122FB02E2BE3201720F0FF24F394A2
:1025B000F00E02C0BCE3FB2E0F2D27E0AE014F5FF3
:1025C0005F4F0E944714AC018981982F9970913018
:1025D00031F0E1FC06C0E0FE06C090E205C09DE2DD
:1025E00003C09BE201C090E0EE2DE07183FF3CC090
:1025F000911102C083E001C084E0811718F4212FFB
:10260000281B01C020E0E1110BC0F601822F30E24F
:10261000882319F031938150FBCFC20ED11C20E0EA
:10262000992329F0D6019C93F60131966F01C601DA
:102630000396E2FE0AC03EE4D6013C9341E41196C3
:102640004C93119712963C9306C03EE6F6013083F8
:1026500041E641833283FC01322F40E2332309F407
:1026600042C041933150FACF82FF44C0911102C061
:1026700083E001C084E0811718F4212F281B01C0DA
:1026800020E0E1110BC0F601822F30E2882319F01F
:1026900031938150FBCFC20ED11C20E0992329F049
:1026A000D6019C93F60131966F01C6010396E2FEB6
:1026B0000BC039E4D6013C933EE411963C9311974C
:1026C00036E412963C9307C039E6F60130833EE6C5
:1026D000318336E63283FC01322F40E2332319F096
:1026E00041933150FBCFFC01E20FF11D10828EEFC0
:1026F0009FEFB7C0F1E0911101C0F0E06F2F70E0E3
:102700001416150624F49A012F5F3F4F02C021E0F2
:1027100030E0260F371FBB2029F06B2D70E06F5F74
:102720007F4F02C060E070E0260F371F612F70E01E
:10273000261737071CF4121B212F01C020E03E2D65
:10274000387159F4D601322F60E2332319F06D93BA
:102750003150FBCFC20ED11C20E0FF2331F0D60157
:102760009C93B6016F5F7F4F6B01E1110BC0F601C7
:10277000922F30E3992319F031939150FBCFC20E81
:10278000D11C20E09F2D940F3A81782F7071A72ED5
:1027900084FF03C0313309F49150191624F49930A1
:1027A00018F098E001C091E0E42F852F57FF02C098
:1027B000E0E080E06E2F782FE0E0F0E0AEE29A2ECD
:1027C0003A01691A71082A01461A570A0B2D10E0BE
:1027D0001195019511096F3F8FEF780729F4D60104
:1027E0009C92C60101966C014617570784F0661645
:1027F00077066CF47F01E40CF51CA1E0B0E0AC0FAF
:10280000BD1FEA0EFB1ED7011196BC9002C090E3DB
:10281000B92E615071093196C60101967C0160178D
:10282000710724F0D601BC926C01D5CF64177507EF
:1028300041F4363320F4353321F4A11002C081E392
:10284000B82EF601B082F701822F90E2882319F0AA
:1028500091938150FBCFF701E20FF11D108280E0D0
:1028600090E029960FB6F894DEBF0FBECDBFDF9182
:10287000CF911F910F91FF90EF90DF90CF90BF907D
:10288000AF909F907F906F905F904F900895283009
:1028900008F027E03327DA01990F311D87FD916099
:1028A00000966105710539F432602E5F3D9330E387
:1028B0002A95E1F708959F3F30F080387105610552
:1028C00009F03C5F3C5F3D93913008F08068911DBA
:1028D000DF93CF931F930F93FF92EF92192F987F5F
:1028E0009695E92F96959695E90FFF27EE53FF4FA2
:1028F00099273327EE24FF24A701E70105900894C8
:10290000079428F4360FE71EF81E491F511D660F65
:10291000771F881F991F0694A1F70590079428F444
:10292000E70EF81E491F561FC11D770F881F991FFC
:10293000661F0694A1F70590079428F4F80E491F26
:10294000561FC71FD11D880F991F661F771F06943A
:10295000A1F70590079420F4490F561FC71FD81FF1
:10296000990F661F771F881F0694A9F78491109509
:10297000177041F0D695C79557954795F794E7940A
:102980001A95C1F7E8E6F0E0689415901591359135
:102990006591959105907FE27395E118F10A430BDB
:1029A000560BC90BD009C0F7E10CF11E431F561F8F
:1029B000C91FD01D7EF4703311F48A95E6CFE894D8
:1029C000015030F0080F0AF40027021708F4202FF6
:1029D0002395022F7A3328F079E37D932A95E9F73E
:1029E00010C07D932A9589F606949795679537953B
:1029F00017951794E118F10A430B560BC90BD00930
:102A000098F023957E9173957A3308F070E37C9368
:102A10002013B8F77E9170617D9330F0839571E358
:102A20007D9370E32A95E1F71124EF90FF900F91C9
:102A30001F91CF91DF91992787FD90950895DC0133
:102A4000FC01672F71917723E1F7329704C07C91E5
:102A50006D9370836291AE17BF07C8F30895E89431
:102A600009C097FB3EF490958095709561957F4FD6
:102A70008F4F9F4F9923A9F0F92F96E9BB27939584
:102A8000F695879577956795B795F111F8CFFAF494
:102A9000BB0F11F460FF1BC06F5F7F4F8F4F9F4FC5
:102AA00016C0882311F096E911C0772321F09EE823
:102AB000872F762F05C0662371F096E8862F70E089
:102AC00060E02AF09A95660F771F881FDAF7880F63
:102AD0009695879597F9089597F99F6780E870E034
:102AE00060E008959FEF80EC089500240A94161684
:102AF000170618060906089500240A9412161306EC
:102B0000140605060895092E0394000C11F4882379
:102B100052F0BB0F40F4BF2B11F460FF04C06F5F95
:102B20007F4F8F4F9F4F089557FD9058440F551F6B
:102B300059F05F3F71F04795880F97FB991F61F03F
:102B40009F3F79F087950895121613061406551FB6
:102B5000F2CF4695F1DF08C0161617061806991F22
:102B6000F1CF86957105610508940895E894BB2717
:102B700066277727CB0197F90895052E97FB1EF45A
:102B800000940E94D41557FD07D00E94131607FC2D
:102B900003D04EF40C94D415509540953095219562
:102BA0003F4F4F4F5F4F0895909580957095619579
:102BB0007F4F8F4F9F4F08952F923F924F925F927A
:102BC0006F927F928F929F92AF92BF92CF92DF923D
:102BD000EF92FF920F931F93CF93DF93CDB7DEB7A2
:102BE000CA1BDB0B0FB6F894DEBF0FBECDBF099436
:102BF0002A88398848885F846E847D848C849B848D
:102C0000AA84B984C884DF80EE80FD800C811B819A
:102C1000AA81B981CE0FD11D0FB6F894DEBF0FBEC9
:102C2000CDBFED010895A1E21A2EAA1BBB1BFD0129
:102C30000DC0AA1FBB1FEE1FFF1FA217B307E4079B
:102C4000F50720F0A21BB30BE40BF50B661F771FF3
:102C5000881F991F1A9469F76095709580959095D3
:102C60009B01AC01BD01CF010895A29FB001B39FAC
:102C7000C001A39F700D811D1124911DB29F700D85
:102C8000811D1124911D08950E9458160C948315DE
:102C90000E947C1558F00E94751540F029F45F3FA2
:102CA00029F00C946C1551110C94B7150C947215F5
:102CB0000E94941568F39923B1F3552391F3951B62
:102CC000550BBB27AA2762177307840738F09F5F4D
:102CD0005F4F220F331F441FAA1FA9F335D00E2EBA
:102CE0003AF0E0E832D091505040E695001CCAF727
:102CF0002BD0FE2F29D0660F771F881FBB1F2617EA
:102D000037074807AB07B0E809F0BB0B802DBF01C0
:102D1000FF2793585F4F3AF09E3F510578F00C948F
:102D20006C150C94B7155F3FE4F3983ED4F3869589
:102D300077956795B795F7959F5FC9F7880F911DB0
:102D40009695879597F90895E1E0660F771F881F9C
:102D5000BB1F621773078407BA0720F0621B730B4F
:102D6000840BBA0BEE1F88F7E0950895991B79E064
:102D700004C0991F961708F0961B881F7A95C9F70B
:102D8000809508950E943516B7FF0895821B930B16
:102D90000895EE0FFF1F0590F491E02D0994CF9355
:102DA000DF938230910510F482E090E0E0913103EE
:102DB000F091320320E030E0C0E0D0E0309711F134
:102DC0004081518148175907C0F04817590761F4ED
:102DD00082819381209719F09B838A832BC09093E3
:102DE00032038093310326C02115310519F04217B3
:102DF000530718F49A01BE01DF01EF010280F3814D
:102E0000E02DDCCF2115310509F1281B390B2430C9
:102E1000310590F412968D919C911397611571056F
:102E200021F0FB019383828304C09093320380934B
:102E30003103FD01329644C0FD01E20FF31F81937F
:102E40009193225031092D933C933AC020912F0346
:102E500030913003232B41F420910601309107017A
:102E60003093300320932F0320910401309105010A
:102E70002115310541F42DB73EB74091080150911D
:102E80000901241B350BE0912F03F0913003E21769
:102E9000F307A0F42E1B3F0B2817390778F0AC017D
:102EA0004E5F5F4F2417350748F04E0F5F1F50935A
:102EB000300340932F038193919302C0E0E0F0E050
:102EC000CF01DF91CF9108950F931F93CF93DF939D
:102ED000009709F48CC0FC01329713821282009192
:102EE0003103109132030115110581F420813181E4
:102EF000820F931F20912F03309130032817390739
:102F000079F5F0933003E0932F0371C0D80140E0CE
:102F100050E0AE17BF0750F412962D913C911397D5
:102F2000AD012115310509F1D901F3CF9D01DA0178
:102F30003383228360817181860F971F82179307E5
:102F400069F4EC0128813981260F371F2E5F3F4F2E
:102F5000318320838A819B8193838283452B29F44B
:102F6000F0933203E093310342C01396FC93EE9347
:102F70001297ED01499159919E01240F351FE217D7
:102F8000F30771F480819181840F951F0296119649
:102F90009C938E938281938113969C938E93129728
:102FA000E0E0F0E0D80112968D919C911397009784
:102FB00019F0F8018C01F6CF8D919C9198012E5F4C
:102FC0003F4F820F931F20912F033091300328171A
:102FD000390769F4309729F41092320310923103C3
:102FE00002C0138212821093300300932F03DF91EB
:102FF000CF911F910F910895A0E0B0E0E2E0F8E1D9
:103000000C94E015EC01009721F4CB010E94CF163F
:10301000B8C0FC01E60FF71F9C0122503109E217EE
:10302000F30708F4ACC0D9010D911C911197061754
:103030001707B0F00530110508F49FC0C8010497C8
:103040008617970708F499C002501109061B170B41
:10305000019311936D937C93CF010E9464178DC0EF
:103060005B01A01AB10A4C01800E911EA0913103A0
:10307000B091320340E050E0E12CF12C109709F4BC
:103080004AC0A815B905D1F56D907C9011976301E0
:1030900082E0C80ED11CCA14DB0480F1A3014A19D6
:1030A0005B096A0182E0C80ED11C1296BC9012978F
:1030B0001396AC91B5E0CB16D10440F0B282A38355
:1030C00051834083D9016D937C930AC00E5F1F4FDB
:1030D000C301800F911FF90191838083EB2DFA2F9B
:1030E000E114F10431F0D7011396FC93EE9312979B
:1030F00044C0F0933203E09331033FC08D919C9123
:1031000011974817590708F4AC017D0112960D90EC
:10311000BC91A02DB3CF80912F03909130038815DF
:103120009905E1F446175707C8F48091040190917E
:103130000501009741F48DB79EB740910801509169
:103140000901841B950BE817F907C8F4F0933003C5
:10315000E0932F03F901718360830FC0CB010E94BC
:10316000CF167C01009759F0A801BE010E94CB1830
:10317000CE010E946417C70104C0CE0102C080E0E6
:1031800090E0CDB7DEB7EEE00C94FC1581E090E066
:10319000F8940C94901BFB01DC0102C001900D928D
:1031A00041505040D8F70895FC018191861721F0D5
:1031B0008823D9F7992708953197CF010895FB0106
:1031C000DC018D91019080190110D9F3990B0895BC
:1031D000FB01DC0101900D920020E1F70895AEE0C3
:1031E000B0E0E5EFF8E10C94EA150D891E8986E060
:1031F0008C831A8309838FEF9FE79E838D83AE01B3
:10320000475E5F4F6F89788DCE0101960E9412193B
:103210002F813885F801E20FF31F10822E96E4E02B
:103220000C940616ACE0B0E0E8E1F9E10C94DC1592
:103230007C016B018A01FC0117821682838181FF68
:10324000BDC1CE0101964C01F7019381F60193FDBA
:10325000859193FF81916F01882309F4ABC1853279
:1032600039F493FD859193FF81916F01853229F4A3
:10327000B70190E00E94FA1AE7CF512C312C20E0E0
:103280002032A0F48B3269F030F4803259F083326E
:1032900069F420612CC08D3239F0803339F421601B
:1032A00026C02260246023C0286021C027FD27C0DB
:1032B00030ED380F3A3078F426FF06C0FAE05F9E12
:1032C000300D1124532E13C08AE0389E300D112486
:1032D000332E20620CC08E3221F426FD6BC1206497
:1032E00006C08C3611F4206802C0883641F4F6011D
:1032F00093FD859193FF81916F018111C1CF982F2B
:103300009F7D9554933028F40C5F1F4FFFE3F983A2
:103310000DC0833631F0833771F0833509F05BC01F
:1033200022C0F801808189830E5F1F4F442443949B
:10333000512C540115C03801F2E06F0E711CF801D8
:10334000A080B18026FF03C0652D70E002C06FEF42
:103350007FEFC5012C870E94EF1A2C0183012C8579
:103360002F77222E17C03801F2E06F0E711CF80182
:10337000A080B18026FF03C0652D70E002C06FEF12
:103380007FEFC5012C870E94E41A2C012C85206850
:10339000222E830123FC1BC0832D90E04816590682
:1033A000B0F4B70180E290E00E94FA1A3A94F4CFA8
:1033B000F50127FC859127FE81915F01B70190E01F
:1033C0000E94FA1A31103A94F1E04F1A5108411450
:1033D000510471F7E5C0843611F0893639F5F801EA
:1033E00027FF07C060817181828193810C5F1F4F2D
:1033F00008C060817181072E000C880B990B0E5F4D
:103400001F4F2F76722E97FF09C09095809570956B
:1034100061957F4F8F4F9F4F2068722E2AE030E0DA
:10342000A4010E94321BA82EA81844C0853729F495
:103430002F7EB22E2AE030E025C0F22FF97FBF2E7A
:103440008F36C1F018F4883579F0B4C0803719F0A0
:10345000883721F0AFC02F2F2061B22EB4FE0DC0EF
:103460008B2D8460B82E09C024FF0AC09F2F966060
:10347000B92E06C028E030E005C020E130E002C0EF
:1034800020E132E0F801B7FE07C0608171818281DE
:1034900093810C5F1F4F06C06081718180E090E0D6
:1034A0000E5F1F4FA4010E94321BA82EA818FB2DEF
:1034B000FF777F2E76FE0BC0372D3E7FA51450F48C
:1034C00074FE0AC072FC08C0372D3E7E05C0BA2CBF
:1034D000372D03C0BA2C01C0B52C34FF0DC0FE013E
:1034E000EA0DF11D8081803311F4397E09C032FF6D
:1034F00006C0B394B39404C0832F867809F0B394C4
:1035000033FD13C030FF06C05A2CB31418F4530C0B
:103510005B18B32CB31468F4B70180E290E03C87E9
:103520000E94FA1AB3943C85F5CFB31410F43B18FB
:1035300001C0312C34FF12C0B70180E390E03C871A
:103540000E94FA1A3C8532FF17C031FD03C088E79C
:1035500090E002C088E590E0B7010CC0832F867828
:1035600059F031FF02C08BE201C080E237FD8DE2ED
:10357000B70190E00E94FA1AA51438F4B70180E36D
:1035800090E00E94FA1A5A94F7CFAA94F401EA0D37
:10359000F11D8081B70190E00E94FA1AA110F5CFC9
:1035A000332009F451CEB70180E290E00E94FA1A6C
:1035B0003A94F6CFF7018681978102C08FEF9FEF93
:1035C0002C96E2E10C94F815FC01059061507040D6
:1035D0000110D8F7809590958E0F9F1F0895FC01DC
:1035E0006150704001900110D8F7809590958E0F32
:1035F0009F1F08950F931F93CF93DF93FB012381A8
:1036000021FD03C08FEF9FEF28C022FF16C0468127
:103610005781248135814217530744F4A081B18139
:103620009D012F5F3F4F318320838C93268137810B
:103630002F5F3F4F3783268310C0EB01092F182FD0
:103640000084F185E02D0995892BE1F68E819F811B
:1036500001969F838E83812F902FDF91CF911F91B1
:103660000F910895FA01AA27283051F1203181F1F4
:10367000E8946F936E7F6E5F7F4F8F4F9F4FAF4F7A
:10368000B1E03ED0B4E03CD0670F781F891F9A1F8D
:10369000A11D680F791F8A1F911DA11D6A0F711D41
:1036A000811D911DA11D20D009F468943F912AE04D
:1036B000269F11243019305D3193DEF6CF01089535
:1036C000462F4770405D4193B3E00FD0C9F7F6CF66
:1036D000462F4F70405D4A3318F0495D31FD40522E
:1036E000419302D0A9F7EACFB4E0A69597958795C4
:1036F00077956795BA95C9F70097610571050895A3
:103700009B01AC010A2E069457954795379527954E
:10371000BA95C9F7620F731F841F951FA01D0895E6
:1037200010E0CAEDD0E004C0FE010E94C916219647
:0A373000CB3DD107C9F7F894FFCF95
:10373A00470247020000330380000000000098019E
:10374A0005013001DF0161013F0153010000000062
:10375A004902EE0560024802DD05C2059405000033
:10376A0000006B067706312E302E302E320072653D
:10377A007300716F732F73796E63007B2274223A20
:10378A00226E6F646531222C2262223A002C227743
:10379A00223A002C2254223A002C2268223A002C87
:1037AA002273223A002C2271223A007D007265733C
:1037BA002F6A736F6E002400302E302E302E3000A8
:1037CA007564707C257325737C00257325730063EB
:1037DA00746C2F6E6F6465312F77617465725377DD
:1037EA00697463680070756D704F6E003100707592
:1037FA006D704F6666002300737461727465642E7F
:10380A002E0075647000727463707C007274637049
:10381A00007463005374617274696E67204C6F524E
:0E382A0061206661696C656421000D0A000072
:107800000C94343C0C94513C0C94513C0C94513CE1
:107810000C94513C0C94513C0C94513C0C94513CB4
:107820000C94513C0C94513C0C94513C0C94513CA4
:107830000C94513C0C94513C0C94513C0C94513C94
:107840000C94513C0C94513C0C94513C0C94513C84
:107850000C94513C0C94513C0C94513C0C94513C74
:107860000C94513C0C94513C11241FBECFEFD8E036
:10787000DEBFCDBF11E0A0E0B1E0ECE9FFE702C060
:1078800005900D92A230B107D9F712E0A2E0B1E065
:1078900001C01D92AD30B107E1F70E942D3D0C945F
:1078A000CC3F0C94003C982F959595959595959582
:1078B000905D8F708A307CF0282F295A8091C0000B
:1078C00085FFFCCF9093C6008091C00085FFFCCF60
:1078D0002093C6000895282F205DF0CF982F809127
:1078E000C00085FFFCCF9093C6000895EF92FF92F1
:1078F0000F931F93EE24FF2487018091C00087FD22
:1079000017C00894E11CF11C011D111D81E4E8164B
:1079100082E4F8068FE0080780E0180770F3E09132
:107920000401F091050109958091C00087FFE9CF1E
:107930008091C6001F910F91FF90EF9008950E94D3
:10794000763C982F8091C00085FFFCCF9093C600B5
:1079500091362CF490330CF09053892F089597555D
:10796000892F08951F930E949F3C182F0E949F3CCF
:107970001295107F810F1F9108951F93182F882350
:1079800021F00E94763C1150E1F71F9108951F935A
:10799000182F0E94763C803249F0809103018F5F5E
:1079A000809303018530C1F01F9108958091C0003C
:1079B00085FFFCCF84E18093C6008091C00085FFE5
:1079C000FCCF1093C6008091C00085FFFCCF80E102
:1079D0008093C6001F910895E0910401F091050184
:1079E00009951F9108950E94763C803241F0809164
:1079F00003018F5F80930301853081F008958091AA
:107A0000C00085FFFCCF84E18093C6008091C00058
:107A100085FFFCCF80E18093C6000895E0910401CA
:107A2000F09105010995089540E951E08823A1F0FE
:107A30002D9A28EE33E0FA013197F1F721503040CA
:107A4000D1F72D9828EE33E0FA013197F1F7215064
:107A50003040D1F7815061F708953F924F925F9285
:107A60006F927F928F929F92AF92BF92CF92DF924E
:107A7000EF92FF920F931F93CF93DF93000080E16B
:107A80008093C4001092C50088E18093C10086E015
:107A90008093C2005098589A259A81E00E94143D24
:107AA00024E1F22E9EE1E92E85E9D82E0FE0C02ECA
:107AB00010E1B12EAA24A394B1E49B2EA6E58A2E50
:107AC000F2E57F2EE0E26E2E79E4572E63E5462E36
:107AD00050E5352E0E94763C8033B1F18133B9F107
:107AE000803409F46FC0813409F476C0823409F41B
:107AF00085C0853409F488C0803531F1823521F1A3
:107B0000813511F1853509F485C0863509F48DC0BC
:107B1000843609F496C0843709F403C1853709F423
:107B200072C1863709F466C0809103018F5F80932C
:107B30000301853079F6E0910401F0910501099582
:107B40000E94763C803351F60E94F33CC3CF0E94E2
:107B5000763C803249F78091C00085FFFCCFF092DF
:107B6000C6008091C00085FFFCCF9092C600809136
:107B7000C00085FFFCCF8092C6008091C00085FFC9
:107B8000FCCF7092C6008091C00085FFFCCF609250
:107B9000C6008091C00085FFFCCF5092C600809146
:107BA000C00085FFFCCF4092C6008091C00085FFD9
:107BB000FCCF3092C6008091C00085FFFCCFB09210
:107BC000C60088CF0E94763C863808F4BDCF0E945C
:107BD000763C0E94F33C7ECF0E94763C803809F4CC
:107BE0009CC0813809F40BC1823809F43CC1883942
:107BF00009F48FC080E00E94C73C6CCF84E10E94F2
:107C0000BD3C0E94F33C66CF85E00E94BD3C0E94D3
:107C1000F33C60CF0E94763C809306010E94763C44
:107C2000809307010E94F33C55CF0E94763C80333D
:107C300009F41DC183E00E94BD3C80E00E94C73C66
:107C400049CF0E94763C809309020E94763C809343
:107C5000080280910C028E7F80930C020E94763C79
:107C6000853409F415C18091080290910902892B8D
:107C700089F000E010E00E94763CF801E85FFE4FDA
:107C800080830F5F1F4F80910802909109020817AF
:107C9000190788F30E94763C803209F045CF809125
:107CA0000C0280FF01C16091060170910701660F0F
:107CB000771F7093070160930601A0910802B091AD
:107CC00009021097C9F0E8E0F1E09B01AD014E0F09
:107CD0005F1FF999FECF32BD21BD819180BDFA9A17
:107CE000F99A2F5F3F4FE417F50799F76A0F7B1F4B
:107CF00070930701609306018091C00085FFFCCF5F
:107D0000F092C6008091C00085FFFCCFB092C60003
:107D1000E1CE83E00E94C73CDDCE82E00E94C73CFA
:107D2000D9CE0E94763C809309020E94763C8093D3
:107D300008028091060190910701880F991F909386
:107D40000701809306010E94763C853409F4A6C0A1
:107D500080910C028E7F80930C020E94763C8032D0
:107D600009F0B8CE8091C00085FFFCCFF092C6002C
:107D7000609108027091090261157105B9F140E046
:107D800050E080910C02A82FA170B82FB27011C0E2
:107D9000BB2309F45CC0E0910601F0910701319624
:107DA000F0930701E09306014F5F5F4F46175707B7
:107DB000E8F4AA2369F3F999FECF209106013091E6
:107DC000070132BD21BDF89A90B58091C00085FFB2
:107DD000FCCF9093C6002F5F3F4F30930701209355
:107DE00006014F5F5F4F4617570718F38091C00099
:107DF00085FDE5CE8091C00085FFF8CFE0CE81E023
:107E00000E94C73C67CE0E94763C803209F08CCE3F
:107E10008091C00085FFFCCFF092C6008091C00029
:107E200085FFFCCFE092C6008091C00085FFFCCFAB
:107E3000D092C6008091C00085FFFCCFC092C600E2
:107E40008091C00085FFFCCFB092C60043CEE09188
:107E50000601F091070194918091C00085FFFCCF4D
:107E60009093C6009CCF80E10E94C73C33CE0E9415
:107E7000763C0E94763C182F0E94763C112309F430
:107E800083C0113009F484C08FE00E94C73C22CE29
:107E900080910C02816080930C02E5CE80910C02EF
:107EA000816080930C0259CF809107018823880F4D
:107EB000880B8A2180930B02809106019091070123
:107EC000880F991F90930701809306018091080203
:107ED00080FF09C080910802909109020196909359
:107EE000090280930802F894F999FECF1127E091D6
:107EF0000601F0910701C8E0D1E08091080290915D
:107F00000902103091F40091570001700130D9F34B
:107F100003E000935700E89500915700017001308D
:107F2000D9F301E100935700E89509901990009169
:107F3000570001700130D9F301E000935700E89534
:107F40001395103498F011270091570001700130FB
:107F5000D9F305E000935700E895009157000170B0
:107F60000130D9F301E100935700E895329602976A
:107F700009F0C7CF103011F00296E5CF112480919F
:107F8000C00085FFB9CEBCCE8EE10E94C73CA2CD19
:0C7F900085E90E94C73C9ECDF894FFCF0D
:027F9C00800063
:040000030000780081
:00000001FF
