:100000000C945E000C943A060C9413060C94860033
:100010000C9486000C9486000C9486000C94860048
:100020000C9486000C9486000C9486000C94860038
:100030000C9486000C9486000C9486000C94860028
:100040000C94C9050C9486000C9472050C944C0514
:100050000C9486000C9486000C9486000C94860008
:100060000C9486000C9486000000000025002800F7
:100070002B0000000008000201000003040700003C
:1000800000000000000000000000240027002A00FB
:10009000010204081020408001020408102001021F
:1000A00004081020040404040404040402020202EC
:1000B0000202030303030303F308E90811241FBE2C
:1000C000CFEFD8E0DEBFCDBF22E0AEE5B1E001C0AA
:1000D0001D92A934B207E1F711E0A0E0B1E0E0E041
:1000E000F8E102C005900D92AE35B107D9F710E0E6
:1000F000CDE5D0E004C02197FE010E94D809CC359F
:10010000D107C9F70E94E9060C94F30B0C94000088
:100110000895CF92DF92EF92FF920F931F93CF93A8
:10012000DF936C017A018B01C0E0D0E0CE15DF05D2
:1001300089F0D8016D918D01D601ED91FC9101906E
:10014000F081E02DC6010995892B11F47E0102C0D2
:100150002196ECCFC701DF91CF911F910F91FF90B6
:10016000EF90DF90CF900895FC01538D448D252FA3
:1001700030E0842F90E0821B930B541710F0CF9641
:10018000089501970895FC01918D828D981761F073
:10019000828DDF01A80FB11D5D968C91928D9F5FBE
:1001A0009F73928F90E008958FEF9FEF0895FC0169
:1001B000918D828D981731F0828DE80FF11D858D1C
:1001C00090E008958FEF9FEF0895FC01918D228DAF
:1001D000892F90E0805C9F4F821B91098F73992734
:1001E000089587E791E00E94E50021E0892B09F45A
:1001F00020E0822F0895FC01848DDF01A80FB11D3E
:10020000A35ABF4F2C91848D90E001968F7399274C
:10021000848FA689B7892C93A089B1898C91806439
:100220008C93938D848D981306C00288F389E02DFA
:1002300080818F7D80830895EF92FF920F931F93AB
:10024000CF93DF93EC0181E0888F9B8D8C8D981389
:1002500005C0E889F989808185FD24C0F62E0B8DC3
:1002600010E00F5F1F4F0F731127E02E8C8DE812E7
:100270000CC00FB607FCFACFE889F989808185FFA9
:10028000F5CFCE010E94FB00F1CF8B8DFE01E80F70
:10029000F11DE35AFF4FF0820B8FEA89FB898081C1
:1002A000806207C0EE89FF896083E889F9898081CF
:1002B0008064808381E090E0DF91CF911F910F9166
:1002C000FF90EF900895CF93DF93EC01888D882302
:1002D000C9F0EA89FB89808185FD05C0A889B989B3
:1002E0008C9186FD0FC00FB607FCF5CF808185FF8E
:1002F000F2CFA889B9898C9185FFEDCFCE010E94FC
:10030000FB00E7CFDF91CF91089580E090E0892B4B
:1003100029F00E94F10081110C940000089590E0F2
:10032000FC01EE58FF4F3491FC01E057FF4F249140
:10033000FC01EC55FF4FE491EE2309F43BC033235D
:1003400039F1333091F038F43130A9F0323001F521
:1003500084B58F7D12C0373091F03830A1F0343041
:10036000B9F4809180008F7D03C0809180008F77E9
:10037000809380000DC084B58F7784BD09C08091C3
:10038000B0008F7703C08091B0008F7D8093B00064
:10039000F0E0EE0FFF1FE859FF4FA591B4918FB722
:1003A000F894EC91611103C020952E2301C02E2BEF
:1003B0002C938FBF0895CF93DF9390E0FC01E0571B
:1003C000FF4F2491FC01EC55FF4F8491882361F18C
:1003D00090E0880F991FFC01EA57FF4FC591D49117
:1003E000FC01E859FF4FA591B491611109C09FB775
:1003F000F8948881209582238883EC912E230BC06A
:10040000623061F49FB7F8943881822F80958323FE
:100410008883EC912E2B2C939FBF06C08FB7F89446
:10042000E8812E2B28838FBFDF91CF910895EF9223
:10043000FF921F93CF93DF931F92CDB7DEB77C015E
:10044000162F60E0FC01808949830E948F01F7012B
:1004500054853585809169014981882399F02FB7AA
:10046000F89480916901813059F48DB380935E01D5
:100470009DB380916801809589238DBB2FBF02C0F9
:1004800020935E015CBD3DBD1EBD00000DB407FEA6
:10049000FDCF8EB54EBD00000DB407FEFDCF1EB5DD
:1004A00080916901882361F08FB7F89420916901E8
:1004B00090915E01213019F49DBB8FBF01C09FBF99
:1004C00061E0F70180890E948F01812F0F90DF91F9
:1004D000CF911F91FF90EF9008956F7740E00C94BB
:1004E0001702CF9362E184E192E00E946D02C82F6F
:1004F000482F62E984E192E00E941702C5FD2DC0F9
:1005000010922F0210922E028091300290913102AF
:10051000892B11F062E201C063E184E192E00E9464
:100520006D02C82F60E184E192E00E946D02482FC5
:100530006DE884E192E00E941702E0913202F091AE
:100540003302309719F08C2F90E0099540E06DE868
:1005500084E192E0CF910C941702CF910895089511
:10056000EF92FF921F93CF93DF931F92CDB7DEB729
:100570007C01DC01ED91FC910084F185E02D099571
:10058000892B99F06DE0C7010E946D02482F60E051
:10059000C70149830E946D02182F49816DE8C70188
:1005A0000E941702812F90E002C08FEF9FEF0F9003
:1005B000DF91CF911F91FF90EF900895CF93DF933C
:1005C000EC01E881F9810084F185E02D0995892B02
:1005D00059F08A8D9B8D01969B8F8A8F60E0CE01AA
:1005E0000E946D0290E002C08FEF9FEFDF91CF91EC
:1005F0000895CF93DF93EC0163E10E946D02282FF1
:1006000030E08A8D9B8DA901481B590BCA01DF91EF
:10061000CF9108958F929F92AF92BF92CF92DF9227
:10062000FF920F931F93CF93DF931F92CDB7DEB747
:100630006C01B62E4A0162E279830E946D02F82EA7
:1006400090E09C01280D391D79812F3F310531F053
:1006500028F02FEF30E04901881A990A0B2D172F47
:100660005801A80CB91C0A151B0541F0F80141916D
:100670008F0160E8C6010E941702F5CF482D4F0D8B
:1006800062EAC6010E941702C4010F90DF91CF9168
:100690001F910F91FF90DF90CF90BF90AF909F90F0
:1006A0008F900895CF93DF931F92CDB7DEB7698304
:1006B000DC01ED91FC910280F381E02D41E050E0FE
:1006C000BE016F5F7F4F09950F90DF91CF91089525
:1006D000089580E090E008950C9477060E94D50B71
:1006E0000F931F93CF93DF93EC018881998100973B
:1006F00029F02A813B812617370788F48B016F5F29
:100700007F4F0E940B0B009761F0998388831B83B6
:100710000A832C813D81232B11F4FC01108281E09E
:1007200001C080E0DF91CF911F910F910895CF9389
:10073000DF93EC0188819981009711F00E94730A80
:10074000198218821D821C821B821A82DF91CF912E
:100750000895EF92FF920F931F93CF93DF93EC01D5
:100760007B018A01BA010E947003811104C0CE018D
:100770000E94970307C01D830C83B701888199816C
:100780000E94EC0BCE01DF91CF911F910F91FF9052
:10079000EF900895FC01118210821382128215825B
:1007A00014826115710551F0FB0101900020E9F7F9
:1007B0003197AF01461B570B0C94A9030895BF92C4
:1007C000CF92DF92EF92FF920F931F93CF93DF931D
:1007D000CDB7DEB72C970FB6F894DEBF0FBECDBFF6
:1007E0006CE571E0CE0101960E94CA0384E192E0BB
:1007F0000E94F902892BF9F084E192E00E94DE0266
:100800008F8318860D811E810F5F1F4FB801CE01A7
:1008100001960E947003882349F329813A818D81D2
:100820009E81BE01695F7F4F820F931F0E94EC0B78
:100830001E830D83DBCF67E571E0CE0107960E9432
:10084000CA038D819E81E980FA800B851C85E114A5
:10085000F10409F418C10097A9F0080F191FB80195
:10086000CE0107960E947003882309F40CC12F81E2
:1008700038858B859C85B701820F931F0E94EC0BF6
:100880001C870B87CE0107960E9477068F8198857B
:100890000E94730AED80FE808091380290913902A7
:1008A00009811A81E816F90631F5609134027091D8
:1008B00035020115110519F061157105C1F46115B5
:1008C000710549F0E114F10409F4C9C0FB0180810C
:1008D000811111C0C4C00115110509F4C0C0E11493
:1008E000F10409F4BCC0F801808190E0D1C0C801D6
:1008F0000E94E30BCDC00115110539F0A701B80125
:1009000084E392E00E94A90304C084E392E00E9481
:100910009703CD80DE80F3E0CF16D10409F056C0F6
:1009200089819A81009719F00E94650903C060E0EF
:1009300070E0CB01209140023091410200913C02D5
:1009400010913D02F80180E090E0281739070CF47F
:1009500086C0419151914617570779F48F3F2FEF89
:10096000920709F47CC0DC0111967C01EE0CFF1C9F
:1009700060E070E020E030E015C00196E6CFFD01B8
:10098000E20FF31F4E175F07C4F0FB01EE0DFF1DD2
:10099000E00FF11F42815381518340832F5F3F4F0E
:1009A0006E5F7F4F4091400250914102FA013196B3
:1009B000E81BF90B2E173F0714F38A1B9B0B480FFC
:1009C000591F509341024093400249C0E0906B018F
:1009D000F0906C0183E0C816D10428F4860183E00E
:1009E000C82ED12C02C003E010E06CE571E0CE010E
:1009F00007960E94CA038D819E810817190738F552
:100A00008C159D0508F46C01E981FA81EC0DFD1D42
:100A1000B080108269817A81600F711F6115710544
:100A200069F0FB0101900020E9F73197AF01461B07
:100A3000570BCE0107960E94A90304C0CE0107966A
:100A40000E949703A981BA81AC0DBD1DBC92CE0155
:100A50000796F70109958F8198850E94730A89810D
:100A60009A810E94730A2C960FB6F894DEBF0FBECF
:100A7000CDBFDF91CF911F910F91FF90EF90DF904D
:100A8000CF90BF900895CE0107960E949703FACEAB
:100A9000892B09F033CFE3CF1F920F920FB60F923D
:100AA00011242F933F934F935F936F937F938F9373
:100AB0009F93AF93BF93EF93FF9387E791E00E94DB
:100AC000FB00FF91EF91BF91AF919F918F917F912B
:100AD0006F915F914F913F912F910F900FBE0F90AB
:100AE0001F9018951F920F920FB60F9211242F93FB
:100AF0008F939F93EF93FF93E0918701F09188018B
:100B00008081E0918D01F0918E0182FD12C0908173
:100B1000809190018F5F8F7320919101821751F026
:100B2000E0919001F0E0E958FE4F958F809390019D
:100B300001C08081FF91EF919F918F912F910F9034
:100B40000FBE0F901F9018953FB7F89480916401E5
:100B500090916501A0916601B091670126B5A89BAF
:100B600005C02F3F19F00196A11DB11D3FBFBA2F3F
:100B7000A92F982F8827820F911DA11DB11DBC019F
:100B8000CD0142E0660F771F881F991F4A95D1F764
:100B900008951F920F920FB60F9211242F933F9337
:100BA0008F939F93AF93BF93809160019091610168
:100BB000A0916201B091630130915F0123E0230FA6
:100BC0002D3720F40196A11DB11D05C026E8230F85
:100BD0000296A11DB11D20935F0180936001909347
:100BE0006101A0936201B0936301809164019091CF
:100BF0006501A0916601B09167010196A11DB11D2B
:100C00008093640190936501A0936601B09367019E
:100C1000BF91AF919F918F913F912F910F900FBEF8
:100C20000F901F9018951F920F920FB60F921124DC
:100C30002F933F934F935F936F937F938F939F93E4
:100C4000AF93BF93EF93FF93E0910201F091030103
:100C50000995FF91EF91BF91AF919F918F917F91F6
:100C60006F915F914F913F912F910F900FBE0F9019
:100C70001F9018951F920F920FB60F9211242F9369
:100C80003F934F935F936F937F938F939F93AF9314
:100C9000BF93EF93FF93E0910001F091010109955B
:100CA000FF91EF91BF91AF919F918F917F916F9144
:100CB0005F914F913F912F910F900FBE0F901F901A
:100CC000189522E331E0FC013183208382819381F6
:100CD000009711F00C94730A0895CF93DF93EC0101
:100CE0000E946106CE01DF91CF910C94730ACF93DD
:100CF000DF93FC01448155816081718187E791E038
:100D00000E948900EC0142E050E06AE571E087E76B
:100D100091E00E9489008C0F9D1FDF91CF91089573
:100D2000CF93DF93009779F0FC0101900020E9F761
:100D30003197AF01481B590BBC0187E791E00E9436
:100D40008900EC0102C0C0E0D0E042E050E06AE57A
:100D500071E087E791E00E9489008C0F9D1FDF9171
:100D6000CF9108958F929F92AF92BF92CF92DF92D0
:100D7000EF92FF920E94A4054B015C018AE0C82E0D
:100D8000D12CE12CF12C0E94A405DC01CB018819A7
:100D90009909AA09BB09883E9340A105B10558F0FD
:100DA00021E0C21AD108E108F10888EE880E83E03C
:100DB000981EA11CB11CC114D104E104F10419F75F
:100DC000FF90EF90DF90CF90BF90AF909F908F906B
:100DD0000895789484B5826084BD84B5816084BDB3
:100DE00085B5826085BD85B5816085BD80916E00C9
:100DF000816080936E0010928100809181008260FA
:100E00008093810080918100816080938100809136
:100E100080008160809380008091B1008460809325
:100E2000B1008091B00081608093B00080917A0021
:100E3000846080937A0080917A00826080937A0047
:100E400080917A00816080937A0080917A00806836
:100E500080937A001092C100E0918701F09188019F
:100E600082E08083E0918301F09184011082E0911F
:100E70008501F091860180E1808310928F01E091DD
:100E80008B01F0918C0186E08083E0918901F091E3
:100E90008A01808180618083E0918901F0918A01DB
:100EA000808188608083E0918901F0918A0180814E
:100EB00080688083E0918901F0918A0180818F7D33
:100EC000808361E0809124020E94DB0161E08091D7
:100ED00024020E948F0180912602909127028F3F69
:100EE0002FEF920789F061E00E94DB0160E08091C2
:100EF00026020E948F010E94B20661E080912602C4
:100F00000E948F010E94B206CFB7F89480916A01C7
:100F1000811127C0EEEAF0E08491EAE9F0E09491D3
:100F2000E82FF0E0EE0FFF1FEA57FF4FA591B491B5
:100F3000EC91E92321F461E08AE00E948F0161E0F5
:100F40008AE00E94DB018CB580618CBD8CB5806429
:100F50008CBD61E08DE00E94DB0161E08BE00E94CE
:100F6000DB0180916A018F5F80936A01CFBF62E4E9
:100F700084E192E00E946D02823109F01CC140E8D8
:100F800061E884E192E00E94170280E49EE0AFEC09
:100F9000B9E180932A0290932B02A0932C02B09384
:100FA0002D024CE666E884E192E00E94170240E4DC
:100FB00067E884E192E00E94170240E068E884E17B
:100FC00092E00E94170240E06EE884E192E00E9405
:100FD000170240E06FE884E192E00E9417026CE0A3
:100FE00084E192E00E946D02482F43606CE884E146
:100FF00092E00E94170244E066EA84E192E00E94D7
:1010000017024FE869E884E192E00E94170241E884
:1010100061E884E192E00E9417028FED93E09093E3
:1010200033028093320260E0809128020E94DB014B
:1010300040E060EC84E192E00E9417028091280277
:10104000909129028230910521F0039721F08FEFD2
:1010500003C080E001C081E09FB7F894882349F085
:10106000813011F482E006C082E08093690180E063
:1010700001C081E020916801822B809368018091FA
:101080006901811103C081E0809369019FBF809154
:101090002802909129028230910519F00397A9F452
:1010A0008FC080E0E82FF0E0EE0FFF1FE050FF4F11
:1010B00021E732E031832083813009F483C08091BD
:1010C0006900836080936900E89A80916F018111C3
:1010D00009C08CE693E090936E0180936D0181E0EE
:1010E00080936F0180916D0190916E0190936C01DE
:1010F00080936B0162E184E192E00E946D02C82F4F
:1011000010923102109230026DE184E192E00E946F
:101110006D02482F4E7F6DE984E192E00E94170234
:101120004C2F62E984E192E00E941702C6FF2DC0B5
:10113000C5FD2BC010922F0210922E02809130021A
:1011400090913102892B11F062E201C063E184E1E8
:1011500092E00E946D02C82FD0E060E184E192E04D
:101160000E946D02482F6DE884E192E00E94170210
:1011700041E861E884E192E00E941702CD2BC1F0C2
:1011800086E391E00E94900613C061E084E192E062
:101190000E946D02863861F040E06DE884E192E0E3
:1011A0000E94170246E861E884E192E00E9417027B
:1011B0000E9485019FCF81E491E00E949006FFCFBD
:1011C00081E070CF809169008C6080936900E99A1A
:1011D0007CCF80913402909135020E94730A8AE399
:1011E00092E00C946106CF93DF93E7E7F1E013827E
:1011F000128288EE93E0A0E0B0E084839583A6831A
:10120000B7838EE091E09183808385EC90E09587B1
:10121000848784EC90E09787868780EC90E0918BC0
:10122000808B81EC90E0938B828B82EC90E0958BAD
:10123000848B86EC90E0978B868B118E128E138EAA
:10124000148EE4E1F2E01382128280E291E0918355
:10125000808380E5848781E0858784E492E09787B6
:1012600086878AE090E0918B808B89E090E0938B79
:10127000828B82E090E0958B848B168A178A108E81
:10128000118E138E128E158E148E178E168E14825A
:10129000158216821782CAE3D2E082E391E0998335
:1012A000888380E090E00E94DE099B838A832FEF91
:1012B0003FEF3F832E839D838C836CE571E084E355
:1012C00092E0DF91CF910C94CA031F93FC01992700
:1012D0008827BC01E89411911032E9F3193010F01D
:1012E0001E30C8F31B3251F01D3249F4689406C019
:1012F0000E948C09610F711D811D911D1191105368
:101300001A30B0F33EF490958095709561957F4FBB
:101310008F4F9F4F1F910895592F482F372F262FFA
:10132000660F771F881F991F660F771F881F991FE9
:10133000620F731F841F951F660F771F881F991FE9
:1013400008952F923F924F925F926F927F928F9269
:101350009F92AF92BF92CF92DF92EF92FF920F9344
:101360001F93CF93DF93CDB7DEB7CA1BDB0B0FB64E
:10137000F894DEBF0FBECDBF09942A88398848880B
:101380005F846E847D848C849B84AA84B984C884A1
:10139000DF80EE80FD800C811B81AA81B981CE0F98
:1013A000D11D0FB6F894DEBF0FBECDBFED0108957D
:1013B000EE0FFF1F0590F491E02D0994CF93DF937A
:1013C0008230910510F482E090E0E0914702F091C4
:1013D000480220E030E0C0E0D0E0309711F14081D9
:1013E000518148175907C0F04817590761F48281A5
:1013F0009381209719F09B838A832BC09093480296
:101400008093470226C02115310519F04217530772
:1014100018F49A01BE01DF01EF010280F381E02D93
:10142000DCCF2115310509F1281B390B243031059A
:1014300090F412968D919C9113976115710521F08E
:10144000FB019383828304C09093480280934702F8
:10145000FD01329644C0FD01E20FF31F8193919389
:10146000225031092D933C933AC02091450230918E
:101470004602232B41F4209106013091070130935D
:101480004602209345022091040130910501211567
:10149000310541F42DB73EB7409108015091090143
:1014A000241B350BE0914502F0914602E217F30749
:1014B000A0F42E1B3F0B2817390778F0AC014E5FC4
:1014C0005F4F2417350748F04E0F5F1F50934602B9
:1014D000409345028193919302C0E0E0F0E0CF0198
:1014E000DF91CF9108950F931F93CF93DF930097D0
:1014F00009F48CC0FC0132971382128200914702DA
:10150000109148020115110581F420813181820F6B
:10151000931F20914502309146022817390779F52B
:10152000F0934602E093450271C0D80140E050E0DC
:10153000AE17BF0750F412962D913C911397AD0151
:101540002115310509F1D901F3CF9D01DA0133836A
:10155000228360817181860F971F8217930769F438
:10156000EC0128813981260F371F2E5F3F4F3183D1
:1015700020838A819B8193838283452B29F4F09376
:101580004802E093470242C01396FC93EE931297F1
:10159000ED01499159919E01240F351FE217F30780
:1015A00071F480819181840F951F029611969C930E
:1015B0008E938281938113969C938E931297E0E091
:1015C000F0E0D80112968D919C911397009719F035
:1015D000F8018C01F6CF8D919C9198012E5F3F4FC1
:1015E000820F931F20914502309146022817390738
:1015F00069F4309729F4109248021092470202C011
:10160000138212821093460200934502DF91CF911C
:101610001F910F910895A0E0B0E0E1E1FBE00C9490
:10162000A509EC01009721F4CB010E94DE09B8C0A6
:10163000FC01E60FF71F9C0122503109E217F30766
:1016400008F4ACC0D9010D911C911197061717072A
:10165000B0F00530110508F49FC0C8010497861743
:10166000970708F499C002501109061B170B019344
:1016700011936D937C93CF010E94730A8DC05B011F
:10168000A01AB10A4C01800E911EA0914702B091A0
:10169000480240E050E0E12CF12C109709F44AC0D8
:1016A000A815B905D1F56D907C901197630182E082
:1016B000C80ED11CCA14DB0480F1A3014A195B09CE
:1016C0006A0182E0C80ED11C1296BC901297139644
:1016D000AC91B5E0CB16D10440F0B282A383518324
:1016E0004083D9016D937C930AC00E5F1F4FC301E5
:1016F000800F911FF90191838083EB2DFA2FE11464
:10170000F10431F0D7011396FC93EE93129744C085
:10171000F0934802E09347023FC08D919C9111974E
:101720004817590708F4AC017D0112960D90BC9141
:10173000A02DB3CF8091450290914602881599055E
:10174000E1F446175707C8F4809104019091050110
:10175000009741F48DB79EB740910801509109015F
:10176000841B950BE817F907C8F4F0934602E09341
:101770004502F901718360830FC0CB010E94DE092D
:101780007C01009759F0A801BE010E94DA0BCE013E
:101790000E94730AC70104C0CE0102C080E090E03D
:1017A000CDB7DEB7EEE00C94C10981E090E0F8948B
:1017B0000C94F30BFB01DC0102C001900D9241502F
:1017C0005040D8F70895FB01DC018D9101908019FC
:1017D0000110D9F3990B0895FB01DC0101900D92E2
:1017E0000020E1F7089510E0CDE5D0E004C0FE014F
:1017F0000E94D8092196CE35D107C9F7F894FFCFBA
:1018000088008800000049028000000000001C01E0
:101810008900B4006301E500C300D70000000000A8
:1018200052030A036903AF02F902DE02B0020000AC
:10183000000061066D066E6577206D736720696E26
:10184000005374617274696E67204C6F5261206638
:0E18500061696C656421002020000D0A000013
:00000001FF
