:100000000C945E000C9456040C942F040C948600FF
:100010000C9486000C9486000C9486000C94860048
:100020000C9486000C9486000C9486000C94860038
:100030000C9486000C9486000C9486000C94860028
:100040000C94E5030C9486000C94B3030C948D037C
:100050000C9486000C9486000C9486000C94860008
:100060000C9486000C948600000000080002010039
:100070000003040700000000000000000000000072
:10008000250028002B0000000000240027002A0083
:10009000040404040404040402020202020203032E
:1000A0000303030301020408102040800102040836
:1000B00010200102040810207D047B0711241FBEBC
:1000C000CFEFD8E0DEBFCDBF22E0A8E7B1E001C0AE
:1000D0001D92AE34B207E1F711E0A0E0B1E0E8E92B
:1000E000F2E102C005900D92A837B107D9F710E0F0
:1000F000CDE5D0E004C02197FE010E940708CC3571
:10010000D107C9F70E94EA040C943F090C9400003F
:1001100090E0FC01EC55FF4F2491FC01E057FF4FAC
:100120008491882399F090E0880F991FFC01EA5789
:10013000FF4FA591B491FC01E458FF4F8591949134
:100140008FB7F894EC91E22BEC938FBF0895DC010C
:10015000ED91FC910190F081E02D0994CF92DF9216
:10016000EF92FF920F931F93CF93DF936C017A016D
:100170008B01C0E0D0E0CE15DF0589F0D8016D918C
:100180008D01D601ED91FC910190F081E02DC60129
:100190000995892B11F47E0102C02196ECCFC7018D
:1001A000DF91CF911F910F91FF90EF90DF90CF9053
:1001B0000895FC01538D448D252F30E0842F90E06D
:1001C000821B930B541710F0CF9608950197089552
:1001D000FC01918D828D981761F0828DDF01A80F4F
:1001E000B11D5D968C91928D9F5F9F73928F90E071
:1001F00008958FEF9FEF0895FC01918D828D9817E0
:1002000031F0828DE80FF11D858D90E008958FEF1C
:100210009FEF0895FC01918D228D892F90E0805CE5
:100220009F4F821B91098F739927089582E891E06F
:100230000E940A0121E0892B09F420E0822F089511
:10024000FC01848DDF01A80FB11DA35ABF4F2C9173
:10025000848D90E001968F739927848FA689B78942
:100260002C93A089B1898C9180648C93938D848D1B
:10027000981306C00288F389E02D80818F7D8083EA
:100280000895EF92FF920F931F93CF93DF93EC01AA
:1002900081E0888F9B8D8C8D981305C0E889F98942
:1002A000808185FD24C0F62E0B8D10E00F5F1F4F5F
:1002B0000F731127E02E8C8DE8120CC00FB607FCCF
:1002C000FACFE889F989808185FFF5CFCE010E94B8
:1002D0002001F1CF8B8DFE01E80FF11DE35AFF4F96
:1002E000F0820B8FEA89FB898081806207C0EE89EA
:1002F000FF896083E889F98980818064808381E057
:1003000090E0DF91CF911F910F91FF90EF900895B2
:10031000CF93DF93EC01888D8823C9F0EA89FB89AC
:10032000808185FD05C0A889B9898C9186FD0FC0A3
:100330000FB607FCF5CF808185FFF2CFA889B98978
:100340008C9185FFEDCFCE010E942001E7CFDF9198
:10035000CF91089580E090E0892B29F00E9416014A
:1003600081110C940000089590E0FC01E859FF4FC2
:100370003491FC01EC55FF4F2491FC01E057FF4FF5
:10038000E491EE2309F43BC0332339F1333091F08B
:1003900038F43130A9F0323001F584B58F7D12C0C8
:1003A000373091F03830A1F03430B9F480918000CA
:1003B0008F7D03C0809180008F77809380000DC077
:1003C00084B58F7784BD09C08091B0008F7703C05A
:1003D0008091B0008F7D8093B000F0E0EE0FFF1FA2
:1003E000E458FF4FA591B4918FB7F894EC91611147
:1003F00003C020952E2301C02E2B2C938FBF089570
:100400003FB7F89480917D0190917E01A0917F018A
:10041000B091800126B5A89B05C02F3F19F0019629
:10042000A11DB11D3FBFBA2FA92F982F8827820F7A
:10043000911DA11DB11DBC01CD0142E0660F771FCA
:10044000881F991F4A95D1F708958F929F92AF9276
:10045000BF92CF92DF92EF92FF926B017C010E94DC
:1004600000024B015C01C114D104E104F104F1F07C
:100470000E940002DC01CB0188199909AA09BB0975
:10048000883E9340A105B10570F321E0C21AD1085E
:10049000E108F10888EE880E83E0981EA11CB11CCB
:1004A000C114D104E104F10419F7DDCFFF90EF90FE
:1004B000DF90CF90BF90AF909F908F900895089558
:1004C000EF92FF921F93CF93DF931F92CDB7DEB7CA
:1004D0007C01162F60E0FC01808949830E94B401F1
:1004E000F701948585859CBD8DBD1EBD00004981A9
:1004F0000DB407FEFDCF8EB54EBD00000DB407FE56
:10050000FDCF1EB561E0F70180890E94B401812F03
:100510000F90DF91CF911F91FF90EF9008956F772B
:1005200040E00C94600210923D0210923C026DE19A
:1005300080E292E00E948F02482F4E7F6DE980E2B8
:1005400092E00C9460020895EF92FF921F93CF9374
:10055000DF931F92CDB7DEB77C01DC01ED91FC91FA
:100560000084F185E02D0995892B99F06DE0C70194
:100570000E948F02482F60E0C70149830E948F02CA
:10058000182F49816DE8C7010E946002812F90E019
:1005900002C08FEF9FEF0F90DF91CF911F91FF90DF
:1005A000EF900895CF93DF93EC01E881F981008407
:1005B000F185E02D0995892B59F08A8D9B8D019647
:1005C0009B8F8A8F60E0CE010E948F0290E002C074
:1005D0008FEF9FEFDF91CF910895CF93DF93EC01E1
:1005E00063E10E948F02282F30E08A8D9B8DA90144
:1005F000481B590BCA01DF91CF9108958F929F92AA
:10060000AF92BF92CF92DF92FF920F931F93CF933F
:10061000DF931F92CDB7DEB76C01B62E4A0162E2BE
:1006200079830E948F02F82E90E09C01280D391DDD
:1006300079812F3F310531F028F02FEF30E049016B
:10064000881A990A0B2D172F5801A80CB91C0A15E6
:100650001B0541F0F80141918F0160E8C6010E943D
:100660006002F5CF482D4F0D62EAC6010E9460027C
:10067000C4010F90DF91CF911F910F91FF90DF90F8
:10068000CF90BF90AF909F908F900895CF93DF93BE
:100690001F92CDB7DEB76983DC01ED91FC9102803A
:1006A000F381E02D41E050E0BE016F5F7F4F09957F
:1006B0000F90DF91CF910895089580E090E0089524
:1006C0000E943A096115710579F0FB010190002043
:1006D000E9F73197AF01461B570BDC01ED91FC9117
:1006E0000280F381E02D099480E090E0089523E3F7
:1006F00031E0FC013183208382819381009711F0E6
:100700000C94A2080895CF93DF93EC010E94770325
:10071000CE01DF91CF910C94A2081F920F920FB6D9
:100720000F9211242F933F934F935F936F937F9377
:100730008F939F93AF93BF93EF93FF9382E891E0E2
:100740000E942001FF91EF91BF91AF919F918F91F6
:100750007F916F915F914F913F912F910F900FBEBD
:100760000F901F9018951F920F920FB60F921124A1
:100770002F938F939F93EF93FF93E0919201F091CA
:1007800093018081E0919801F091990182FD12C05E
:10079000908180919B018F5F8F7320919C018217C4
:1007A00051F0E0919B01F0E0EE57FE4F958F809362
:1007B0009B0101C08081FF91EF919F918F912F91BB
:1007C0000F900FBE0F901F9018951F920F920FB6AB
:1007D0000F9211242F933F938F939F93AF93BF93C7
:1007E0008091790190917A01A0917B01B0917C0177
:1007F0003091780123E0230F2D3720F40196A11DBD
:10080000B11D05C026E8230F0296A11DB11D20933E
:1008100078018093790190937A01A0937B01B09342
:100820007C0180917D0190917E01A0917F01B0912A
:1008300080010196A11DB11D80937D0190937E01E1
:10084000A0937F01B0938001BF91AF919F918F9151
:100850003F912F910F900FBE0F901F9018951F92F0
:100860000F920FB60F9211242F933F934F935F93E4
:100870006F937F938F939F93AF93BF93EF93FF9368
:10088000E0910201F09103010995FF91EF91BF9171
:10089000AF919F918F917F916F915F914F913F9118
:1008A0002F910F900FBE0F901F9018951F920F92CF
:1008B0000FB60F9211242F933F934F935F936F9333
:1008C0007F938F939F93AF93BF93EF93FF93E091A9
:1008D0000001F09101010995FF91EF91BF91AF9156
:1008E0009F918F917F916F915F914F913F912F9148
:1008F0000F900FBE0F901F901895CF93DF93E2E8F3
:10090000F1E01382128288EE93E0A0E0B0E08483ED
:100910009583A683B7838FE091E09183808385ECF4
:1009200090E09587848784EC90E09787868780ECB9
:1009300090E0918B808B81EC90E0938B828B82ECAA
:1009400090E0958B848B86EC90E0978B868B118E54
:10095000128E138E148EE0E2F2E01382128281E294
:1009600091E09183808380E5848781E085878FE1B2
:1009700092E0978786878AE090E0918B808B89E070
:1009800090E0938B828B82E090E0958B848B168A2B
:10099000178A108E118E138E128E158E148E178E4E
:1009A000168E1482158216821782C0E4D2E083E389
:1009B00091E09983888380E090E00E940D089B83FA
:1009C0008A832FEF3FEF3F832E839D838C83DF91BC
:1009D000CF910895CF93DF93CDB7DEB7A1970FB630
:1009E000F894DEBF0FBECDBF789484B5826084BD1D
:1009F00084B5816084BD85B5826085BD85B5816023
:100A000085BD80916E00816080936E0010928100A0
:100A1000809181008260809381008091810081605B
:100A2000809381008091800081608093800080911C
:100A3000B10084608093B1008091B00081608093A8
:100A4000B00080917A00846080937A0080917A006F
:100A5000826080937A0080917A00816080937A002E
:100A600080917A00806880937A001092C100E091B2
:100A70009201F091930182E08083E0918E01F091E8
:100A80008F011082E0919001F091910180E18083CB
:100A900010929A01E0919601F091970186E080838F
:100AA000E0919401F0919501808180618083E091D3
:100AB0009401F0919501808188608083E091940198
:100AC000F0919501808180688083E0919401F0919C
:100AD000950180818F7D808382E190E09093310247
:100AE000809330028EE090E0909333028093320244
:100AF0008AE190E0909335028093340282E10E9473
:100B0000880061E0809130020E94B401809132023D
:100B1000909133028F3F2FEF9207C1F00E9488001F
:100B200060E0809132020E94B4016AE070E080E0EF
:100B300090E00E94250261E0809132020E94B4019F
:100B40006AE070E080E090E00E9425021FB7F89410
:100B500080918101811124C0EAE9F0E08491EEEAFC
:100B6000F0E09491E82FF0E0EE0FFF1FEA57FF4FFF
:100B7000A591B491EC91E92321F461E08AE00E940F
:100B8000B4018AE00E9488008CB580618CBD8CB570
:100B900080648CBD8DE00E9488008BE00E948800FC
:100BA000809181018F5F809381011FBF62E480E2A9
:100BB00092E00E948F02823109F090C140E861E822
:100BC00080E292E00E94600280E49EE0AFECB9E136
:100BD0008093360290933702A0933802B093390283
:100BE0004CE666E880E292E00E94600240E467E83A
:100BF00080E292E00E94600240E068E880E292E0D9
:100C00000E94600240E06EE880E292E00E94600292
:100C100040E06FE880E292E00E9460026CE080E2D7
:100C200092E00E948F02482F43606CE880E292E0DD
:100C30000E94600244E066EA80E292E00E94600264
:100C40004FE869E880E292E00E94600241E861E8D2
:100C500080E292E00E9460028AE0C82ED12CE12C52
:100C6000F12C62E180E292E00E948F02182F0E9434
:100C70009302412F62E980E292E00E94600216FF37
:100C800030C015FD2EC010923B0210923A028091A6
:100C90003C0290913D02892B11F062E201C063E1B8
:100CA00080E292E00E948F02082F10E060E180E273
:100CB00092E00E948F02482F6DE880E292E00E944D
:100CC000600241E861E880E292E00E946002012B4C
:100CD00009F49AC067E371E082E891E00E94620340
:100CE00015C061E080E292E00E948F02863809F42C
:100CF0008BC040E06DE880E292E00E94600246E82E
:100D000061E880E292E00E9460027EC080E292E0B0
:100D10000E94ED02892B51F080E292E00E94D20203
:100D2000682F82E891E00E94A700F0CF69E471E0AB
:100D300082E891E00E9462036AE180E292E00E9410
:100D40008F02082F10E06091360270913702809177
:100D50003802909139020E94860724E832EF4EE46F
:100D60005EE40E947F0787FD03C08DE990E002C02A
:100D700084EA90E0F801E81BF90B4F010F2E000CFC
:100D8000AA08BB08F7FF20C06DE282E891E00E944C
:100D9000A70022273327A901281939094A095B0925
:100DA00019A28E010F5D1F4FCA01B901A70196015B
:100DB0000E94E507605DF80162938F0121153105FE
:100DC0004105510589F715C0A501940119A28E01AD
:100DD0000F5D1F4FCA01B901A70196010E94E507E7
:100DE000605DF80162938F012115310541055105C0
:100DF00089F7B80182E891E00E94620366E571E03C
:100E000082E891E00E94620382E891E00E940A0178
:100E1000181619060CF05FC082E891E00E94E80005
:100E20008093040141E861E880E292E00E94600260
:100E30000E94930240E06DE880E292E00E9460022E
:100E400040E062EA80E292E00E9460026FE571E0B9
:100E500080E292E00E9462036091040180E292E0ED
:100E60000E94A7006FE571E080E292E00E946203B9
:100E700043E861E880E292E00E94600262E180E281
:100E800092E00E948F0283FFF9CF48E062E980E29E
:100E900092E00E94600269E571E082E891E00E94C0
:100EA00062036091040182E891E00E94A70067E577
:100EB00071E082E891E00E94620368EC70E080E0FB
:100EC00090E00E9425020E94930245E861E880E2DA
:100ED00092E00E9460020E94AA01C3CE61E671E026
:100EE00082E891E00E94620366E571E082E891E0A9
:100EF0000E946203FFCF80E492E00C9477030E948B
:100F0000C10708F481E00895E89409C097FB3EF416
:100F100090958095709561957F4F8F4F9F4F992346
:100F2000A9F0F92F96E9BB279395F69587957795C4
:100F30006795B795F111F8CFFAF4BB0F11F460FF84
:100F40001BC06F5F7F4F8F4F9F4F16C0882311F0DC
:100F500096E911C0772321F09EE8872F762F05C0F0
:100F6000662371F096E8862F70E060E02AF09A958B
:100F7000660F771F881FDAF7880F9695879597F980
:100F80000895990F0008550FAA0BE0E8FEEF16161A
:100F90001706E807F907C0F012161306E407F5076D
:100FA00098F0621B730B840B950B39F40A2661F0E1
:100FB000232B242B252B21F408950A2609F4A14084
:100FC000A6958FEF811D811D0895A1E21A2EAA1BFF
:100FD000BB1BFD010DC0AA1FBB1FEE1FFF1FA217E9
:100FE000B307E407F50720F0A21BB30BE40BF50BE6
:100FF000661F771F881F991F1A9469F7609570956F
:10100000809590959B01AC01BD01CF010895EE0F35
:10101000FF1F0590F491E02D0994CF93DF93823068
:10102000910510F482E090E0E0914C02F0914D02C5
:1010300020E030E0C0E0D0E0309711F140815181F4
:1010400048175907C0F04817590761F48281938106
:10105000209719F09B838A832BC090934D02809335
:101060004C0226C02115310519F04217530718F418
:101070009A01BE01DF01EF010280F381E02DDCCF98
:101080002115310509F1281B390B2430310590F465
:1010900012968D919C9113976115710521F0FB01BA
:1010A0009383828304C090934D0280934C02FD0190
:1010B000329644C0FD01E20FF31F819391932250B9
:1010C00031092D933C933AC020914A0230914B0252
:1010D000232B41F4209107013091080130934B02FA
:1010E00020934A0220910501309106012115310516
:1010F00041F42DB73EB74091090150910A01241BDC
:10110000350BE0914A02F0914B02E217F307A0F48D
:101110002E1B3F0B2817390778F0AC014E5F5F4F4D
:101120002417350748F04E0F5F1F50934B02409332
:101130004A028193919302C0E0E0F0E0CF01DF9199
:10114000CF9108950F931F93CF93DF93009709F4E6
:101150008CC0FC0132971382128200914C021091D4
:101160004D020115110581F420813181820F931FF9
:1011700020914A0230914B022817390779F5F093F4
:101180004B02E0934A0271C0D80140E050E0AE1734
:10119000BF0750F412962D913C911397AD01211584
:1011A000310509F1D901F3CF9D01DA01338322839F
:1011B00060817181860F971F8217930769F4EC0194
:1011C00028813981260F371F2E5F3F4F31832083BF
:1011D0008A819B8193838283452B29F4F0934D026E
:1011E000E0934C0242C01396FC93EE931297ED01EC
:1011F000499159919E01240F351FE217F30771F4AD
:1012000080819181840F951F029611969C938E93F5
:101210008281938113969C938E931297E0E0F0E085
:10122000D80112968D919C911397009719F0F801AF
:101230008C01F6CF8D919C9198012E5F3F4F820FCC
:10124000931F20914A0230914B022817390769F405
:10125000309729F410924D0210924C0202C0138272
:10126000128210934B0200934A02DF91CF911F919B
:101270000F91089581E090E0F8940C943F0910E0FC
:10128000CDE5D0E004C0FE010E9407082196CE35CE
:08129000D107C9F7F894FFCF64
:101298005F025F020100004E028000000000004172
:1012A80001AE00D90088010A01E800FC0000000036
:1012B800004603FE025D03A302ED02D202A402006F
:1012C80000000077038303526563656976656420CF
:1012D8007061636B65742027002720776974682024
:1012E8005253534920000D0A0053454E54212020E3
:1012F800005374617274696E67204C6F5261206686
:0813080061696C6564210000BD
:107800000C94343C0C94513C0C94513C0C94513CE1
:107810000C94513C0C94513C0C94513C0C94513CB4
:107820000C94513C0C94513C0C94513C0C94513CA4
:107830000C94513C0C94513C0C94513C0C94513C94
:107840000C94513C0C94513C0C94513C0C94513C84
:107850000C94513C0C94513C0C94513C0C94513C74
:107860000C94513C0C94513C11241FBECFEFD8E036
:10787000DEBFCDBF11E0A0E0B1E0ECE9FFE702C060
:1078800005900D92A230B107D9F712E0A2E0B1E065
:1078900001C01D92AD30B107E1F70E942D3D0C945F
:1078A000CC3F0C94003C982F959595959595959582
:1078B000905D8F708A307CF0282F295A8091C0000B
:1078C00085FFFCCF9093C6008091C00085FFFCCF60
:1078D0002093C6000895282F205DF0CF982F809127
:1078E000C00085FFFCCF9093C6000895EF92FF92F1
:1078F0000F931F93EE24FF2487018091C00087FD22
:1079000017C00894E11CF11C011D111D81E4E8164B
:1079100082E4F8068FE0080780E0180770F3E09132
:107920000401F091050109958091C00087FFE9CF1E
:107930008091C6001F910F91FF90EF9008950E94D3
:10794000763C982F8091C00085FFFCCF9093C600B5
:1079500091362CF490330CF09053892F089597555D
:10796000892F08951F930E949F3C182F0E949F3CCF
:107970001295107F810F1F9108951F93182F882350
:1079800021F00E94763C1150E1F71F9108951F935A
:10799000182F0E94763C803249F0809103018F5F5E
:1079A000809303018530C1F01F9108958091C0003C
:1079B00085FFFCCF84E18093C6008091C00085FFE5
:1079C000FCCF1093C6008091C00085FFFCCF80E102
:1079D0008093C6001F910895E0910401F091050184
:1079E00009951F9108950E94763C803241F0809164
:1079F00003018F5F80930301853081F008958091AA
:107A0000C00085FFFCCF84E18093C6008091C00058
:107A100085FFFCCF80E18093C6000895E0910401CA
:107A2000F09105010995089540E951E08823A1F0FE
:107A30002D9A28EE33E0FA013197F1F721503040CA
:107A4000D1F72D9828EE33E0FA013197F1F7215064
:107A50003040D1F7815061F708953F924F925F9285
:107A60006F927F928F929F92AF92BF92CF92DF924E
:107A7000EF92FF920F931F93CF93DF93000080E16B
:107A80008093C4001092C50088E18093C10086E015
:107A90008093C2005098589A259A81E00E94143D24
:107AA00024E1F22E9EE1E92E85E9D82E0FE0C02ECA
:107AB00010E1B12EAA24A394B1E49B2EA6E58A2E50
:107AC000F2E57F2EE0E26E2E79E4572E63E5462E36
:107AD00050E5352E0E94763C8033B1F18133B9F107
:107AE000803409F46FC0813409F476C0823409F41B
:107AF00085C0853409F488C0803531F1823521F1A3
:107B0000813511F1853509F485C0863509F48DC0BC
:107B1000843609F496C0843709F403C1853709F423
:107B200072C1863709F466C0809103018F5F80932C
:107B30000301853079F6E0910401F0910501099582
:107B40000E94763C803351F60E94F33CC3CF0E94E2
:107B5000763C803249F78091C00085FFFCCFF092DF
:107B6000C6008091C00085FFFCCF9092C600809136
:107B7000C00085FFFCCF8092C6008091C00085FFC9
:107B8000FCCF7092C6008091C00085FFFCCF609250
:107B9000C6008091C00085FFFCCF5092C600809146
:107BA000C00085FFFCCF4092C6008091C00085FFD9
:107BB000FCCF3092C6008091C00085FFFCCFB09210
:107BC000C60088CF0E94763C863808F4BDCF0E945C
:107BD000763C0E94F33C7ECF0E94763C803809F4CC
:107BE0009CC0813809F40BC1823809F43CC1883942
:107BF00009F48FC080E00E94C73C6CCF84E10E94F2
:107C0000BD3C0E94F33C66CF85E00E94BD3C0E94D3
:107C1000F33C60CF0E94763C809306010E94763C44
:107C2000809307010E94F33C55CF0E94763C80333D
:107C300009F41DC183E00E94BD3C80E00E94C73C66
:107C400049CF0E94763C809309020E94763C809343
:107C5000080280910C028E7F80930C020E94763C79
:107C6000853409F415C18091080290910902892B8D
:107C700089F000E010E00E94763CF801E85FFE4FDA
:107C800080830F5F1F4F80910802909109020817AF
:107C9000190788F30E94763C803209F045CF809125
:107CA0000C0280FF01C16091060170910701660F0F
:107CB000771F7093070160930601A0910802B091AD
:107CC00009021097C9F0E8E0F1E09B01AD014E0F09
:107CD0005F1FF999FECF32BD21BD819180BDFA9A17
:107CE000F99A2F5F3F4FE417F50799F76A0F7B1F4B
:107CF00070930701609306018091C00085FFFCCF5F
:107D0000F092C6008091C00085FFFCCFB092C60003
:107D1000E1CE83E00E94C73CDDCE82E00E94C73CFA
:107D2000D9CE0E94763C809309020E94763C8093D3
:107D300008028091060190910701880F991F909386
:107D40000701809306010E94763C853409F4A6C0A1
:107D500080910C028E7F80930C020E94763C8032D0
:107D600009F0B8CE8091C00085FFFCCFF092C6002C
:107D7000609108027091090261157105B9F140E046
:107D800050E080910C02A82FA170B82FB27011C0E2
:107D9000BB2309F45CC0E0910601F0910701319624
:107DA000F0930701E09306014F5F5F4F46175707B7
:107DB000E8F4AA2369F3F999FECF209106013091E6
:107DC000070132BD21BDF89A90B58091C00085FFB2
:107DD000FCCF9093C6002F5F3F4F30930701209355
:107DE00006014F5F5F4F4617570718F38091C00099
:107DF00085FDE5CE8091C00085FFF8CFE0CE81E023
:107E00000E94C73C67CE0E94763C803209F08CCE3F
:107E10008091C00085FFFCCFF092C6008091C00029
:107E200085FFFCCFE092C6008091C00085FFFCCFAB
:107E3000D092C6008091C00085FFFCCFC092C600E2
:107E40008091C00085FFFCCFB092C60043CEE09188
:107E50000601F091070194918091C00085FFFCCF4D
:107E60009093C6009CCF80E10E94C73C33CE0E9415
:107E7000763C0E94763C182F0E94763C112309F430
:107E800083C0113009F484C08FE00E94C73C22CE29
:107E900080910C02816080930C02E5CE80910C02EF
:107EA000816080930C0259CF809107018823880F4D
:107EB000880B8A2180930B02809106019091070123
:107EC000880F991F90930701809306018091080203
:107ED00080FF09C080910802909109020196909359
:107EE000090280930802F894F999FECF1127E091D6
:107EF0000601F0910701C8E0D1E08091080290915D
:107F00000902103091F40091570001700130D9F34B
:107F100003E000935700E89500915700017001308D
:107F2000D9F301E100935700E89509901990009169
:107F3000570001700130D9F301E000935700E89534
:107F40001395103498F011270091570001700130FB
:107F5000D9F305E000935700E895009157000170B0
:107F60000130D9F301E100935700E895329602976A
:107F700009F0C7CF103011F00296E5CF112480919F
:107F8000C00085FFB9CEBCCE8EE10E94C73CA2CD19
:0C7F900085E90E94C73C9ECDF894FFCF0D
:027F9C00800063
:040000030000780081
:00000001FF
