:100000000C94DB000C94790F0C94520F0C940301A8
:100010000C9403010C9403010C9403010C94030150
:100020000C9403010C9403010C9403010C94030140
:100030000C9403010C9403010C9403010C94030130
:100040000C94080F0C9403010C94FD0D0C94D70D27
:100050000C9403010C9403010C9403010C94030110
:100060000C94A00F0C94030100407A10F35A00A0E6
:10007000724E18090010A5D4E80000E87648170071
:1000800000E40B54020000CA9A3B000000E1F505B1
:10009000000080969800000040420F000000A086FB
:1000A00001000000102700000000E803000000002D
:1000B0006400000000000A000000000001000000D1
:1000C00000002C76D888DC674F0823DFC1DFAE59EB
:1000D000E1B1B796E5E3E453C63AE651997696E87E
:1000E000E6C28426EB898C9B62ED407C6FFCEFBC02
:1000F0009C9F40F2BAA56FA5F490055A2AF75C932D
:100100006B6CF9676DC11BFCE0E40D47FEF520E662
:10011000B500D0ED902E0300943577050080841E45
:10012000080000204E0A000000C80C333333330FA0
:10013000986E12831141EF8D2114893BE65516CF3D
:10014000FEE6DB18D1844B381BF77C1D901DA4BB49
:10015000E424203284725E228100C9F124ECA1E5FE
:100160003D2700000000240027002A0001020408A7
:100170001020408001020408102001020408102011
:10018000040404040404040402020202020203033D
:100190000303030300000000250028002B000000DB
:1001A0000008000201000003040700000000000036
:1001B00000005319541311241FBECFEFD8E0DEBF47
:1001C000CDBF11E0A0E0B1E0E8E8F7E402C005909F
:1001D0000D92A63FB107D9F724E0A6EFB1E001C028
:1001E0001D92AC31B207E1F710E0CAEDD0E004C0D7
:1001F0002197FE010E94F01EC93DD107C9F70E9458
:1002000088130C94B7230C9400009091A402809161
:10021000A302981750F4E92FF0E0EB55FD4F208131
:1002200030E09F5F9093A40202C02FEF3FEFC9011F
:1002300008958091A30290E02091A402821B91096D
:1002400008950895CF93DF931F92CDB7DEB76983EA
:10025000DC01ED91FC910280F381E02D41E050E062
:10026000BE016F5F7F4F09950F90DF91CF91089589
:10027000089580E090E00895CF92DF92EF92FF9290
:100280000F931F93CF93DF937C01262F972F8A0123
:1002900080915802882391F0C62FD72F6E01C40E8B
:1002A000D51ECC15DD0571F06991D701ED91FC915A
:1002B0000190F081E02DC7010995F3CF642F822FC3
:1002C0000E94CE10C801DF91CF911F910F91FF9036
:1002D000EF90DF90CF900895CF93DF931F92CDB72B
:1002E000DEB76983209158022223D1F020917B024E
:1002F000203240F021E030E0FC013383228380E0B3
:1003000090E015C080915902E82FF0E0E65AFD4FC9
:10031000998190838F5F8093590280937B0205C0FF
:1003200061E0CE0101960E94CE1081E090E00F9036
:10033000DF91CF910895EF92FF921F93CF93DF93B8
:100340001F92CDB7DEB77C01162F60E0FC018089DB
:1003500049830E942F0EF701948585859CBD8DBD34
:100360001EBD000049810DB407FEFDCF8EB54EBD08
:1003700000000DB407FEFDCF1EB561E0F7018089D6
:100380000E942F0E812F0F90DF91CF911F91FF9030
:10039000EF9008956F7740E00C949B01EF92FF92ED
:1003A0001F93CF93DF931F92CDB7DEB77C01DC01A3
:1003B000ED91FC910084F185E02D0995892B99F050
:1003C0006DE0C7010E94CA01482F60E0C701498360
:1003D0000E94CA01182F49816DE8C7010E949B0144
:1003E000812F90E002C08FEF9FEF0F90DF91CF91B0
:1003F0001F91FF90EF900895CF93DF93EC01E88178
:10040000F9810084F185E02D0995892B59F08A8DB9
:100410009B8D01969B8F8A8F60E0CE010E94CA015E
:1004200090E002C08FEF9FEFDF91CF910895CF93BF
:10043000DF93EC0163E10E94CA01282F30E08A8D2E
:100440009B8DA901481B590BCA01DF91CF910895DB
:100450008F929F92AF92BF92CF92DF92FF920F93B3
:100460001F93CF93DF931F92CDB7DEB76C01B62EEB
:100470004A0162E279830E94CA01F82E90E09C0151
:10048000280D391D79812F3F310531F028F02FEFEC
:1004900030E04901881A990A0B2D172F5801A80C32
:1004A000B91C0A151B0541F0F80141918F0160E864
:1004B000C6010E949B01F5CF482D4F0D62EAC6018F
:1004C0000E949B01C4010F90DF91CF911F910F916A
:1004D000FF90DF90CF90BF90AF909F908F90089546
:1004E000EF92FF920F931F93CF93DF9377FD26C078
:1004F000FC01248535856217730704F5EC018B0137
:100500000F5F1F4F26E0269FC001279F900D1124EB
:100510008E0F9F1F2C853D857C01F6E0EF0EF11CB0
:100520000217130738F4B7010E94420D0F5F1F4FE7
:10053000C701F0CF215031093D872C87DF91CF9142
:100540001F910F91FF90EF90089524E431E0FC019A
:100550003183208382819381009711F00C948B1F4B
:100560000895CF93DF93EC010E94A502CE01DF91A5
:10057000CF910C948B1F0F931F93CF93DF9300D0D9
:10058000CDB7DEB78C01DB011496ED91FC91159788
:1005900020E030E08BE62E173F0781F0DB014D9124
:1005A0005C914115510529F0DA01A20FB31F9C910E
:1005B00001C090E089272F5F3F4FEDCF6AE10E9495
:1005C000E41EF801118210821382128215821482B5
:1005D0009F5999831A82BE016F5F7F4FC8010E94A5
:1005E0002B0DC8010F900F90DF91CF911F910F91AC
:1005F00008950E94041345E861E88FE993E00C94A4
:100600009B01CF93DF93EC010E94FE1268EC70E037
:1006100080E090E00E94CE0E0E942A13CE010E943C
:100620003D13E0919F03F091A0034C815D816881AF
:1006300079810280F381E02D8FE993E009950E9492
:10064000141368EC70E080E090E00E94CE0EDF9121
:10065000CF910C94F902EF92FF920F931F93CF93D7
:10066000DF938C01EB0140E050E06CE7CE010E948B
:10067000F40BAC014F5F5F4F6CE7CE010E94F40BAF
:10068000AC014F5F5F4F6CE7CE010E94F40BAC01F1
:100690004F5F5F4F6CE7CE010E94F40B01967C0127
:1006A000AC016CE7CE010E94F40B9C01A701BE01D6
:1006B000C8010E947C0DC801DF91CF911F910F915D
:1006C000FF90EF900895CF92DF92EF92FF920F93F9
:1006D0001F93CF93DF9300D000D000D0CDB7DEB70B
:1006E0007C018B0140E050E06CE7C8010E94F40BF4
:1006F000AC014F5F5F4F6CE7C8010E94F40BAC0187
:100700004F5F5F4F6CE7C8010E94F40B01966C01CC
:10071000AC016CE7C8010E94F40B9C01A601B80172
:10072000CE0101960E947C0DBE016F5F7F4FC70115
:100730000E945E0DCE0101960E94590DC7012696BA
:100740000FB6F894DEBF0FBECDBFDF91CF911F91E2
:100750000F91FF90EF90DF90CF9008950F931F932C
:10076000CF93DF93EC018B0140E050E06CE7C801D0
:100770000E94F40B9C0140E050E0B801CE010E94C1
:100780007C0DCE01DF91CF911F910F910895EF92D3
:10079000FF920F931F93CF93DF938C01EB0140E007
:1007A00050E06CE7CE010E94F40BAC014F5F5F4F4D
:1007B0006CE7CE010E94F40B01967C01AC016CE762
:1007C000CE010E94F40B9C01A701BE01C8010E944A
:1007D0007C0DC801DF91CF911F910F91FF90EF9099
:1007E0000895EF92FF920F931F93CF93DF938C01A5
:1007F000EB0140E050E06CE7CE010E94F40B019663
:100800007C01AC016CE7CE010E94F40B9C01A701B6
:10081000BE01C8010E947C0DC801DF91CF911F91DC
:100820000F91FF90EF9008950F931F93CF93DF9355
:1008300000D000D000D0CDB7DEB78C01CE0101963C
:100840000E945E0D65ED71E0CE0101960E948F0C55
:1008500068E471E00E948F0C65ED71E00E948F0CDE
:10086000BC01C8010E945E0DCE0101960E94590D87
:10087000C80126960FB6F894DEBF0FBECDBFDF913C
:10088000CF911F910F9108952F923F924F925F92B7
:100890006F927F928F929F92AF92BF92CF92DF9290
:1008A000EF92FF920F931F93CF93DF93CDB7DEB7F5
:1008B000AF970FB6F894DEBF0FBECDBF8B0160E5DA
:1008C00071E00E94100C882309F40DC46AEC71E0F9
:1008D000CE0180960E94670D69E571E0CE01809699
:1008E0000E942B0DEE24E394E0925802F3E2FF2ED7
:1008F000F0927A021092590210927B0287E090E007
:100900000E94F6100E94C511E0925802F0927A02FD
:100910001092590210927B0280E290E00E94F61041
:100920000E94C51168E770E080E090E00E94CE0E62
:1009300062E070E083E290E00E947A11E12CF12CF9
:100940008091A30290E02091A402821B91091816C5
:10095000190654F483E993E00E9405017E2D662771
:100960007B01E80EF11CECCFB701FF0C880B990B53
:100970000E94B81C2AE939E949E95FE30E942C1E6C
:100980000E949E1ECE0180960E94EC0C6EE671E0E5
:10099000CE0180960E941C0D0E9422126091EE02F0
:1009A0007091EF028091F0029091F1020E94FB1091
:1009B0000E94B81C20E030E048EC52E40E942C1E5B
:1009C000AB01BC01CE0180960E94BB0C64E771E0D4
:1009D000CE0180960E941C0D0E9422126091EE02B0
:1009E0007091EF028091F0029091F1020E94FB1051
:1009F0008090C5029090C602A090C702B090C80235
:100A00002CE2921A21E0A20AB108C090EA02D0902A
:100A1000EB02E090EC02F090ED025EE0CC0CDD1C0D
:100A2000EE1CFF1C5A95D1F78091E5029091E602E9
:100A3000092E000CAA0BBB0B64E1880F991FAA1F9B
:100A4000BB1F6A95D1F7C81AD90AEA0AFB0AA09116
:100A5000E702B091E802A50194010E94BC1DC61AEC
:100A6000D70AE80AF90A30E4D30EE11CF11C7FE052
:100A7000F594E794D794C7947A95D1F7A091E902B9
:100A80000A2E000CBB0BA50194010E94BC1D2B017A
:100A90003C01EAE07594679457944794EA95D1F73E
:100AA000A091E4020A2E000CBB0B0E94BC1DDC01CD
:100AB000CB01FBE0B595A79597958795FA95D1F76A
:100AC000BC01CD0170588F4F9F4FA30192010E942E
:100AD000D41EDC01CB012AE0B595A79597958795A3
:100AE0002A95D1F79C01AD01405E5F4FA091E202D3
:100AF000B091E3020E94BC1DDC01CB01905EAF4FC0
:100B0000BF4FBC01CD013EE09595879577956795E0
:100B10003A95D1F7A70196010E94D41E6B017C0182
:100B20004FE095958795779567954A95D1F79B0105
:100B3000AC010E94D41E9B01AC0167E0559547951E
:100B4000379527956A95D1F7A091E1020A2E000CFE
:100B5000BB0B0E94BC1DDC01CB0174E0B595A795D1
:100B6000979587957A95D1F7A7019601281B390BA0
:100B70004A0B5B0BDA01C90157FF03C080E090E02C
:100B8000DC0181309105A10539E1B30724F080E053
:100B900090E0A0E0B9E1BC01CD013CE095958795DE
:100BA000779567953A95D1F70E94B61C20E030E022
:100BB00040E85AE30E94F31CAB01BC01CE018096D1
:100BC0000E94BB0C6AE771E0CE0180960E941C0D6A
:100BD0000E9422126091EE027091EF028091F00269
:100BE0009091F1020E94FB108091F2029091F30229
:100BF000A091F402B091F5028EA39FA3A8A7B9A774
:100C0000C090C502D090C602E090C702F090C80222
:100C1000F594E794D794C7949AEFD91AE108F108AC
:100C2000C701B60152E095958795779567955A95D6
:100C3000D1F79B01AC010E94D41E2B013C01E09135
:100C4000D902F091DA022090D7023090D802A09118
:100C5000D502B091D602BFA7AEA7A091D302B091A2
:100C6000D4029B01AC016DE05595479537952795CA
:100C70006A95D1F70E94BC1D4B015C0173E0B594ED
:100C8000A794979487947A95D1F7A091D102B091C7
:100C9000D202A70196010E94BC1DDC01CB01B595D3
:100CA000A79597958795880D991DAA1DBB1D32E1C3
:100CB000B595A795979587953A95D1F79C01AD0184
:100CC00030584F4F5F4FA091CF02B091D0020E9499
:100CD000B11D4B015C014FE0B594A79497948794A4
:100CE0004A95D1F781149104A104B10409F4C9C053
:100CF000A30192016BE055954795379527956A9525
:100D0000D1F7DF010E94BC1D6AA77BA78CA79DA716
:100D1000D101A70196010E94BC1DDC01CB01880F07
:100D2000991FAA1FBB1F2AA53BA54CA55DA5820F35
:100D3000931FA41FB51FE2E0B595A79597958795DA
:100D4000EA95D1F74EA05FA068A479A4709460944E
:100D500050944094411C511C611C711CEEA5FFA5D0
:100D6000AF01FF0F660B770BBA0155274427840F9D
:100D7000951FA61FB71F2CE0B595A795979587954A
:100D80002A95D1F7A3019201281B390B4A0B5B0B63
:100D9000A5E3BCE00E94B11D805B9C4397FD0BC0A6
:100DA000660F771F881F991FA50194010E94FB1DE4
:100DB00069017A010AC0A50194010E94FB1D690125
:100DC0007A01CC0CDD1CEE1CFF1CC701B60123E030
:100DD00096958795779567952A95D1F7E091DF02EB
:100DE000F091E0029B01AC010E94D41E9B01AC017A
:100DF0006DE056954795379527956A95D1F7DF01B0
:100E00000E94BC1D4B015C017CE0B594A7949794B3
:100E100087947A95D1F7A7019601E2E05695479518
:100E200037952795EA95D1F7A091DD02B091DE02C2
:100E30000E94BC1DDC01CB01FDE0B595A7959795FF
:100E40008795FA95D1F7880D991DAA1DBB1D409174
:100E5000DB025091DC02052E000C660B770B840F31
:100E6000951FA61FB71F24E0B595A7959795879561
:100E70002A95D1F7BC01CD016C0D7D1D8E1D9F1DE6
:100E800003C060E070E0CB010E94B61C20E030E0BF
:100E900048EC52E40E942C1EAB01BC01CE018096AE
:100EA0000E94BB0C60E871E0CE0180960E941C0D90
:100EB0008EE00E94B70EBC01CE0180960E94EC0C21
:100EC00066E871E0CE0180960E941C0D8FE00E94C2
:100ED000B70EBC01CE0180960E94EC0C6CE871E06C
:100EE000CE0180960E941C0D80E10E94B70EBC01CD
:100EF000CE0180960E94EC0C62E971E0CE018096F2
:100F00000E941C0D84E10E94B70E24E6AC01249FD0
:100F1000C001259F900D11244AE0DE0111967D014C
:100F2000BD01892F8695869590E00E94261AF701CB
:100F300001900020E9F73197AF014E195F09B70121
:100F4000CE0180960E94610C68E971E0CE01809626
:100F50000E941C0D60E070E0CE0180960E94EC0CB7
:100F60006EE971E0CE0180960E941C0DF80144816B
:100F7000558160817181CE0180960E94610C64EA86
:100F800071E0CE0180960E941C0DCE0180960E94D9
:100F90003D1366EA71E0CE014A960E94670DBE01DC
:100FA000665E7F4FC7010E945E0D6FEA71E0C70168
:100FB0000E948F0CBE01605E7F4F0E94A80CBC0196
:100FC000CE0144960E945E0DC7010E94590D61EB4F
:100FD00071E0CE010E960E94670D888D998D8796DF
:100FE0000E94F61E8C01BE016C5E7F4FC7010E94FD
:100FF0005E0DD980CA80BE01625F7F4FCE01089628
:101000000E941404CF92DF9289858F9388858F93F5
:1010100089EB91E09F938F931F930F930E9416216A
:10102000CE0108960E94590DC7010E94590DB801C2
:10103000CE0108960E94670DBE01685F7F4FC70111
:101040000E94BB028A818F9389818F931F930F9394
:1010500083EC91E09F938F931F930F930E9416212F
:10106000C7010E94590DCE0108960E94590D0E9499
:10107000FE1268EC70E080E090E00E94CE0E0E94CC
:101080002A13B80186EF92E00E94C20D68EC71E06D
:1010900086EF92E00E94C20DB8018FE993E00E94B2
:1010A000C20D0E94141368EC70E080E090E00E9492
:1010B000CE0E0E94F902C8010E948B1FCE010E962F
:1010C0000E94590DCE0144960E94590DCE014A96B8
:1010D0000E94590DCE0180960E94590D0FB6F894CA
:1010E000DEBF0FBECDBFAF960FB6F894DEBF0FBE0A
:1010F000CDBFDF91CF911F910F91FF90EF90DF90C7
:10110000CF90BF90AF909F908F907F906F905F90A7
:101110004F903F902F9008958F929F92AF92BF92E1
:10112000CF92DF92EF92FF920F931F93CF93DF93B3
:10113000CDB7DEB768970FB6F894DEBF0FBECDBF50
:101140008C017B016A015901BC018BEE93E00E9486
:10115000420DB70185EE93E00E94420DB6018FED7E
:1011600093E00E94420DB50189ED93E00E94420D8B
:101170008091FE01811135C08090F6019090F701B9
:10118000B501CE0143960E945E0DB601CE010D96CB
:101190000E945E0DB701CE0107960E945E0DB80158
:1011A000CE0101960E945E0D9E012D5E3F4FAE0165
:1011B000435F5F4FBE01695F7F4FCE010196F4012F
:1011C0000995CE0101960E94590DCE0107960E9405
:1011D000590DCE010D960E94590DCE0143960E94E5
:1011E000590D68960FB6F894DEBF0FBECDBFDF91E4
:1011F000CF911F910F91FF90EF90DF90CF90BF9014
:10120000AF909F908F900895CF92DF92EF92FF92D0
:101210000F931F93CF93DF936B01FC01E484F5845C
:10122000EC0100E010E00E151F0561F0B601CE01E3
:101230000E942F0C2696882311F0C80105C00F5F6D
:101240001F4FF1CF8FEF9FEFDF91CF911F910F9144
:10125000FF90EF90DF90CF9008950F931F93CF935F
:10126000DF93CDB7DEB768970FB6F894DEBF0FBE39
:10127000CDBF8C0140E050E064E20E94F40B8F3F50
:101280002FEF920709F472C09C0140E050E0B801D2
:10129000CE0143960E947C0D40E050E064E2C8011C
:1012A0000E94F40BF80124813581AC014F5F5F4F40
:1012B000B801CE010D960E947C0D6BEC71E0CE0161
:1012C00001960E94670DBE016F5F7F4F8BEC93E02C
:1012D0000E940409019661F4BE016D5E7F4F8BECA4
:1012E00093E00E94040911E0019619F410E001C096
:1012F00011E0CE0101960E94590D112379F1BE0132
:101300006D5E7F4F85EC93E00E94420DBE01635FEE
:101310007F4F8FEB93E00E94420D0091F8011091F6
:10132000F901BE01635F7F4FCE0107960E945E0DFB
:10133000BE016D5E7F4FCE0101960E945E0DBE0123
:10134000695F7F4FCE010196F8010995CE010196A4
:101350000E94590DCE0107960E94590DCE010D969F
:101360000E94590DCE0143960E94590D68960FB602
:10137000F894DEBF0FBECDBFDF91CF911F910F91CB
:101380000895AF92BF92CF92DF92EF92FF920F93A8
:101390001F93CF93DF9300D000D000D0CDB7DEB73E
:1013A0008C016B01FC0184859585029749F5B80194
:1013B000CE0101960E945E0DF80184859585892BEA
:1013C000D9F0C801EE24E394F12CF8012485358589
:1013D0005C01F6E0AF0EB11CE216F30640F4B50175
:1013E0000E94420DFFEFEF1AFF0AC501EECF215018
:1013F0003109F80135872487CE0101960E94590DE5
:10140000F8012485358546E0429FC001439F900D39
:101410001124B601800F911F0E94420DF8018485AE
:10142000958501969587848726960FB6F894DEBF3A
:101430000FBECDBFDF91CF911F910F91FF90EF9025
:10144000DF90CF90BF90AF900895EF92FF920F93EF
:101450001F93CF93DF93EC016AEC71E00E94670D5C
:101460006AEC71E0CE0106960E94670D1D861C860F
:101470007E0100E010E08C859D850817190758F45F
:101480006AEC71E0C7010E942B0D0F5F1F4F86E0D1
:10149000E80EF11CF0CFDF91CF911F910F91FF90DB
:1014A000EF900895CF92DF92EF92FF920F931F93E8
:1014B000CF93DF936C017A018B01C0E0D0E0CE15B1
:1014C000DF0589F0D8016D918D01D601ED91FC9178
:1014D0000190F081E02DC6010995892B11F47E0160
:1014E00002C02196ECCFC701DF91CF911F910F91E0
:1014F000FF90EF90DF90CF900895FC01538D448DC5
:10150000252F30E0842F90E0821B930B541710F0AE
:10151000CF96089501970895FC01918D828D9817BB
:1015200061F0828DDF01A80FB11D5D968C91928DC7
:101530009F5F9F73928F90E008958FEF9FEF0895C4
:10154000FC01918D828D981731F0828DE80FF11D8D
:10155000858D90E008958FEF9FEF0895FC01918DA8
:10156000228D892F90E0805C9F4F821B91098F73A1
:101570009927089586EF92E00E94AE0A21E0892B18
:1015800009F420E0822F0895FC01848DDF01A80F6B
:10159000B11DA35ABF4F2C91848D90E001968F739B
:1015A0009927848FA689B7892C93A089B1898C91BA
:1015B00080648C93938D848D981306C00288F38980
:1015C000E02D80818F7D80830895EF92FF920F93AD
:1015D0001F93CF93DF93EC0181E0888F9B8D8C8DDF
:1015E000981305C0E889F989808185FD24C0F62E0D
:1015F0000B8D10E00F5F1F4F0F731127E02E8C8DA6
:10160000E8120CC00FB607FCFACFE889F98980818F
:1016100085FFF5CFCE010E94C40AF1CF8B8DFE016C
:10162000E80FF11DE35AFF4FF0820B8FEA89FB8927
:101630008081806207C0EE89FF896083E889F9892B
:1016400080818064808381E090E0DF91CF911F9161
:101650000F91FF90EF900895CF93DF93EC01888D69
:101660008823C9F0EA89FB89808185FD05C0A889A6
:10167000B9898C9186FD0FC00FB607FCF5CF80812C
:1016800085FFF2CFA889B9898C9185FFEDCFCE0176
:101690000E94C40AE7CFDF91CF91089580E090E0E7
:1016A000892B29F00E94BA0A81110C940000089538
:1016B0003FB7F8948091540290915502A091560240
:1016C000B091570226B5A89B05C02F3F19F001968F
:1016D000A11DB11D3FBFBA2FA92F982F8827820FB8
:1016E000911DA11DB11DBC01CD0142E0660F771F08
:1016F000881F991F4A95D1F70895089585ED809325
:10170000BC008091BC0084FDFCCF1092A202089521
:101710000895E091A4028091A302E81730F4F0E06C
:10172000EB55FD4F808190E008958FEF9FEF089576
:101730000E94ED200F931F93CF93DF93EC018881DC
:101740009981009729F02A813B812617370788F471
:101750008B016F5F7F4F0E942320009761F0998378
:1017600088831B830A832C813D81232B11F4FC0188
:10177000108281E001C080E0DF91CF911F910F9135
:101780000895CF93DF93EC0188819981009711F040
:101790000E948B1F198218821D821C821B821A8252
:1017A000DF91CF910895EF92FF920F931F93CF9304
:1017B000DF93EC017B018A01BA010E949A0B81112F
:1017C00004C0CE010E94C10B07C01D830C83B7016A
:1017D000888199810E940F21CE01DF91CF911F91C5
:1017E0000F91FF90EF900895CF93DF93FC01248138
:1017F00035814217530778F4C081D181062E000C41
:10180000770BCE01840F951F0E94FB20009719F0E3
:101810008C1B9D0B02C08FEF9FEFDF91CF9108953E
:10182000FC0124813581232B31F421E06115710500
:10183000A1F0FB0108C0FC01808191816115710557
:1018400031F421E0FC018081882339F005C00E9439
:10185000062121E0892B09F020E0822F0895FC0168
:1018600024813581FB01448155812417350721F5F9
:10187000FC0180819181FB0160817181009719F0E9
:1018800061157105A1F46115710549F0232BB1F0C3
:10189000FB01808190E09195819591090AC00097A4
:1018A00069F0232B59F0FC01808190E002C00E9476
:1018B000062121E0892B19F020E001C021E0822FD0
:1018C0000895EF92FF920F931F93CF93DF93FC0144
:1018D000248135816115710511F480E019C041152D
:1018E0005105A9F07B01EC018A01020F131FB80119
:1018F0000E949A0B882389F3288139818C819D81EC
:10190000B701820F931F0E940F211D830C8381E07A
:10191000DF91CF911F910F91FF90EF900895CF939A
:10192000DF93EC016115710561F0FB01019000206E
:10193000E9F73197AF01461B570B0E94610C8111EB
:1019400003C0CE010E94C10BCE01DF91CF9108955B
:10195000CF93DF93EC01FB0144815581608171815C
:101960000E94610C811103C0CE010E94C10BCE0107
:10197000DF91CF910895EF92FF920F931F93CF9332
:10198000DF93CDB7DEB764970FB6F894DEBF0FBE16
:10199000CDBF7C01CB01BA018E010F5F1F4F22E04A
:1019A00044E00E94FB19BC01FC0101900020E9F712
:1019B0003197AF01481B590BC7010E94610C649617
:1019C0000FB6F894DEBF0FBECDBFDF91CF911F9150
:1019D0000F91FF90EF900895EF92FF920F931F9356
:1019E000CF93DF93CDB7DEB728970FB6F894DEBF5D
:1019F0000FBECDBF7C01CB014AE08E010F5F1F4FB0
:101A0000B8010E941B1AF80101900020E9F73197F4
:101A1000AF01401B510BB801C7010E94610C289611
:101A20000FB6F894DEBF0FBECDBFDF91CF911F91EF
:101A30000F91FF90EF9008956115710551F0FB0132
:101A400001900020E9F73197AF01461B570B0C942A
:101A5000610C80E00895CF93DF93EC01611571056F
:101A600059F0FB0101900020E9F73197AF01461BC7
:101A7000570B0E94D30B02C00E94C10BCE01DF9115
:101A8000CF910895CF93DF93EC01FB018617970761
:101A900061F0608171816115710529F04481558182
:101AA0000E94D30B02C00E94C10BCE01DF91CF91E7
:101AB0000895FC01808191810C948B1FFC0111829F
:101AC000108213821282158214820C94420DFC0142
:101AD000118210821382128215821482611571059F
:101AE00051F0FB0101900020E9F73197AF01461B4F
:101AF000570B0C94D30B0895BF92CF92DF92EF92C5
:101B0000FF920F931F93CF93DF937C016B018A01A8
:101B1000E9012417350720F4812F8901C42FD82F1C
:101B20006AEC71E0C7010E94670DD60114968D9191
:101B30009C91159708171907D0F48C179D0708F486
:101B4000EC01D601ED91FC911197EC0FFD1FB080D7
:101B500010824D915C91BA01600F711FC7010E9404
:101B60002B0DD601ED91FC91EC0FFD1FB082C7014A
:101B7000DF91CF911F910F91FF90EF90DF90CF9069
:101B8000BF9008956115710579F0FB010190002067
:101B9000E9F73197AF01461B570BDC01ED91FC9142
:101BA0000280F381E02D099480E090E008951F9277
:101BB0000F920FB60F9211242F933F934F935F9381
:101BC0006F937F938F939F93AF93BF93EF93FF9305
:101BD00086EF92E00E94C40AFF91EF91BF91AF910E
:101BE0009F918F917F916F915F914F913F912F9135
:101BF0000F900FBE0F901F9018951F920F920FB667
:101C00000F9211242F938F939F93EF93FF93E09163
:101C10000603F09107038081E0910C03F0910D031E
:101C200082FD12C0908180910F038F5F8F7320918E
:101C30001003821751F0E0910F03F0E0EA50FD4FDE
:101C4000958F80930F0301C08081FF91EF919F9149
:101C50008F912F910F900FBE0F901F90189590E0CD
:101C6000FC01E256FE4F3491FC01E459FE4F2491F1
:101C7000FC01E058FE4FE491EE2309F43BC033230E
:101C800039F1333091F038F43130A9F0323001F5C8
:101C900084B58F7D12C0373091F03830A1F03430E8
:101CA000B9F4809180008F7D03C0809180008F7790
:101CB000809380000DC084B58F7784BD09C080916A
:101CC000B0008F7703C08091B0008F7D8093B0000B
:101CD000F0E0EE0FFF1FEC56FE4FA591B4918FB7C9
:101CE000F894EC91611103C020952E2301C02E2B96
:101CF0002C938FBF0895CF93DF9390E0FC01E459BC
:101D0000FE4F2491FC01E058FE4F8491882361F13D
:101D100090E0880F991FFC01EE59FE4FC591D491B8
:101D2000FC01EC56FE4FA591B491611109C09FB71B
:101D3000F8948881209582238883EC912E230BC010
:101D4000623061F49FB7F8943881822F80958323A5
:101D50008883EC912E2B2C939FBF06C08FB7F894ED
:101D6000E8812E2B28838FBFDF91CF9108958E308D
:101D700008F08E508770806480937C0080917A0098
:101D8000806480937A0080917A0086FDFCCF8091F8
:101D900078002091790090E0922B08958F929F9285
:101DA000AF92BF92CF92DF92EF92FF926B017C01D4
:101DB0000E94580B4B015C01C114D104E104F104F1
:101DC000F1F00E94580BDC01CB0188199909AA098E
:101DD000BB09883E9340A105B10570F321E0C21A0A
:101DE000D108E108F10888EE880E83E0981EA11C56
:101DF000B11CC114D104E104F10419F7DDCFFF9047
:101E0000EF90DF90CF90BF90AF909F908F9008950C
:101E10001F920F920FB60F9211242F933F938F931F
:101E20009F93AF93BF938091FA019091FB01A09192
:101E3000FC01B091FD013091530223E0230F2D37B7
:101E400020F40196A11DB11D05C026E8230F0296BE
:101E5000A11DB11D209353028093FA019093FB01C1
:101E6000A093FC01B093FD01809154029091550222
:101E7000A0915602B09157020196A11DB11D809309
:101E8000540290935502A0935602B0935702BF910B
:101E9000AF919F918F913F912F910F900FBE0F9017
:101EA0001F9018951F920F920FB60F9211242F9327
:101EB0003F934F935F936F937F938F939F93AF93D2
:101EC000BF93EF93FF93E0910201F0910301099515
:101ED000FF91EF91BF91AF919F918F917F916F9102
:101EE0005F914F913F912F910F900FBE0F901F90D8
:101EF00018951F920F920FB60F9211242F933F93B4
:101F00004F935F936F937F938F939F93AF93BF9301
:101F1000EF93FF93E0910001F09101010995FF918A
:101F2000EF91BF91AF919F918F917F916F915F9151
:101F30004F913F912F910F900FBE0F901F901895CA
:101F40001F920F920FB60F9211242F933F934F932E
:101F50005F936F937F938F939F93AF93BF93EF9311
:101F6000FF938091B900887F803609F49CC068F5A2
:101F7000883209F45BC090F4803109F454C038F41D
:101F8000882309F4F6C0883009F44DC0F6C08831C2
:101F900009F44CC0803209F45DC0EFC0803409F40C
:101FA00068C048F4803309F455C0883309F0E5C0AF
:101FB0008093A002D8C0803509F44FC0883509F459
:101FC0005DC0883409F0D9C0D6C0883909F4C7C0CB
:101FD000A8F4883709F467C038F4883609F463C078
:101FE000803709F460C0C9C0883809F4B8C08039A6
:101FF00009F45FC0803809F0C0C05BC0803B09F4C1
:1020000086C038F4803A09F466C0883A09F47FC083
:10201000B4C0803C09F4A7C0883C09F4A4C0883B44
:1020200009F48AC0AAC080919D0210C090919F02BD
:1020300080919E02981770F5E0919F0281E08E0FCB
:1020400080939F02F0E0E458FD4F80818093BB00B5
:1020500085EC86C08093A0028EC0E0919F0281E053
:102060008E0F80939F028091BB00F0E0E458FD4FFB
:10207000808390919F0280919E026EC0E0919F02AA
:1020800081E08E0F80939F028091BB00F0E0E458C6
:10209000FD4F80838091A10281116DC081E080930A
:1020A0009C0284EA61C083E08093A20210925202F3
:1020B000CFCF80915202803208F051C0E09152029D
:1020C00081E08E0F809352028091BB00F0E0EE5CC5
:1020D000FD4F8083BDCF85EC8093BC001092A2029F
:1020E00080915202803230F4E0915202F0E0EE5CD6
:1020F000FD4F10826091520270E0E0913002F09149
:10210000310282E392E009951092520236C084E0D7
:102110008093A20210922F0210922E02E0912C02C4
:10212000F0912D02099580912E02811105C081E068
:1021300080932E0210920C02E0912F0281E08E0F0C
:1021400080932F02F0E0E45FFD4F80818093BB001D
:1021500090912F0280912E02981708F479CF85E88C
:102160008093BC000AC085EC8093BC001092A20250
:1021700004C01092A0020E947E0BFF91EF91BF91CC
:10218000AF919F918F917F916F915F914F913F910F
:102190002F910F900FBE0F901F90189540912E0217
:1021A000262F30E0240F311D21323105DCF420913F
:1021B000A2022430C9F4FC0180E090E0861758F4B4
:1021C00030912E022191DC01A45FBD4FA30FB11D00
:1021D0002C930196F3CF80912E02680F60932E020C
:1021E00080E0089581E0089582E00895682F83E9F2
:1021F00093E00C946C018F929F92AF92BF92CF921A
:10220000DF92EF92FF92E5ECF2E0448155814A01C2
:10221000A12CB12C6B017C0124E0F594E794D794B8
:10222000C7942A95D1F7C818D908EA08FB08DC0139
:10223000CB0133E0B595A795979587953A95D1F75A
:10224000B501A401440F551F661F771F4C015D01A6
:10225000841A950AA60AB70AA5019401A681B78136
:102260000E94BC1D4B015C013BE0B594A794979480
:1022700087943A95D1F7A7019601C701B6010E944C
:10228000D41E9B01AC016CE0559547953795279579
:102290006A95D1F7A085B1850E94BC1DDC01CB01F8
:1022A0007EE0B595A795979587957A95D1F7A50185
:1022B0009401280F391F4A1F5B1F208331834283FB
:1022C0005383A5E0B0E00E94B11DDC01CB01805832
:1022D0009F4FAF4FBF4F692F7A2F8B2F992787FDC5
:1022E0009A95FF90EF90DF90CF90BF90AF909F9026
:1022F0008F9008959091A2029111FCCF613208F065
:1023000060E291E09093A2029093A1022FEF2093BC
:10231000A00210929F02260F20939E0290939D028E
:1023200090919D02880F892B80939D0280919C0241
:10233000813061F410929C0280919D028093BB00D9
:102340008091BC0083FDF8CF85EC01C085EE8093C1
:10235000BC008091A2028130E1F380919F02861738
:1023600010F460919F02ACE7B2E025EA32E0F90197
:102370008E2F821B861718F48D918193F9CF1092BE
:10238000A4026093A302862F089520917B0290916E
:102390007A02213208F04AC08091A2028111FCCF5A
:1023A00032E03093A20231E03093A1023FEF30934C
:1023B000A00210929F0220939E02AAE5B2E04CE791
:1023C00052E0FA013E2F341B321718F43D9131933D
:1023D000F9CF10929D0220919D02990F922B90931C
:1023E0009D0290919C02913061F410929C02909118
:1023F0009D029093BB009091BC0093FDF8CF95ECAB
:1024000001C095EE9093BC009091A2029230E1F34E
:102410009091A0029F3F79F08091A002803241F01C
:102420008091A002803331F084E005C081E003C0D8
:1024300082E001C083E01092590210927B02109258
:10244000580208950F931F93CF93DF93CDB7DEB754
:10245000A0970FB6F894DEBF0FBECDBF81E080938A
:10246000580286E780937A021092590210927B02FA
:1024700087EF90E00E94F6100E94C51168E070E0BE
:1024800086E790E00E947A118E010F5F1F4F9091B6
:10249000A3028091A402981779F083E993E00E9447
:1024A0000501092E000CAA0BBB0BF8018193919337
:1024B000A193B1938F01EBCF8D819E81AF81B885C0
:1024C000AC01BD0184E0440F551F661F771F8A953C
:1024D000D1F789819A81AB81BC812CE0880F991F4B
:1024E000AA1FBB1F2A95D1F7842B952BA62BB72BA0
:1024F00049855A856B857C8534E076956795579537
:1025000047953A95D1F7842B952BA62BB72B809323
:10251000F2029093F302A093F402B093F50289893A
:102520009A89AB89BC89AC01BD01E4E0440F551F19
:10253000661F771FEA95D1F78D859E85AF85B8898F
:10254000FCE0880F991FAA1FBB1FFA95D1F7842BB7
:10255000952BA62BB72B4D895E896F89788D14E05A
:1025600076956795579547951A95D1F7842B952BB6
:10257000A62BB72B8093EE029093EF02A093F0026C
:10258000B093F102898D9A8DAB8DBC8DBA2FA92F96
:10259000982F88274D8D5E8D6F8D78A1842B952B7C
:1025A000A62BB72B8093EA029093EB02A093EC0248
:1025B000B093ED02A0960FB6F894DEBF0FBECDBF6C
:1025C000DF91CF911F910F910895CF93C62F91E086
:1025D0009093580296E790937A02109259021092C3
:1025E0007B02682F83E993E00E946C016C2F83E9E2
:1025F00093E00E946C01CF910C94C51141E861E811
:102600008FE993E00C949B011092BC031092BB03E2
:102610006DE18FE993E00E94CA01482F4E7F6DE97A
:102620008FE993E00C949B0143E861E88FE993E024
:102630000E949B0162E18FE993E00E94CA0183FF3F
:10264000F9CF48E062E98FE993E00E949B0181E0C5
:1026500090E008950E94FE120E94041340E06DE88D
:102660008FE993E00E949B0140E062EA8FE993E0EA
:102670000E949B0181E090E00895CF93DF93FC01DD
:10268000448155816081718186EF92E00E94520AF7
:10269000EC0168EC71E086EF92E00E94C20D8C0FB5
:1026A0009D1FDF91CF9108958FEB93E00E94590D0C
:1026B00085EC93E00E94590D81ED93E00E94590D45
:1026C0008BEC93E00E94590D89ED93E00E94590D27
:1026D0008FED93E00E94590D85EE93E00E94590D15
:1026E0008BEE93E00E94590D81EF93E00E94A502CA
:1026F00081E094E00E94590D8BEF93E00E94590D08
:102700008FE094E00E94590D89E094E00C94590DFB
:10271000CF93DF93CDB7DEB7EE970FB6F894DEBF59
:102720000FBECDBF789484B5826084BD84B58160CE
:1027300084BD85B5826085BD85B5816085BD80918C
:102740006E00816080936E00109281008091810004
:1027500082608093810080918100816080938100FC
:10276000809180008160809380008091B1008460BE
:102770008093B1008091B00081608093B00080911F
:102780007A00846080937A0080917A0082608093DE
:102790007A0080917A00816080937A0080917A003B
:1027A000806880937A001092C100E0910603F09156
:1027B000070382E08083E0910203F091030310821B
:1027C000E0910403F091050380E1808310920E03F1
:1027D000E0910A03F0910B0386E08083E091080307
:1027E000F0910903808180618083E0910803F0917A
:1027F0000903808188608083E0910803F0910903D8
:10280000808180688083E0910803F09109038081D2
:102810008F7D808360E08EE00E947B0E60E08FE021
:102820000E947B0E60E081E10E947B0E60E085E10A
:102830000E947B0E1092A4021092A30210925902E1
:1028400010927B021092A20281E08093A10210926A
:102850009C0261E082E10E942F0E61E083E10E9410
:102860002F0E8091B9008E7F8093B9008091B900BE
:102870008D7F8093B90088E48093B80085E48093CD
:10288000BC0061E08091AF030E947B0E61E080910B
:10289000AF030E942F0E8091B1039091B2038F3F3E
:1028A0002FEF9207C9F061E00E947B0E60E08091FB
:1028B000B1030E942F0E6AE070E080E090E00E9479
:1028C000CE0E61E08091B1030E942F0E6AE070E0AD
:1028D00080E090E00E94CE0E1FB7F8948091FF0137
:1028E000811127C0EAE8F1E08491E6E7F1E09491F4
:1028F000E82FF0E0EE0FFF1FEE59FE4FA591B491C7
:10290000EC91E92321F461E08AE00E942F0E61E05E
:102910008AE00E947B0E8CB580618CBD8CB5806492
:102920008CBD61E08DE00E947B0E61E08BE00E9437
:102930007B0E8091FF018F5F8093FF011FBF62E4D8
:102940008FE993E00E94CA01823109F08DC440E80A
:1029500061E88FE993E00E949B0180E49EE0AFEC88
:10296000B9E18093B5039093B603A093B703B093F6
:10297000B8034CE666E88FE993E00E949B0140E4CF
:1029800067E88FE993E00E949B0140E068E88FE9E7
:1029900093E00E949B0140E06EE88FE993E00E9483
:1029A0009B0140E06FE88FE993E00E949B016CE09F
:1029B0008FE993E00E94CA01482F43606CE88FE9D9
:1029C00093E00E949B0144E066EA8FE993E00E9455
:1029D0009B014FE869E88FE993E00E949B010E9408
:1029E000FE120E94F9028DE299E09093F701809324
:1029F000F6016BEC71E0CE0101960E94670DBE01FD
:102A00006F5F7F4F8BEC93E00E94C109CE0101966E
:102A10000E94590D84E494E09093F9018093F801A9
:102A200061E082EF0E94E51267E284EF0E94E51206
:102A300060EA85EF0E94E51281E08093580286E704
:102A400080937A021092590210927B0288E890E0FB
:102A50000E94F6100E94C51168E170E086E790E0E0
:102A60000E947A1110E09091A3028091A402E12EBD
:102A7000F12C1F5F981761F083E993E00E94050134
:102A8000E1E0F0E0EC0FFD1FEE0DFF1D8083EBCFCA
:102A9000DD24D394D092580206E700937A02109274
:102AA000590210927B0281EA90E00E94F6100E9487
:102AB000C51161E070E086E790E00E947A1183E939
:102AC00093E00E940501E1E0F0E0EC0FFD1FEE0D48
:102AD000FF1D8083D092580200937A02109259020F
:102AE00010927B0281EE90E00E94F6100E94C511C8
:102AF00067E070E086E790E00E947A119091A3026F
:102B00008091A402981769F083E993E00E9405017F
:102B1000E1E0F0E0EC0FFD1FE10FF11D80831F5F8E
:102B2000EDCF8A8190E0982F88272981822B90937E
:102B3000CA028093C9028C8190E0982F88272B814C
:102B4000822B9093CC028093CB028E8190E0982FC1
:102B500088272D81822B9093CE028093CD02888589
:102B600090E0982F88272F81822B9093D00280931A
:102B7000CF028A8590E0982F88272985822B909311
:102B8000D2028093D1028C8590E0982F88272B85E4
:102B9000822B9093D4028093D3028E8590E0982F5D
:102BA00088272D85822B9093D6028093D502888921
:102BB00090E0982F88272F85822B9093D8028093BE
:102BC000D7028A8990E0982F88272989822B9093B1
:102BD000DA028093D9028C8990E0982F88272B897C
:102BE000822B9093DC028093DB028E8990E0982FF9
:102BF00088272D89822B9093DE028093DD02888DB9
:102C000090E0982F88272F89822B9093E002809361
:102C1000DF02898D8093E1028B8D90E0982F8827C9
:102C20002A8D822B9093E3028093E2028C8D809315
:102C3000E4022E8D322F3F708D8D40E1849FC001C4
:102C40001124832B9093E6028093E50222952F7046
:102C50008F8D30E1839FC0011124822B9093E80275
:102C60008093E70288A18093E90236E0B32E62E107
:102C70008FE993E00E94CA01182F0E940413412F8C
:102C800062E98FE993E00E949B0116FF2CC015FDBD
:102C90002AC01092BA031092B9038091BB0390919D
:102CA000BC03892B11F062E201C063E18FE993E07C
:102CB0000E94CA01082F10E060E18FE993E00E94B2
:102CC000CA01482F6DE88FE993E00E949B010E94A2
:102CD000FE12012B09F4F4C16AEC71E0CE01C99631
:102CE0000E94670D15C061E08FE993E00E94CA0160
:102CF000863809F4E5C140E06DE88FE993E00E9471
:102D00009B0146E861E88FE993E00E949B01D8C1EE
:102D10008FE993E00E941702892B81F08FE993E0FD
:102D20000E94FC0189831A8241E050E0BE016F5F7E
:102D30007F4FCE01C9960E94610CEACF2DAD3EAD0A
:102D40002150310940E050E0BE01675C7F4FCE0169
:102D500087960E947C0DBE01695D7F4FCE01019672
:102D60000E94BB022DAD3EADA90141505109BE01EB
:102D7000675C7F4FCE0181960E947C0DBE016F5F24
:102D80007F4FCE0181960E942F0C182FCE01819685
:102D90000E94590DCE0101960E94590DCE018796D1
:102DA0000E94590D112309F487C1BE01675C7F4F52
:102DB000CE0101960E94F10368E471E0CE01019614
:102DC0000E94100C811115C0BE01675C7F4FCE01BF
:102DD00081960E94F10361EB71E0CE0181960E9421
:102DE000100C11E0811110E0CE0181960E94590D66
:102DF00001C010E0CE0101960E94590D11115CC175
:102E0000BE01675C7F4FCE0101960E94AE036DEC60
:102E100071E0CE0101960E94100C182FCE01019690
:102E20000E94590D1123C1F16DEC71E0CE018D9618
:102E30000E94670DBE01675C7F4FCE0187960E949E
:102E4000F103BE01675C7F4FCE0181960E94C703EC
:102E5000BE01675C7F4FCE0101960E9463039E0115
:102E6000235D3F4FAE01495D5F4FBE016F5D7F4FF8
:102E7000CE0101960E948C08CE0101960E94590D48
:102E8000CE0181960E94590DCE0187960E94590D60
:102E9000CE018D960E94590DBE01675C7F4FCE0119
:102EA00001960E94AE0368ED71E0CE0101960E948A
:102EB000100C182FCE0101960E94590D112309F410
:102EC000B0C0BE01675C7F4F8BEF93E00E94C109E9
:102ED000BE01675C7F4FCE0101960E942B03BE01AD
:102EE000675C7F4FCE0187960E94C703BE01695D74
:102EF0007F4FCE0181960E94140461ED71E0CE01F6
:102F00008D960E94670DBE016F5D7F4FCE018D963D
:102F10000E94A80CBE016F5F7F4F0E94A80C65ED58
:102F200071E00E948F0CBC01CE01C3960E945E0D21
:102F3000CE018D960E94590DCE0181960E94590DA9
:102F4000CE0187960E94590DCE0101960E94590D1F
:102F5000BE016D5C7F4FCE0101960E94BB024D8188
:102F60005E8169817A81CE01C3960E94610CCE0197
:102F700001960E94590DCE01C3960E940103CE0115
:102F8000C3960E94590DBE01675C7F4F8BEF93E0A3
:102F90000E940409019609F08FC068ED71E0CE012E
:102FA0008D960E94670DBE01675C7F4FCE018796AC
:102FB0000E94F103BE01675C7F4FCE0181960E94A3
:102FC000C703BE01675C7F4FCE0101960E94630379
:102FD0009E01235D3F4FAE01495D5F4FBE016F5DB6
:102FE0007F4FCE0101960E948C08CE0101960E946F
:102FF000590DCE0181960E94590DCE0187960E94EF
:10300000590DCE018D960E94590D80910704909123
:103010000804069734F060E070E08BEF93E00E94C4
:103020007002BE01675C7F4FCE0101960E94AE0325
:1030300067ED71E0CE0101960E94100C182FCE01B1
:1030400001960E94590D1123B9F1BE01675C7F4FB3
:10305000CE0181960E94630300E010E08091150488
:10306000909116040817190718F517FD04C00817E2
:1030700019070CF406C169E074E0CE0101960E94C4
:103080002B03BE016F5D7F4FCE0101960E942F0C76
:10309000F82ECE0101960E94590DFF2031F0B801A3
:1030A00089E094E00E94700203C00F5F1F4FD6CFEB
:1030B000CE0181960E94590DCE01C9960E94590DEC
:1030C00080910402811116C02FB7F8948091FA0103
:1030D0009091FB01A091FC01B091FD012FBF809365
:1030E000000290930102A0930202B093030281E0D8
:1030F000809304022FB7F8948091FA019091FB011C
:10310000A091FC01B091FD012FBF409100025091B0
:1031100001026091020270910302841B950BA60BC1
:10312000B70B893E9340A105B10508F49AC0C12CA4
:10313000D12C00E010E0809115049091160408173E
:10314000190708F07BC017FD04C0081719070CF415
:10315000A0C089E0E82E84E0F82E6CED71E0CE018D
:1031600001960E94670DB701CE0101960E94A80C3E
:103170000E940103CE0101960E94590D8091F70330
:103180009091F803801791073CF0E091F303F091E0
:10319000F403EC0DFD1D02C0E9EFF3E080819181A5
:1031A0000196918380838091F7039091F8038017B3
:1031B00091073CF0E091F303F091F403EC0DFD1D59
:1031C00002C0E9EFF3E08081918198012F5F3F4FCA
:1031D0007901089770F1B80189E094E00E947002CB
:1031E000E091F303F091F403EC0DFD1D80E090E01D
:1031F0002091F7033091F803A9014F5F5F4F401B07
:10320000510B8417950734F4A701480F591F241751
:1032100035074CF40E191F09200F311F3093F803A6
:103220002093F70306C022813381219331930196C5
:10323000DFCF870132E0C30ED11C7DCF2FB7F894CA
:103240008091FA019091FB01A091FC01B091FD01E8
:103250002FBF8093000290930102A0930202B093CB
:1032600003020E944E0B03CD6FED71E086EF92E0FA
:103270000E94C20D68EC71E086EF92E00E94C20DE0
:10328000FFCFB09EB001B19E700D1124675F7B4FE0
:10329000F4CEB09EC001B19E900D11249C01275F19
:1032A0003B4F79015ACFCF93DF93E6EFF2E01382E1
:1032B000128288EE93E0A0E0B0E084839583A68339
:1032C000B7832EE031E03183208325EC30E0358771
:1032D000248724EC30E03787268720EC30E0318BE0
:1032E000208B21EC30E0338B228B22EC30E0358BCD
:1032F000248B26EC30E0378B268B118E128E138EAA
:10330000148EE3E9F3E01382128284839583A6830B
:10331000B78380E291E091838083EFE9F3E0138249
:10332000128282E391E09183808380E5848781E04B
:10333000858787E194E0978786878AE090E0918B84
:10334000808B89E090E0938B828B82E090E0958B7C
:10335000848B168A178A108E118E138E128E158EFC
:10336000148E178E168E148215821682178289E0AB
:1033700094E00E94250A8BEF93E00E94250AC1EF9A
:10338000D3E084E491E09983888380E090E00E9418
:10339000F61E9B838A832FEF3FEF3F832E839D830F
:1033A0008C836AEC71E08BEE93E00E94670D6AEC0F
:1033B00071E085EE93E00E94670D6AEC71E08FED9D
:1033C00093E00E94670D6AEC71E089ED93E00E9442
:1033D000670D8BEC93E00E94250A6AEC71E085ECA6
:1033E00093E00E94670D6AEC71E08FEB93E0DF9150
:1033F000CF910C94670DEF920F931F93CF93DF93B0
:10340000E80147FD02C034E001C034E1E42F440F7D
:10341000FF0BF7FF03C0F195E195F109E32E022FB1
:103420002E2FAE010E94401ACE01DF91CF911F9145
:103430000F91EF900895BB274A3031F4992322F47D
:10344000BDE2909581959F4F0C94271ABB27FB01F5
:103450005527AA27880F991FAA1FA41710F0A41B8D
:1034600083955051B9F7A05DAA3308F0A95DA193E7
:10347000009779F7B111B1931192CB010C94A61C6E
:103480004F925F926F927F929F92AF92BF92CF9234
:10349000DF92EF92FF920F931F93CF93DF93CDB7FD
:1034A000DEB729970FB6F894DEBF0FBECDBF6A0115
:1034B000122FB02E2BE3201720F0FF24F394F00EF0
:1034C00002C0BCE3FB2E0F2D27E0AE014F5F5F4F24
:1034D0000E94CE1BAC018981982F9970913031F0F8
:1034E000E1FC06C0E0FE06C090E205C09DE203C01C
:1034F0009BE201C090E0EE2DE07183FF3CC0911192
:1035000002C083E001C084E0811718F4212F281B3A
:1035100001C020E0E1110BC0F601822F30E28823C8
:1035200019F031938150FBCFC20ED11C20E09923BA
:1035300029F0D6019C93F60131966F01C6010396DE
:10354000E2FE0AC03EE4D6013C9341E411964C935E
:10355000119712963C9306C03EE6F601308341E691
:1035600041833283FC01322F40E2332309F442C00D
:1035700041933150FACF82FF44C0911102C083E0E1
:1035800001C084E0811718F4212F281B01C020E01E
:10359000E1110BC0F601822F30E2882319F031933C
:1035A0008150FBCFC20ED11C20E0992329F0D60117
:1035B0009C93F60131966F01C6010396E2FE0BC0A3
:1035C00039E4D6013C933EE411963C93119736E4DE
:1035D00012963C9307C039E6F60130833EE631830C
:1035E00036E63283FC01322F40E2332319F0419357
:1035F0003150FBCFFC01E20FF11D10828EEF9FEFE7
:10360000B7C0F1E0911101C0F0E06F2F70E0141627
:10361000150624F49A012F5F3F4F02C021E030E0ED
:10362000260F371FBB2029F06B2D70E06F5F7F4F97
:1036300002C060E070E0260F371F612F70E0261790
:1036400037071CF4121B212F01C020E03E2D3871DA
:1036500059F4D601322F60E2332319F06D933150C3
:10366000FBCFC20ED11C20E0FF2331F0D6019C938A
:10367000B6016F5F7F4F6B01E1110BC0F601922F16
:1036800030E3992319F031939150FBCFC20ED11C36
:1036900020E09F2D940F3A81782F7071A72E84FF20
:1036A00003C0313309F49150191624F4993018F0FD
:1036B00098E001C091E0E42F852F57FF02C0E0E0C1
:1036C00080E06E2F782FE0E0F0E0AEE29A2E3A0133
:1036D000691A71082A01461A570A0B2D10E0119534
:1036E000019511096F3F8FEF780729F4D6019C925D
:1036F000C60101966C014617570784F066167706D7
:103700006CF47F01E40CF51CA1E0B0E0AC0FBD1F30
:10371000EA0EFB1ED7011196BC9002C090E3B92EB1
:10372000615071093196C60101967C0160177107DD
:1037300024F0D601BC926C01D5CF6417750741F413
:10374000363320F4353321F4A11002C081E3B82EC2
:10375000F601B082F701822F90E2882319F091934D
:103760008150FBCFF701E20FF11D108280E090E065
:1037700029960FB6F894DEBF0FBECDBFDF91CF9173
:103780001F910F91FF90EF90DF90CF90BF90AF907F
:103790009F907F906F905F904F900895283008F031
:1037A00027E03327DA01990F311D87FD91600096DC
:1037B0006105710539F432602E5F3D9330E32A953F
:1037C000E1F708959F3F30F080387105610509F0F9
:1037D0003C5F3C5F3D93913008F08068911DDF9322
:1037E000CF931F930F93FF92EF92192F987F969587
:1037F000E92F96959695E90FFF27EE53FF4F9927EE
:103800003327EE24FF24A701E701059008940794CD
:1038100028F4360FE71EF81E491F511D660F771F4B
:10382000881F991F0694A1F70590079428F4E70EC6
:10383000F81E491F561FC11D770F881F991F661F4D
:103840000694A1F70590079428F4F80E491F561F17
:10385000C71FD11D880F991F661F771F0694A1F7F8
:103860000590079420F4490F561FC71FD81F990FC2
:10387000661F771F881F0694A9F78491109517700B
:1038800041F0D695C79557954795F794E7941A95C3
:10389000C1F7E8E6F0E068941590159135916591CF
:1038A000959105907FE27395E118F10A430B560B51
:1038B000C90BD009C0F7E10CF11E431F561FC91FE9
:1038C000D01D7EF4703311F48A95E6CFE894015050
:1038D00030F0080F0AF40027021708F4202F239570
:1038E000022F7A3328F079E37D932A95E9F710C007
:1038F0007D932A9589F60694979567953795179540
:103900001794E118F10A430B560BC90BD00998F034
:1039100023957E9173957A3308F070E37C9320139E
:10392000B8F77E9170617D9330F0839571E37D935C
:1039300070E32A95E1F71124EF90FF900F911F910A
:10394000CF91DF91992787FD90950895DC01FC01C7
:10395000672F71917723E1F7329704C07C916D93C3
:1039600070836291AE17BF07C8F30895E89409C049
:1039700097FB3EF490958095709561957F4F8F4FA2
:103980009F4F9923A9F0F92F96E9BB279395F695B8
:10399000879577956795B795F111F8CFFAF4BB0F36
:1039A00011F460FF1BC06F5F7F4F8F4F9F4F16C09A
:1039B000882311F096E911C0772321F09EE8872F24
:1039C000762F05C0662371F096E8862F70E060E0E0
:1039D0002AF09A95660F771F881FDAF7880F969559
:1039E000879597F908950E94061D0C94771D0E94F3
:1039F000691D38F00E94701D20F0952311F00C9481
:103A0000601D0C94661D11240C94AB1D0E94881D32
:103A100070F3959FC1F3950F50E0551F629FF00121
:103A2000729FBB27F00DB11D639FAA27F00DB11D3A
:103A3000AA1F649F6627B00DA11D661F829F2227C3
:103A4000B00DA11D621F739FB00DA11D621F839F4A
:103A5000A00D611D221F749F3327A00D611D231F20
:103A6000849F600D211D822F762F6A2F11249F576E
:103A700050409AF0F1F088234AF0EE0FFF1FBB1F71
:103A8000661F771F881F91505040A9F79E3F510530
:103A900080F00C94601D0C94AB1D5F3FE4F3983EE6
:103AA000D4F3869577956795B795F795E7959F5FDA
:103AB000C1F7FE2B880F911D9695879597F908956C
:103AC00097F99F6780E870E060E008959FEF80ECD1
:103AD000089500240A941616170618060906089574
:103AE00000240A9412161306140605060895092EDA
:103AF0000394000C11F4882352F0BB0F40F4BF2B49
:103B000011F460FF04C06F5F7F4F8F4F9F4F089588
:103B100057FD9058440F551F59F05F3F71F047957E
:103B2000880F97FB991F61F09F3F79F08795089563
:103B3000121613061406551FF2CF4695F1DF08C082
:103B4000161617061806991FF1CF8695710561059F
:103B500008940895E894BB2766277727CB0197F947
:103B600008950E941D1EA59F900DB49F900DA49FC7
:103B7000800D911D11240895B7FF0C94B11D0E9472
:103B8000B11D821B930B08952F923F924F925F922B
:103B90006F927F928F929F92AF92BF92CF92DF925D
:103BA000EF92FF920F931F93CF93DF93CDB7DEB7C2
:103BB000CA1BDB0B0FB6F894DEBF0FBECDBF099456
:103BC0002A88398848885F846E847D848C849B84AD
:103BD000AA84B984C884DF80EE80FD800C811B81BB
:103BE000AA81B981CE0FD11D0FB6F894DEBF0FBEEA
:103BF000CDBFED010895A1E21A2EAA1BBB1BFD014A
:103C00000DC0AA1FBB1FEE1FFF1FA217B307E407BB
:103C1000F50720F0A21BB30BE40BF50B661F771F13
:103C2000881F991F1A9469F76095709580959095F3
:103C30009B01AC01BD01CF010895A29FB001B39FCC
:103C4000C001A39F700D811D1124911DB29F700DA5
:103C5000811D1124911D08950E94401E0C94771D12
:103C60000E94701D58F00E94691D40F029F45F3FCA
:103C700029F00C94601D51110C94AB1D0C94661D21
:103C80000E94881D68F39923B1F3552391F3951B86
:103C9000550BBB27AA2762177307840738F09F5F6D
:103CA0005F4F220F331F441FAA1FA9F335D00E2EDA
:103CB0003AF0E0E832D091505040E695001CCAF747
:103CC0002BD0FE2F29D0660F771F881FBB1F26170A
:103CD00037074807AB07B0E809F0BB0B802DBF01E1
:103CE000FF2793585F4F3AF09E3F510578F00C94B0
:103CF000601D0C94AB1D5F3FE4F3983ED4F38695B2
:103D000077956795B795F7959F5FC9F7880F911DD0
:103D10009695879597F90895E1E0660F771F881FBC
:103D2000BB1F621773078407BA0720F0621B730B6F
:103D3000840BBA0BEE1F88F7E09508950E94A51E2C
:103D40006894B1110C94AB1D08950E94901D88F0E9
:103D50009F5798F0B92F9927B751B0F0E1F0660F4F
:103D6000771F881F991F1AF0BA95C9F714C0B13090
:103D700091F00E94AA1DB1E008950C94AA1D672F2E
:103D8000782F8827B85F39F0B93FCCF386957795BF
:103D90006795B395D9F73EF49095809570956195A8
:103DA0007F4F8F4F9F4F0895DB018F939F930E940A
:103DB000B11DBF91AF91A29F800D911DA39F900D4A
:103DC000B29F900D11240895991B79E004C0991FAA
:103DD000961708F0961B881F7A95C9F78095089565
:103DE000EE0FFF1F0590F491E02D0994CF93DF9320
:103DF0008230910510F482E090E0E0911A04F09195
:103E00001B0420E030E0C0E0D0E0309711F14081A9
:103E1000518148175907C0F04817590761F482814A
:103E20009381209719F09B838A832BC090931B0466
:103E300080931A0426C02115310519F04217530743
:103E400018F49A01BE01DF01EF010280F381E02D39
:103E5000DCCF2115310509F1281B390B2430310540
:103E600090F412968D919C9113976115710521F034
:103E7000FB019383828304C090931B0480931A04F4
:103E8000FD01329644C0FD01E20FF31F819391932F
:103E9000225031092D933C933AC02091180430915F
:103EA0001904232B41F4209106013091070130932E
:103EB0001904209318042091040130910501211563
:103EC000310541F42DB73EB74091080150910901E9
:103ED000241B350BE0911804F0911904E217F30745
:103EE000A0F42E1B3F0B2817390778F0AC014E5F6A
:103EF0005F4F2417350748F04E0F5F1F509319048A
:103F0000409318048193919302C0E0E0F0E0CF0168
:103F1000DF91CF9108950F931F93CF93DF93009775
:103F200009F48CC0FC0132971382128200911A04AA
:103F300010911B040115110581F420813181820F3C
:103F4000931F20911804309119042817390779F527
:103F5000F0931904E093180471C0D80140E050E0D8
:103F6000AE17BF0750F412962D913C911397AD01F7
:103F70002115310509F1D901F3CF9D01DA01338310
:103F8000228360817181860F971F8217930769F4DE
:103F9000EC0128813981260F371F2E5F3F4F318377
:103FA00020838A819B8193838283452B29F4F0931C
:103FB0001B04E0931A0442C01396FC93EE931297ED
:103FC000ED01499159919E01240F351FE217F30726
:103FD00071F480819181840F951F029611969C93B4
:103FE0008E938281938113969C938E931297E0E037
:103FF000F0E0D80112968D919C911397009719F0DB
:10400000F8018C01F6CF8D919C9198012E5F3F4F66
:10401000820F931F20911804309119042817390733
:1040200069F4309729F410921B0410921A0402C00C
:10403000138212821093190400931804DF91CF9118
:104040001F910F910895A0E0B0E0E9E2F0E20C9436
:10405000C81DEC01009721F4CB010E94F61EB8C0E8
:10406000FC01E60FF71F9C0122503109E217F3070C
:1040700008F4ACC0D9010D911C91119706171707D0
:10408000B0F00530110508F49FC0C80104978617E9
:10409000970708F499C002501109061B170B0193EA
:1040A00011936D937C93CF010E948B1F8DC05B0198
:1040B000A01AB10A4C01800E911EA0911A04B09171
:1040C0001B0440E050E0E12CF12C109709F44AC0A9
:1040D000A815B905D1F56D907C901197630182E028
:1040E000C80ED11CCA14DB0480F1A3014A195B0974
:1040F0006A0182E0C80ED11C1296BC9012971396EA
:10410000AC91B5E0CB16D10440F0B282A3835183C9
:104110004083D9016D937C930AC00E5F1F4FC3018A
:10412000800F911FF90191838083EB2DFA2FE11409
:10413000F10431F0D7011396FC93EE93129744C02B
:10414000F0931B04E0931A043FC08D919C9111974A
:104150004817590708F4AC017D0112960D90BC91E7
:10416000A02DB3CF8091180490911904881599055A
:10417000E1F446175707C8F48091040190910501B6
:10418000009741F48DB79EB7409108015091090105
:10419000841B950BE817F907C8F4F0931904E09312
:1041A0001804F901718360830FC0CB010E94F61ED1
:1041B0007C01009759F0A801BE010E94F220CE01B7
:1041C0000E948B1FC70104C0CE0102C080E090E0B6
:1041D000CDB7DEB7EEE00C94E41D81E090E0F894FA
:1041E0000C94B723FB01DC0102C001900D924150F9
:1041F0005040D8F70895FC018191861721F088235B
:10420000D9F7992708953197CF010895FB01DC0173
:104210008D91019080190110D9F3990B0895FB013C
:10422000DC0101900D920020E1F70895AEE0B0E0CE
:10423000ECE1F1E20C94D21D0D891E8986E08C839D
:104240001A8309838FEF9FE79E838D83AE01475EBC
:104250005F4F6F89788DCE0101960E9439212F81A1
:104260003885F801E20FF31F10822E96E4E00C94DB
:10427000EE1DACE0B0E0EFE3F1E20C94C41D7C0174
:104280006B018A01FC0117821682838181FFBDC107
:10429000CE0101964C01F7019381F60193FD8591C2
:1042A00093FF81916F01882309F4ABC1853239F402
:1042B00093FD859193FF81916F01853229F4B701B8
:1042C00090E00E942123E7CF512C312C20E02032B6
:1042D000A0F48B3269F030F4803259F0833269F403
:1042E00020612CC08D3239F0803339F4216026C032
:1042F0002260246023C0286021C027FD27C030ED44
:10430000380F3A3078F426FF06C0FAE05F9E300D91
:104310001124532E13C08AE0389E300D1124332E01
:1043200020620CC08E3221F426FD6BC1206406C0D1
:104330008C3611F4206802C0883641F4F60193FDF2
:10434000859193FF81916F018111C1CF982F9F7D3E
:104350009554933028F40C5F1F4FFFE3F9830DC091
:10436000833631F0833771F0833509F05BC022C0AA
:10437000F801808189830E5F1F4F44244394512CA0
:10438000540115C03801F2E06F0E711CF801A080D5
:10439000B18026FF03C0652D70E002C06FEF7FEF94
:1043A000C5012C870E9416232C0183012C852F77B1
:1043B000222E17C03801F2E06F0E711CF801A080A8
:1043C000B18026FF03C0652D70E002C06FEF7FEF64
:1043D000C5012C870E940B232C012C852068222EDE
:1043E000830123FC1BC0832D90E048165906B0F4CE
:1043F000B70180E290E00E9421233A94F4CFF501C6
:1044000027FC859127FE81915F01B70190E00E9412
:10441000212331103A94F1E04F1A5108411451040C
:1044200071F7E5C0843611F0893639F5F80127FFB8
:1044300007C060817181828193810C5F1F4F08C02A
:1044400060817181072E000C880B990B0E5F1F4F46
:104450002F76722E97FF09C0909580957095619583
:104460007F4F8F4F9F4F2068722E2AE030E0A401CB
:104470000E945923A82EA81844C0853729F42F7EFE
:10448000B22E2AE030E025C0F22FF97FBF2E8F3602
:10449000C1F018F4883579F0B4C0803719F0883746
:1044A00021F0AFC02F2F2061B22EB4FE0DC08B2D96
:1044B0008460B82E09C024FF0AC09F2F9660B92ED1
:1044C00006C028E030E005C020E130E002C020E175
:1044D00032E0F801B7FE07C060817181828193816B
:1044E0000C5F1F4F06C06081718180E090E00E5F1D
:1044F0001F4FA4010E945923A82EA818FB2DFF7757
:104500007F2E76FE0BC0372D3E7FA51450F474FE2F
:104510000AC072FC08C0372D3E7E05C0BA2C372D6C
:1045200003C0BA2C01C0B52C34FF0DC0FE01EA0D4A
:10453000F11D8081803311F4397E09C032FF06C03D
:10454000B394B39404C0832F867809F0B39433FDF9
:1045500013C030FF06C05A2CB31418F4530C5B1868
:10456000B32CB31468F4B70180E290E03C870E945A
:104570002123B3943C85F5CFB31410F43B1801C04C
:10458000312C34FF12C0B70180E390E03C870E94D9
:1045900021233C8532FF17C031FD03C088E790E03E
:1045A00002C088E590E0B7010CC0832F867859F0EF
:1045B00031FF02C08BE201C080E237FD8DE2B7011E
:1045C00090E00E942123A51438F4B70180E390E025
:1045D0000E9421235A94F7CFAA94F401EA0DF11D09
:1045E0008081B70190E00E942123A110F5CF3320F4
:1045F00009F451CEB70180E290E00E9421233A9461
:10460000F6CFF7018681978102C08FEF9FEF2C963E
:10461000E2E10C94E01DFC01059061507040011036
:10462000D8F7809590958E0F9F1F0895FC016150DB
:10463000704001900110D8F7809590958E0F9F1FC4
:1046400008950F931F93CF93DF93FB01238121FDE7
:1046500003C08FEF9FEF28C022FF16C0468157810D
:10466000248135814217530744F4A081B1819D0113
:104670002F5F3F4F318320838C93268137812F5FBB
:104680003F4F3783268310C0EB01092F182F00847A
:10469000F185E02D0995892BE1F68E819F810196A8
:1046A0009F838E83812F902FDF91CF911F910F9148
:1046B0000895FA01AA27283051F1203181F1E894B8
:1046C0006F936E7F6E5F7F4F8F4F9F4FAF4FB1E005
:1046D0003ED0B4E03CD0670F781F891F9A1FA11D00
:1046E000680F791F8A1F911DA11D6A0F711D811D01
:1046F000911DA11D20D009F468943F912AE0269FC6
:1047000011243019305D3193DEF6CF010895462F24
:104710004770405D4193B3E00FD0C9F7F6CF462F05
:104720004F70405D4A3318F0495D31FD405241936E
:1047300002D0A9F7EACFB4E0A6959795879577952B
:104740006795BA95C9F700976105710508959B01B2
:10475000AC010A2E06945795479537952795BA953B
:10476000C9F7620F731F841F951FA01D089510E0E5
:10477000CAEDD0E004C0FE010E94F01E2196CB3DA0
:08478000D107C9F7F894FFCF3F
:104788007D0B7D0B00001C04800000000000E50A82
:10479800520A7D0A2C0BAE0A8C0AA00A00000000FF
:1047A8006C013C013901880B19010501890B0000D6
:1047B800000022012802390121011702FC01CE0163
:1047C80000000000A502B102312E302E302E32003A
:1047D800716F732F73796E63007B2274223A227390
:1047E800746174696F6E222C226C223A20002C228C
:1047F80054223A002C2268223A002C2261223A00E4
:104808002C2243223A002C224E223A002C227222D9
:104818003A002C2262223A002C2273223A002C22DF
:1048280071223A007D007265732F6A736F6E0024DF
:1048380000302E302E302E30007564707C257325A4
:10484800737C0025732573000D0A002300756470BE
:1048580000727463707C0072746370007463005338
:1048680074617274696E67204C6F52612066616969
:064878006C6564210000E4
:00000001FF
