:100000000C94DB000C94610F0C943A0F0C940301D8
:100010000C9403010C9403010C9403010C94030150
:100020000C9403010C9403010C9403010C94030140
:100030000C9403010C9403010C9403010C94030130
:100040000C94F00E0C9403010C94D90D0C94B30D88
:100050000C9403010C9403010C9403010C94030110
:100060000C94880F0C94030100407A10F35A00A0FE
:10007000724E18090010A5D4E80000E87648170071
:1000800000E40B54020000CA9A3B000000E1F505B1
:10009000000080969800000040420F000000A086FB
:1000A00001000000102700000000E803000000002D
:1000B0006400000000000A000000000001000000D1
:1000C00000002C76D888DC674F0823DFC1DFAE59EB
:1000D000E1B1B796E5E3E453C63AE651997696E87E
:1000E000E6C28426EB898C9B62ED407C6FFCEFBC02
:1000F0009C9F40F2BAA56FA5F490055A2AF75C932D
:100100006B6CF9676DC11BFCE0E40D47FEF520E662
:10011000B500D0ED902E0300943577050080841E45
:10012000080000204E0A000000C80C333333330FA0
:10013000986E12831141EF8D2114893BE65516CF3D
:10014000FEE6DB18D1844B381BF77C1D901DA4BB49
:10015000E424203284725E228100C9F124ECA1E5FE
:100160003D2700000000240027002A0001020408A7
:100170001020408001020408102001020408102011
:10018000040404040404040402020202020203033D
:100190000303030300000000250028002B000000DB
:1001A0000008000201000003040700000000000036
:1001B00000006B197F1311241FBECFEFD8E0DEBF04
:1001C000CDBF12E0A0E0B1E0E0E3F8E402C00590AA
:1001D0000D92A030B107D9F724E0A0E0B2E001C051
:1001E0001D92A632B207E1F710E0CAEDD0E004C0DC
:1001F0002197FE010E94441FC93DD107C9F70E9403
:10020000B3130C940B240C9400000895CF93DF9348
:100210001F92CDB7DEB76983DC01ED91FC910280BE
:10022000F381E02D41E050E0BE016F5F7F4F099503
:100230000F90DF91CF910895089580E090E00895A8
:10024000CF93DF931F92CDB7DEB76983209162020F
:100250002223D1F020918502203240F021E030E0CD
:10026000FC013383228380E090E015C0809163021B
:10027000E82FF0E0EC59FD4F998190838F5F8093D8
:1002800063028093850205C061E0CE0101960E9461
:10029000B61081E090E00F90DF91CF910895EF923A
:1002A000FF921F93CF93DF931F92CDB7DEB77C01F0
:1002B000162F60E0FC01808949830E940B0EF70134
:1002C000948585859CBD8DBD1EBD000049810DB402
:1002D00007FEFDCF8EB54EBD00000DB407FEFDCF6D
:1002E0001EB561E0F70180890E940B0E812F0F90EF
:1002F000DF91CF911F91FF90EF9008956F7740E0CD
:100300000C944F01EF92FF921F93CF93DF931F92B4
:10031000CDB7DEB77C01DC01ED91FC910084F18565
:10032000E02D0995892B99F06DE0C7010E947E01AF
:10033000482F60E0C70149830E947E01182F498140
:100340006DE8C7010E944F01812F90E002C08FEF3E
:100350009FEF0F90DF91CF911F91FF90EF90089545
:10036000CF93DF93EC01E881F9810084F185E02DE2
:100370000995892B59F08A8D9B8D01969B8F8A8FC9
:1003800060E0CE010E947E0190E002C08FEF9FEFFF
:10039000DF91CF910895CF93DF93EC0163E10E9449
:1003A0007E01282F30E08A8D9B8DA901481B590BB7
:1003B000CA01DF91CF9108958F929F92AF92BF9221
:1003C000CF92DF92FF920F931F93CF93DF931F92F1
:1003D000CDB7DEB76C01B62E4A0162E279830E9486
:1003E0007E01F82E90E09C01280D391D79812F3F68
:1003F000310531F028F02FEF30E04901881A990AD1
:100400000B2D172F5801A80CB91C0A151B0541F01C
:10041000F80141918F0160E8C6010E944F01F5CFBC
:10042000482D4F0D62EAC6010E944F01C4010F9092
:10043000DF91CF911F910F91FF90DF90CF90BF90F0
:10044000AF909F908F900895EF92FF920F931F931C
:10045000CF93DF9377FD26C0FC0124853585621795
:10046000730704F5EC018B010F5F1F4F26E0269FF9
:10047000C001279F900D11248E0F9F1F2C853D8555
:100480007C01F6E0EF0EF11C0217130738F4B701F8
:100490000E941E0D0F5F1F4FC701F0CF2150310981
:1004A0003D872C87DF91CF911F910F91FF90EF90A7
:1004B000089524E431E0FC0131832083828193811B
:1004C000009711F00C94DF1F0895CF93DF93EC0198
:1004D0000E945902CE01DF91CF910C94DF1F0F9340
:1004E0001F93CF93DF9300D0CDB7DEB78C01DB0134
:1004F0001496ED91FC91159720E030E08BE62E17D5
:100500003F0781F0DB014D915C914115510529F0C8
:10051000DA01A20FB31F9C9101C090E089272F5FE1
:100520003F4FEDCF6AE10E94381FF801118210821F
:1005300013821282158214829F5999831A82BE01F6
:100540006F5F7F4FC8010E94070DC8010F900F9089
:10055000DF91CF911F910F9108950E941C1345E8E0
:1005600061E889EA93E00C944F01CF93DF93EC01AB
:100570000E94161368EC70E080E090E00E94AA0EE2
:100580000E945513CE010E946813E091A903F091D7
:10059000AA034C815D81688179810280F381E02D1D
:1005A00089EA93E009950E942C1368EC70E080E0E2
:1005B00090E00E94AA0EDF91CF910C94AD02EF92D1
:1005C000FF920F931F93CF93DF938C01EB0140E0D9
:1005D00050E06CE7CE010E94D00BAC014F5F5F4F43
:1005E0006CE7CE010E94D00BAC014F5F5F4F6CE710
:1005F000CE010E94D00BAC014F5F5F4F6CE7CE0184
:100600000E94D00B01967C01AC016CE7CE010E94E8
:10061000D00B9C01A701BE01C8010E94580DC80162
:10062000DF91CF911F910F91FF90EF900895CF929E
:10063000DF92EF92FF920F931F93CF93DF9300D03F
:1006400000D000D0CDB7DEB77C018B0140E050E098
:100650006CE7C8010E94D00BAC014F5F5F4F6CE7A5
:10066000C8010E94D00BAC014F5F5F4F6CE7C8011F
:100670000E94D00B01966C01AC016CE7C8010E948E
:10068000D00B9C01A601B801CE0101960E94580D25
:10069000BE016F5F7F4FC7010E943A0DCE010196E8
:1006A0000E94350DC70126960FB6F894DEBF0FBE27
:1006B000CDBFDF91CF911F910F91FF90EF90DF9011
:1006C000CF9008950F931F93CF93DF93EC018B018D
:1006D00040E050E06CE7C8010E94D00B9C0140E074
:1006E00050E0B801CE010E94580DCE01DF91CF91AC
:1006F0001F910F910895EF92FF920F931F93CF9345
:10070000DF938C01EB0140E050E06CE7CE010E94EA
:10071000D00BAC014F5F5F4F6CE7CE010E94D00B56
:1007200001967C01AC016CE7CE010E94D00B9C01CC
:10073000A701BE01C8010E94580DC801DF91CF91E9
:100740001F910F91FF90EF900895EF92FF920F93FA
:100750001F93CF93DF938C01EB0140E050E06CE7F7
:10076000CE010E94D00B01967C01AC016CE7CE015A
:100770000E94D00B9C01A701BE01C8010E94580D28
:10078000C801DF91CF911F910F91FF90EF900895D5
:100790000F931F93CF93DF9300D000D000D0CDB73D
:1007A000DEB78C01CE0101960E943A0D6CED71E02E
:1007B000CE0101960E946B0C68E471E00E946B0C04
:1007C0006CED71E00E946B0CBC01C8010E943A0DF7
:1007D000CE0101960E94350DC80126960FB6F894F9
:1007E000DEBF0FBECDBFDF91CF911F910F91089556
:1007F0002F923F924F925F926F927F928F929F9231
:10080000AF92BF92CF92DF92EF92FF920F931F931E
:10081000CF93DF93CDB7DEB7AF970FB6F894DEBFB7
:100820000FBECDBF8B0160E571E00E94EC0B882309
:1008300009F410C4D8018D919C91009741F00E9459
:10084000331A643671058105910508F003C46EEF13
:1008500071E0CE014A960E94430D69E571E0CE0138
:100860004A960E94070DEE24E394E0926202F3E2BE
:10087000FF2EF0928402109263021092850287E0AC
:1008800090E00E940E110E94DD11E0926202F0924F
:100890008402109263021092850280E290E00E942E
:1008A0000E110E94DD1168E770E080E090E00E9488
:1008B000AA0E62E070E083E290E00E949211E12CC7
:1008C000F12C8091AD0290E02091AE02821B910943
:1008D0001816190654F48DE993E00E94580B7E2DEA
:1008E00066277B01E80EF11CECCFB701FF0C880BEB
:1008F000990B0E940C1D2AE939E949E95FE30E943E
:10090000801E0E94F21ECE014A960E94C80C6EE61E
:1009100071E0CE014A960E94F80C0E943A12609152
:10092000F8027091F9028091FA029091FB020E9404
:1009300013110E940C1D20E030E048EC52E40E94AC
:10094000801EAB01BC01CE014A960E94970C64E761
:1009500071E0CE014A960E94F80C0E943A12609112
:10096000F8027091F9028091FA029091FB020E94C4
:1009700013118090CF029090D002A090D102B0903D
:10098000D202BCE29B1AB1E0AB0AB108C090F402FB
:10099000D090F502E090F602F090F7025EE0CC0C09
:1009A000DD1CEE1CFF1C5A95D1F78091EF0290914F
:1009B000F002092E000CAA0BBB0B64E1880F991FF3
:1009C000AA1FBB1F6A95D1F7C81AD90AEA0AFB0AFF
:1009D000A091F102B091F202A50194010E94101EB3
:1009E000C61AD70AE80AF90AE0E4DE0EE11CF11C97
:1009F0007FE0F594E794D794C7947A95D1F7A091C6
:100A0000F3020A2E000CBB0B0E94101E2B013C01AE
:100A1000EAE07594679457944794EA95D1F7A091CA
:100A2000EE020A2E000CBB0B0E94101EDC01CB0153
:100A3000FBE0B595A79597958795FA95D1F7BC01F9
:100A4000CD0170588F4F9F4FA30192010E94281F24
:100A5000DC01CB012AE0B595A795979587952A9556
:100A6000D1F79C01AD01405E5F4FA091EC02B091C7
:100A7000ED020E94101EDC01CB01905EAF4FBF4F14
:100A8000BC01CD013EE095958795779567953A95A0
:100A9000D1F7A70196010E94281F6B017C014FE04E
:100AA00095958795779567954A95D1F79B01AC0108
:100AB0000E94281F9B01AC0167E05595479537952B
:100AC00027956A95D1F7A091EB020A2E000CBB0B7B
:100AD0000E94101EDC01CB0174E0B595A795979597
:100AE00087957A95D1F7A7019601281B390B4A0BF8
:100AF0005B0BDA01C90157FF03C080E090E0DC0125
:100B000081309105A10539E1B30724F080E090E040
:100B1000A0E0B9E1BC01CD013CE0959587957795C2
:100B200067953A95D1F70E940A1D20E030E040E831
:100B30005AE30E94471DAB01BC01CE014A960E94B8
:100B4000970C6AE771E0CE014A960E94F80C0E9469
:100B50003A126091F8027091F9028091FA02909134
:100B6000FB020E9413118091FC029091FD02A09162
:100B7000FE02B091FF028EA39FA3A8A7B9A7C090C1
:100B8000CF02D090D002E090D102F090D202F59442
:100B9000E794D794C7949AEFD91AE108F108C701EE
:100BA000B60152E095958795779567955A95D1F757
:100BB0009B01AC010E94281F2B013C01E091E30244
:100BC000F091E4022090E1023090E202A091DF0275
:100BD000B091E002BFA7AEA7A091DD02B091DE0206
:100BE0009B01AC016DE055954795379527956A9522
:100BF000D1F70E94101E4B015C0173E0B594A794DD
:100C0000979487947A95D1F7A091DB02B091DC029A
:100C1000A70196010E94101EDC01CB01B595A79596
:100C200097958795880D991DAA1DBB1D32E1B59535
:100C3000A795979587953A95D1F79C01AD013058C6
:100C40004F4F5F4FA091D902B091DA020E94051E6A
:100C50004B015C014FE0B594A794979487944A9513
:100C6000D1F781149104A104B10409F4C9C0A3010E
:100C700092016BE055954795379527956A95D1F781
:100C8000DF010E94101E6AA77BA78CA79DA7D10138
:100C9000A70196010E94101EDC01CB01880F991F4D
:100CA000AA1FBB1F2AA53BA54CA55DA5820F931FBC
:100CB000A41FB51FE2E0B595A79597958795EA958E
:100CC000D1F74EA05FA068A479A47094609450946A
:100CD0004094411C511C611C711CEEA5FFA5AF0185
:100CE000FF0F660B770BBA0155274427840F951F1A
:100CF000A61FB71F2CE0B595A795979587952A95C0
:100D0000D1F7A3019201281B390B4A0B5B0BA5E31A
:100D1000BCE00E94051E805B9C4397FD0BC0660FE4
:100D2000771F881F991FA50194010E944F1E69011A
:100D30007A010AC0A50194010E944F1E69017A013F
:100D4000CC0CDD1CEE1CFF1CC701B60123E0969500
:100D50008795779567952A95D1F7E091E902F0910B
:100D6000EA029B01AC010E94281F9B01AC016DE0CF
:100D700056954795379527956A95D1F7DF010E94DB
:100D8000101E4B015C017CE0B594A7949794879466
:100D90007A95D1F7A7019601E2E0569547953795E8
:100DA0002795EA95D1F7A091E702B091E8020E9459
:100DB000101EDC01CB01FDE0B595A79597958795B1
:100DC000FA95D1F7880D991DAA1DBB1D4091E5022A
:100DD0005091E602052E000C660B770B840F951FD1
:100DE000A61FB71F24E0B595A795979587952A95D7
:100DF000D1F7BC01CD016C0D7D1D8E1D9F1D03C063
:100E000060E070E0CB010E940A1D20E030E048EC79
:100E100052E40E94801EAB01BC01CE014A960E94A2
:100E2000970C60E871E0CE014A960E94F80C8EE0C3
:100E30000E94930EBC01CE014A960E94C80C66E83F
:100E400071E0CE014A960E94F80C8FE00E94930E4A
:100E5000BC01CE014A960E94C80C6CE871E0CE013C
:100E60004A960E94F80C80E10E94930EBC01CE01CC
:100E70004A960E94C80C62E971E0CE014A960E942F
:100E8000F80C84E10E94930E24E6AC01249FC0017B
:100E9000259F900D11244AE0DE0111967D01BD01D0
:100EA000892F8695869590E00E947A1AF701019025
:100EB0000020E9F73197AF014E195F09B701CE0164
:100EC0004A960E943D0C68E971E0CE014A960E9464
:100ED000F80C60E070E0CE014A960E94C80C6EE902
:100EE00071E0CE014A960E94F80CF80144815581C8
:100EF00060817181CE014A960E943D0C64EA71E0E6
:100F0000CE014A960E94F80CCE014A960E946813C0
:100F100066EA71E0CE0180960E94430DBE01605EDC
:100F20007F4FC7010E943A0D6FEA71E0C7010E942E
:100F30006B0CBE01665E7F4F0E94840CBC01CE012B
:100F400044960E943A0DC7010E94350D61EB71E095
:100F5000CE010E960E94430D888D998D87960E9432
:100F60004A1F8C01BE016C5E7F4FC7010E943A0D83
:100F7000D980CA80BE01625F7F4FCE0108960E9471
:100F8000C803CF92DF9289858F9388858F9389EBF1
:100F900091E09F938F931F930F930E946A21CE013C
:100FA00008960E94350DC7010E94350DB801CE018B
:100FB00008960E94430DBE01685F7F4FC7010E94E3
:100FC0006F028A818F9389818F931F930F9383EC94
:100FD00091E09F938F931F930F930E946A21C70103
:100FE0000E94350DCE0108960E94350D0E94161301
:100FF00068EC70E080E090E00E94AA0E0E94551319
:10100000C8010E944213B80189EA93E00E949E0D34
:101010000E942C1368EC70E080E090E00E94AA0E21
:101020000E94AD02C8010E94DF1FCE010E960E94F1
:10103000350DCE0144960E94350DCE0180960E945A
:10104000350DCE014A960E94350D0FB6F894DEBFDD
:101050000FBECDBF68EE73E080E090E00E94AA0E64
:10106000E0E0F0E00995AF960FB6F894DEBF0FBE52
:10107000CDBFDF91CF911F910F91FF90EF90DF9047
:10108000CF90BF90AF909F908F907F906F905F9028
:101090004F903F902F9008958F929F92AF92BF9262
:1010A000CF92DF92EF92FF920F931F93CF93DF9334
:1010B000CDB7DEB768970FB6F894DEBF0FBECDBFD1
:1010C0008C017B016A015901BC0185EF93E00E940C
:1010D0001E0DB7018FEE93E00E941E0DB60189EE42
:1010E00093E00E941E0DB50183EE93E00E941E0D59
:1010F00080910402811135C080900002909001021D
:10110000B501CE0143960E943A0DB601CE010D966F
:101110000E943A0DB701CE0107960E943A0DB80120
:10112000CE0101960E943A0D9E012D5E3F4FAE0109
:10113000435F5F4FBE01695F7F4FCE010196F401AF
:101140000995CE0101960E94350DCE0107960E94A9
:10115000350DCE010D960E94350DCE0143960E94AD
:10116000350D68960FB6F894DEBF0FBECDBFDF9188
:10117000CF911F910F91FF90EF90DF90CF90BF9094
:10118000AF909F908F900895CF92DF92EF92FF9251
:101190000F931F93CF93DF936B01FC01E484F584DD
:1011A000EC0100E010E00E151F0561F0B601CE0164
:1011B0000E940B0C2696882311F0C80105C00F5F12
:1011C0001F4FF1CF8FEF9FEFDF91CF911F910F91C5
:1011D000FF90EF90DF90CF9008950F931F93CF93E0
:1011E000DF93CDB7DEB768970FB6F894DEBF0FBEBA
:1011F000CDBF8C0140E050E064E20E94D00B8F3FF5
:101200002FEF920709F472C09C0140E050E0B80152
:10121000CE0143960E94580D40E050E064E2C801C0
:101220000E94D00BF80124813581AC014F5F5F4FE4
:10123000B801CE010D960E94580D68EC71E0CE0108
:1012400001960E94430DBE016F5F7F4F85ED93E0D5
:101250000E94C408019661F4BE016D5E7F4F85ED6A
:1012600093E00E94C40811E0019619F410E001C057
:1012700011E0CE0101960E94350D112379F1BE01D6
:101280006D5E7F4F8FEC93E00E941E0DBE01635F89
:101290007F4F89EC93E00E941E0D00910202109195
:1012A0000302BE01635F7F4FCE0107960E943A0D95
:1012B000BE016D5E7F4FCE0101960E943A0DBE01C8
:1012C000695F7F4FCE010196F8010995CE01019625
:1012D0000E94350DCE0107960E94350DCE010D9668
:1012E0000E94350DCE0143960E94350D68960FB6CB
:1012F000F894DEBF0FBECDBFDF91CF911F910F914C
:101300000895AF92BF92CF92DF92EF92FF920F9328
:101310001F93CF93DF9300D000D000D0CDB7DEB7BE
:101320008C016B01FC0184859585029749F5B80114
:10133000CE0101960E943A0DF80184859585892B8E
:10134000D9F0C801EE24E394F12CF8012485358509
:101350005C01F6E0AF0EB11CE216F30640F4B501F5
:101360000E941E0DFFEFEF1AFF0AC501EECF2150BC
:101370003109F80135872487CE0101960E94350D89
:10138000F8012485358546E0429FC001439F900DBA
:101390001124B601800F911F0E941E0DF801848553
:1013A000958501969587848726960FB6F894DEBFBB
:1013B0000FBECDBFDF91CF911F910F91FF90EF90A6
:1013C000DF90CF90BF90AF900895EF92FF920F9370
:1013D0001F93CF93DF93EC016EEF71E00E94430DFA
:1013E0006EEF71E0CE0106960E94430D1D861C86AD
:1013F0007E0100E010E08C859D850817190758F4E0
:101400006EEF71E0C7010E94070D0F5F1F4F86E06E
:10141000E80EF11CF0CFDF91CF911F910F91FF905B
:10142000EF900895CF92DF92EF92FF920F931F9368
:10143000CF93DF936C017A018B01C0E0D0E0CE1531
:10144000DF0589F0D8016D918D01D601ED91FC91F8
:101450000190F081E02DC6010995892B11F47E01E0
:1014600002C02196ECCFC701DF91CF911F910F9160
:10147000FF90EF90DF90CF900895FC01538D448D45
:10148000252F30E0842F90E0821B930B541710F02F
:10149000CF96089501970895FC01918D828D98173C
:1014A00061F0828DDF01A80FB11D5D968C91928D48
:1014B0009F5F9F73928F90E008958FEF9FEF089545
:1014C000FC01918D828D981731F0828DE80FF11D0E
:1014D000858D90E008958FEF9FEF0895FC01918D29
:1014E000228D892F90E0805C9F4F821B91098F7322
:1014F0009927089580E093E00E946E0A21E0892BED
:1015000009F420E0822F0895FC01848DDF01A80FEB
:10151000B11DA35ABF4F2C91848D90E001968F731B
:101520009927848FA689B7892C93A089B1898C913A
:1015300080648C93938D848D981306C00288F38900
:10154000E02D80818F7D80830895EF92FF920F932D
:101550001F93CF93DF93EC0181E0888F9B8D8C8D5F
:10156000981305C0E889F989808185FD24C0F62E8D
:101570000B8D10E00F5F1F4F0F731127E02E8C8D26
:10158000E8120CC00FB607FCFACFE889F989808110
:1015900085FFF5CFCE010E94840AF1CF8B8DFE012D
:1015A000E80FF11DE35AFF4FF0820B8FEA89FB89A8
:1015B0008081806207C0EE89FF896083E889F989AC
:1015C00080818064808381E090E0DF91CF911F91E2
:1015D0000F91FF90EF900895CF93DF93EC01888DEA
:1015E0008823C9F0EA89FB89808185FD05C0A88927
:1015F000B9898C9186FD0FC00FB607FCF5CF8081AD
:1016000085FFF2CFA889B9898C9185FFEDCFCE01F6
:101610000E94840AE7CFDF91CF91089580E090E0A7
:10162000892B29F00E947A0A81110C9400000895F8
:101630003FB7F89480915E0290915F02A0916002A2
:10164000B091610226B5A89B05C02F3F19F0019605
:10165000A11DB11D3FBFBA2FA92F982F8827820F38
:10166000911DA11DB11DBC01CD0142E0660F771F88
:10167000881F991F4A95D1F70895089585ED8093A5
:10168000BC008091BC0084FDFCCF1092AC02089598
:101690000895E091AE028091AD02E81730F4F0E0D9
:1016A000E155FD4F808190E008958FEF9FEF089501
:1016B0009091AE028091AD02981750F4E92FF0E0BE
:1016C000E155FD4F208130E09F5F9093AE0202C054
:1016D0002FEF3FEFC90108958091AD0290E0209176
:1016E000AE02821B910908950E9441210F931F931E
:1016F000CF93DF93EC0188819981009729F02A81AB
:101700003B812617370788F48B016F5F7F4F0E945C
:101710007720009761F0998388831B830A832C814B
:101720003D81232B11F4FC01108281E001C080E097
:10173000DF91CF911F910F910895CF93DF93EC012B
:1017400088819981009711F00E94DF1F1982188209
:101750001D821C821B821A82DF91CF910895EF9225
:10176000FF920F931F93CF93DF93EC017B018A01CC
:10177000BA010E94760B811104C0CE010E949D0B1C
:1017800007C01D830C83B701888199810E94632162
:10179000CE01DF91CF911F910F91FF90EF900895AF
:1017A000CF93DF93FC01248135814217530778F4EE
:1017B000C081D181062E000C770BCE01840F951FBE
:1017C0000E944F21009719F08C1B9D0B02C08FEFD8
:1017D0009FEFDF91CF910895FC0124813581232B68
:1017E00031F421E061157105A1F0FB0108C0FC0195
:1017F000808191816115710531F421E0FC018081C6
:10180000882339F005C00E945A2121E0892B09F074
:1018100020E0822F0895FC0124813581FB01448161
:1018200055812417350721F5FC0180819181FB0149
:1018300060817181009719F061157105A1F461153E
:10184000710549F0232BB1F0FB01808190E0919567
:10185000819591090AC0009769F0232B59F0FC018A
:10186000808190E002C00E945A2121E0892B19F06A
:1018700020E001C021E0822F0895EF92FF920F93A4
:101880001F93CF93DF93FC0124813581611571058E
:1018900011F480E019C041155105A9F07B01EC015C
:1018A0008A01020F131FB8010E94760B882389F367
:1018B000288139818C819D81B701820F931F0E94FD
:1018C00063211D830C8381E0DF91CF911F910F91E4
:1018D000FF90EF900895CF93DF93EC0161157105B0
:1018E00061F0FB0101900020E9F73197AF01461B41
:1018F000570B0E943D0C811103C0CE010E949D0B2D
:10190000CE01DF91CF910895CF93DF93EC01FB01DE
:1019100044815581608171810E943D0C811103C019
:10192000CE010E949D0BCE01DF91CF910895EF92E1
:10193000FF920F931F93CF93DF93CDB7DEB76497DA
:101940000FB6F894DEBF0FBECDBF7C01CB01BA014C
:101950008E010F5F1F4F22E044E00E94131ABC016A
:10196000FC0101900020E9F73197AF01481B590BAA
:10197000C7010E943D0C64960FB6F894DEBF0FBEFF
:10198000CDBFDF91CF911F910F91FF90EF90089500
:10199000EF92FF920F931F93CF93DF93CDB7DEB7F4
:1019A00028970FB6F894DEBF0FBECDBF7C01CB01E8
:1019B0004AE08E010F5F1F4FB8010E945A1AF801CA
:1019C00001900020E9F73197AF01401B510BB8019E
:1019D000C7010E943D0C28960FB6F894DEBF0FBEDB
:1019E000CDBFDF91CF911F910F91FF90EF900895A0
:1019F0006115710551F0FB0101900020E9F7319765
:101A0000AF01461B570B0C943D0C80E00895CF931B
:101A1000DF93EC016115710559F0FB010190002085
:101A2000E9F73197AF01461B570B0E94AF0B02C07D
:101A30000E949D0BCE01DF91CF910895CF93DF934C
:101A4000EC01FB018617970761F0608171816115D8
:101A5000710529F0448155810E94AF0B02C00E949C
:101A60009D0BCE01DF91CF910895FC018081918182
:101A70000C94DF1FFC0111821082138212821582E6
:101A800014820C941E0DFC011182108213821282AA
:101A9000158214826115710551F0FB01019000203F
:101AA000E9F73197AF01461B570B0C94AF0B089524
:101AB000BF92CF92DF92EF92FF920F931F93CF933B
:101AC000DF937C016B018A01E9012417350720F4BB
:101AD000812F8901C42FD82F6EEF71E0C7010E94BA
:101AE000430DD60114968D919C91159708171907EF
:101AF000D0F48C179D0708F4EC01D601ED91FC9110
:101B00001197EC0FFD1FB08010824D915C91BA01CE
:101B1000600F711FC7010E94070DD601ED91FC9166
:101B2000EC0FFD1FB082C701DF91CF911F910F9184
:101B3000FF90EF90DF90CF90BF90089561157105F1
:101B400079F0FB0101900020E9F73197AF01461BC6
:101B5000570BDC01ED91FC910280F381E02D09949B
:101B600080E090E008951F920F920FB60F9211241B
:101B70002F933F934F935F936F937F938F939F9395
:101B8000AF93BF93EF93FF9380E093E00E94840AAA
:101B9000FF91EF91BF91AF919F918F917F916F9145
:101BA0005F914F913F912F910F900FBE0F901F901B
:101BB00018951F920F920FB60F9211242F938F93A7
:101BC0009F93EF93FF93E0911003F09111038081B5
:101BD000E0911603F091170382FD12C0908180916D
:101BE00019038F5F8F7320911A03821751F0E091D0
:101BF0001903F0E0E050FD4F958F8093190301C069
:101C00008081FF91EF919F918F912F910F900FBE47
:101C10000F901F90189590E0FC01E256FE4F349112
:101C2000FC01E459FE4F2491FC01E058FE4FE49181
:101C3000EE2309F43BC0332339F1333091F038F40B
:101C40003130A9F0323001F584B58F7D12C03730C4
:101C500091F03830A1F03430B9F4809180008F7D5C
:101C600003C0809180008F77809380000DC084B581
:101C70008F7784BD09C08091B0008F7703C08091B9
:101C8000B0008F7D8093B000F0E0EE0FFF1FEC56A8
:101C9000FE4FA591B4918FB7F894EC91611103C0F8
:101CA00020952E2301C02E2B2C938FBF0895CF9308
:101CB000DF9390E0FC01E459FE4F2491FC01E058D1
:101CC000FE4F8491882361F190E0880F991FFC01F9
:101CD000EE59FE4FC591D491FC01EC56FE4FA591F3
:101CE000B491611109C09FB7F8948881209582232F
:101CF0008883EC912E230BC0623061F49FB7F89477
:101D00003881822F809583238883EC912E2B2C930E
:101D10009FBF06C08FB7F894E8812E2B28838FBF12
:101D2000DF91CF9108958E3008F08E5087708064D7
:101D300080937C0080917A00806480937A00809107
:101D40007A0086FDFCCF809178002091790090E0A8
:101D5000922B08958F929F92AF92BF92CF92DF9273
:101D6000EF92FF926B017C010E94180B4B015C010A
:101D7000C114D104E104F104F1F00E94180BDC015C
:101D8000CB0188199909AA09BB09883E9340A1058E
:101D9000B10570F321E0C21AD108E108F10888EE1C
:101DA000880E83E0981EA11CB11CC114D104E1046B
:101DB000F10419F7DDCFFF90EF90DF90CF90BF9047
:101DC000AF909F908F9008952FB7F89460915A022A
:101DD00070915B0280915C0290915D022FBF08952B
:101DE0001F920F920FB60F9211242F933F938F9350
:101DF0009F93AF93BF9380915A0290915B02A09101
:101E00005C02B0915D023091590223E0230F2D371F
:101E100020F40196A11DB11D05C026E8230F0296EE
:101E2000A11DB11D2093590280935A0290935B0229
:101E3000A0935C02B0935D0280915E0290915F027C
:101E4000A0916002B09161020196A11DB11D809325
:101E50005E0290935F02A0936002B0936102BF9113
:101E6000AF919F918F913F912F910F900FBE0F9047
:101E70001F9018951F920F920FB60F9211242F9357
:101E80003F934F935F936F937F938F939F93AF9302
:101E9000BF93EF93FF93E0910201F0910301099545
:101EA000FF91EF91BF91AF919F918F917F916F9132
:101EB0005F914F913F912F910F900FBE0F901F9008
:101EC00018951F920F920FB60F9211242F933F93E4
:101ED0004F935F936F937F938F939F93AF93BF9332
:101EE000EF93FF93E0910001F09101010995FF91BB
:101EF000EF91BF91AF919F918F917F916F915F9182
:101F00004F913F912F910F900FBE0F901F901895FA
:101F10001F920F920FB60F9211242F933F934F935E
:101F20005F936F937F938F939F93AF93BF93EF9341
:101F3000FF938091B900887F803609F49CC068F5D2
:101F4000883209F45BC090F4803109F454C038F44D
:101F5000882309F4F6C0883009F44DC0F6C08831F2
:101F600009F44CC0803209F45DC0EFC0803409F43C
:101F700068C048F4803309F455C0883309F0E5C0DF
:101F80008093AA02D8C0803509F44FC0883509F47F
:101F90005DC0883409F0D9C0D6C0883909F4C7C0FB
:101FA000A8F4883709F467C038F4883609F463C0A8
:101FB000803709F460C0C9C0883809F4B8C08039D6
:101FC00009F45FC0803809F0C0C05BC0803B09F4F1
:101FD00086C038F4803A09F466C0883A09F47FC0B4
:101FE000B4C0803C09F4A7C0883C09F4A4C0883B75
:101FF00009F48AC0AAC08091A70210C09091A902DA
:102000008091A802981770F5E091A90281E08E0FE7
:102010008093A902F0E0EA57FD4F80818093BB00D6
:1020200085EC86C08093AA028EC0E091A90281E06F
:102030008E0F8093A9028091BB00F0E0EA57FD4F1C
:1020400080839091A9028091A8026EC0E091A902BC
:1020500081E08E0F8093A9028091BB00F0E0EA57E7
:10206000FD4F80838091AB0281116DC081E0809330
:10207000A60284EA61C083E08093AC021092580209
:10208000CFCF80915802803208F051C0E0915802C1
:1020900081E08E0F809358028091BB00F0E0E85CF5
:1020A000FD4F8083BDCF85EC8093BC001092AC02C5
:1020B00080915802803230F4E0915802F0E0E85C00
:1020C000FD4F10826091580270E0E0913602F0916D
:1020D000370288E392E009951092580236C084E0F6
:1020E0008093AC021092350210923402E0913202D9
:1020F000F0913302099580913402811105C081E08D
:102100008093340210921202E091350281E08E0F2A
:1021100080933502F0E0EE5EFD4F80818093BB003E
:102120009091350280913402981708F479CF85E8B0
:102130008093BC000AC085EC8093BC001092AC0276
:1021400004C01092AA020E943E0BFF91EF91BF9132
:10215000AF919F918F917F916F915F914F913F913F
:102160002F910F900FBE0F901F9018954091340241
:10217000262F30E0240F311D21323105DCF420916F
:10218000AC022430C9F4FC0180E090E0861758F4DA
:10219000309134022191DC01AE5EBD4FA30FB11D21
:1021A0002C930196F3CF80913402680F6093340230
:1021B00080E0089581E0089582E00895CF92DF9253
:1021C000EF92FF920F931F93CF93DF937C01262F03
:1021D000972F8A0180916202882391F0C62FD72F12
:1021E0006E01C40ED51ECC15DD0571F06991D701C5
:1021F000ED91FC910190F081E02DC7010995F3CF9D
:10220000642F822F0E94B610C801DF91CF911F91D9
:102210000F91FF90EF90DF90CF900895682F8DE998
:1022200093E00C9420018F929F92AF92BF92CF9235
:10223000DF92EF92FF92EFECF2E0448155814A0188
:10224000A12CB12C6B017C0124E0F594E794D79488
:10225000C7942A95D1F7C818D908EA08FB08DC0109
:10226000CB0133E0B595A795979587953A95D1F72A
:10227000B501A401440F551F661F771F4C015D0176
:10228000841A950AA60AB70AA5019401A681B78106
:102290000E94101E4B015C013BE0B594A7949794FB
:1022A00087943A95D1F7A7019601C701B6010E941C
:1022B000281F9B01AC016CE05595479537952795F4
:1022C0006A95D1F7A085B1850E94101EDC01CB0173
:1022D0007EE0B595A795979587957A95D1F7A50155
:1022E0009401280F391F4A1F5B1F208331834283CB
:1022F0005383A5E0B0E00E94051EDC01CB018058AD
:102300009F4FAF4FBF4F692F7A2F8B2F992787FD94
:102310009A95FF90EF90DF90CF90BF90AF909F90F5
:102320008F9008959091AC029111FCCF613208F02A
:1023300060E291E09093AC029093AB022FEF209378
:10234000AA021092A902260F2093A8029093A70236
:102350009091A702880F892B8093A7028091A602F3
:10236000813061F41092A6028091A7028093BB0095
:102370008091BC0083FDF8CF85EC01C085EE809391
:10238000BC008091AC028130E1F38091A9028617F4
:1023900010F46091A902A6E8B2E02FEA32E0F90158
:1023A0008E2F821B861718F48D918193F9CF10928E
:1023B000AE026093AD02862F089520918502909120
:1023C0008402213208F04AC08091AC028111FCCF16
:1023D00032E03093AC0231E03093AB023FEF309308
:1023E000AA021092A9022093A802A4E6B2E046E84D
:1023F00052E0FA013E2F341B321718F43D9131930D
:10240000F9CF1092A7022091A702990F922B9093D7
:10241000A7029091A602913061F41092A6029091C9
:10242000A7029093BB009091BC0093FDF8CF95EC70
:1024300001C095EE9093BC009091AC029230E1F314
:102440009091AA029F3F79F08091AA02803241F0D8
:102450008091AA02803331F084E005C081E003C09E
:1024600082E001C083E01092630210928502109214
:10247000620208950F931F93CF93DF93CDB7DEB71A
:10248000A0970FB6F894DEBF0FBECDBF81E080935A
:10249000620286E7809384021092630210928502A2
:1024A00087EF90E00E940E110E94DD1168E070E05D
:1024B00086E790E00E9492118E010F5F1F4F90916E
:1024C000AD028091AE02981779F08DE993E00E94F9
:1024D000580B092E000CAA0BBB0BF80181939193AA
:1024E000A193B1938F01EBCF8D819E81AF81B88590
:1024F000AC01BD0184E0440F551F661F771F8A950C
:10250000D1F789819A81AB81BC812CE0880F991F1A
:10251000AA1FBB1F2A95D1F7842B952BA62BB72B6F
:1025200049855A856B857C8534E076956795579506
:1025300047953A95D1F7842B952BA62BB72B8093F3
:10254000FC029093FD02A093FE02B093FF028989E2
:102550009A89AB89BC89AC01BD01E4E0440F551FE9
:10256000661F771FEA95D1F78D859E85AF85B8895F
:10257000FCE0880F991FAA1FBB1FFA95D1F7842B87
:10258000952BA62BB72B4D895E896F89788D14E02A
:1025900076956795579547951A95D1F7842B952B86
:1025A000A62BB72B8093F8029093F902A093FA021E
:1025B000B093FB02898D9A8DAB8DBC8DBA2FA92F5C
:1025C000982F88274D8D5E8D6F8D78A1842B952B4C
:1025D000A62BB72B8093F4029093F502A093F602FA
:1025E000B093F702A0960FB6F894DEBF0FBECDBF32
:1025F000DF91CF911F910F910895CF93C62F91E056
:102600009093620296E79093840210926302109274
:102610008502682F8DE993E00E9420016C2F8DE9DF
:1026200093E00E942001CF910C94DD1141E861E814
:1026300089EA93E00C944F011092C6031092C503EF
:102640006DE189EA93E00E947E01482F4E7F6DE99B
:1026500089EA93E00C944F0143E861E889EA93E04A
:102660000E944F0162E189EA93E00E947E0183FFAC
:10267000F9CF48E062E989EA93E00E944F0181E0E6
:1026800090E00895CF93DF93BC0180E093E00E9437
:102690009E0DEC016CEF71E080E093E00E949E0DD6
:1026A0008C0F9D1FDF91CF9108950E9416130E94F9
:1026B0001C1340E06DE889EA93E00E944F0140E07E
:1026C00062EA89EA93E00E944F0181E090E0089578
:1026D000CF93DF93FC01448155816081718180E05B
:1026E00093E00E94120AEC016CEF71E080E093E04D
:1026F0000E949E0D8C0F9D1FDF91CF91089589EC54
:1027000093E00E94350D8FEC93E00E94350D8BED28
:1027100093E00E94350D85ED93E00E94350D83EE28
:1027200093E00E94350D89EE93E00E94350D8FEE07
:1027300093E00E94350D85EF93E00E94350D8BEFFD
:1027400093E00E9459028BE094E00E94350D85E0F1
:1027500094E00E94350D89E194E00E94350D83E1FB
:1027600094E00C94350DCF93DF93CDB7DEB7EE97A1
:102770000FB6F894DEBF0FBECDBF789484B58260EB
:1027800084BD84B5816084BD85B5826085BD85B515
:10279000816085BD80916E00816080936E00109293
:1027A000810080918100826080938100809181000E
:1027B000816080938100809180008160809380009F
:1027C0008091B10084608093B1008091B0008160FD
:1027D0008093B00080917A00846080937A00809129
:1027E0007A00826080937A0080917A008160809381
:1027F0007A0080917A00806880937A001092C100FC
:10280000E0911003F091110382E08083E0910C03CA
:10281000F0910D031082E0910E03F0910F0380E11F
:10282000808310921803E0911403F091150386E061
:102830008083E0911203F091130380818061808393
:10284000E0911203F0911303808188608083E0910E
:102850001203F0911303808180688083E09112035A
:10286000F091130380818F7D808360E08EE00E9471
:10287000570E60E08FE00E94570E60E081E10E94F9
:10288000570E60E085E10E94570E1092AE02109242
:10289000AD0210926302109285021092AC0281E0A8
:1028A0008093AB021092A60261E082E10E940B0EBF
:1028B00061E083E10E940B0E8091B9008E7F8093CE
:1028C000B9008091B9008D7F8093B90088E480932E
:1028D000B80085E48093BC0061E08091B9030E9458
:1028E000570E61E08091B9030E940B0E8091BB03EB
:1028F0009091BC038F3F2FEF9207C9F061E00E94D7
:10290000570E60E08091BB030E940B0E6AE070E0FE
:1029100080E090E00E94AA0E61E08091BB030E94DB
:102920000B0E6AE070E080E090E00E94AA0E1FB7F4
:10293000F89480910502811127C0EAE8F1E08491C2
:10294000E6E7F1E09491E82FF0E0EE0FFF1FEE597B
:10295000FE4FA591B491EC91E92321F461E08AE066
:102960000E940B0E61E08AE00E94570E8CB58061D8
:102970008CBD8CB580648CBD61E08DE00E94570EEB
:1029800061E08BE00E94570E809105028F5F80937B
:1029900005021FBF62E489EA93E00E947E01823152
:1029A00009F082C440E861E889EA93E00E944F019F
:1029B00080E49EE0AFECB9E18093BF039093C00345
:1029C000A093C103B093C2034CE666E889EA93E0A2
:1029D0000E944F0140E467E889EA93E00E944F01BA
:1029E00040E068E889EA93E00E944F0140E06EE829
:1029F00089EA93E00E944F0140E06FE889EA93E0A2
:102A00000E944F016CE089EA93E00E947E01482F0A
:102A100043606CE889EA93E00E944F0144E066EA73
:102A200089EA93E00E944F014FE869E889EA93E060
:102A30000E944F010E9416130E94AD028DEE98E095
:102A4000909301028093000268EC71E0CE01019640
:102A50000E94430DBE016F5F7F4F85ED93E00E94A2
:102A60008109CE0101960E94350D88EF93E0909385
:102A700003028093020261E082EF0E94FD1267E28E
:102A800084EF0E94FD1260EA85EF0E94FD1281E052
:102A90008093620286E78093840210926302109210
:102AA000850288E890E00E940E110E94DD1168E125
:102AB00070E086E790E00E94921110E09091AD02E4
:102AC0008091AE02E12EF12C1F5F981761F08DE925
:102AD00093E00E94580BE1E0F0E0EC0FFD1FEE0DDB
:102AE000FF1D8083EBCFDD24D394D092620206E7F2
:102AF00000938402109263021092850281EA90E0B2
:102B00000E940E110E94DD1161E070E086E790E006
:102B10000E9492118DE993E00E94580BE1E0F0E0F1
:102B2000EC0FFD1FEE0DFF1D8083D092620200931B
:102B30008402109263021092850281EE90E00E945E
:102B40000E110E94DD1167E070E086E790E00E94C0
:102B500092119091AD028091AE02981769F08DE9C3
:102B600093E00E94580BE1E0F0E0EC0FFD1FE10F55
:102B7000F11D80831F5FEDCF8A8190E0982F882719
:102B80002981822B9093D4028093D3028C8190E090
:102B9000982F88272B81822B9093D6028093D50281
:102BA0008E8190E0982F88272D81822B9093D802D8
:102BB0008093D702888590E0982F88272F81822BD9
:102BC0009093DA028093D9028A8590E0982F882723
:102BD0002985822B9093DC028093DB028C8590E028
:102BE000982F88272B85822B9093DE028093DD021D
:102BF0008E8590E0982F88272D85822B9093E00278
:102C00008093DF02888990E0982F88272F85822B78
:102C10009093E2028093E1028A8990E0982F8827BE
:102C20002989822B9093E4028093E3028C8990E0BF
:102C3000982F88272B89822B9093E6028093E502B8
:102C40008E8990E0982F88272D89822B9093E80217
:102C50008093E702888D90E0982F88272F89822B18
:102C60009093EA028093E902898D8093EB028B8D29
:102C700090E0982F88272A8D822B9093ED028093E5
:102C8000EC028C8D8093EE022E8D322F3F708D8D55
:102C900040E1849FC0011124832B9093F002809324
:102CA000EF0222952F708F8DE0E18E9FC0011124DD
:102CB000822B9093F2028093F10288A18093F30219
:102CC0008AEC91E00E944213E12CF12C36E0B32E05
:102CD0000E94E40E61327F4B8240910510F0F701B3
:102CE000099562E189EA93E00E947E01182F0E9413
:102CF0001C13412F62E989EA93E00E944F0116FFFD
:102D00002CC015FD2AC01092C4031092C3038091F9
:102D1000C5039091C603892B11F062E201C063E103
:102D200089EA93E00E947E01082F10E060E189EAC1
:102D300093E00E947E01482F6DE889EA93E00E94AB
:102D40004F010E941613012B09F4F4C16EEF71E0DC
:102D5000CE01C9960E94430D15C061E089EA93E057
:102D60000E947E01863809F4E5C140E06DE889EAF9
:102D700093E00E944F0146E861E889EA93E00E94EF
:102D80004F01D8C189EA93E00E94CB01892B81F0E1
:102D900089EA93E00E94B00189831A8241E050E001
:102DA000BE016F5F7F4FCE01C9960E943D0CEACFF6
:102DB0002DAD3EAD2150310940E050E0BE01675CD1
:102DC0007F4FCE0187960E94580DBE01695D7F4FEF
:102DD000CE0101960E946F022DAD3EADA90141507A
:102DE0005109BE01675C7F4FCE0181960E94580D4C
:102DF000BE016F5F7F4FCE0181960E940B0C182F92
:102E0000CE0181960E94350DCE0101960E94350DAE
:102E1000CE0187960E94350D112309F487C1BE01AA
:102E2000675C7F4FCE0101960E94A50368E471E0C4
:102E3000CE0101960E94EC0B811115C0BE01675CAA
:102E40007F4FCE0181960E94A50361EB71E0CE0118
:102E500081960E94EC0B11E0811110E0CE01819669
:102E60000E94350D01C010E0CE0101960E94350D83
:102E700011115CC1BE01675C7F4FCE0101960E94BB
:102E8000620364ED71E0CE0101960E94EC0B182FF5
:102E9000CE0101960E94350D1123C1F164ED71E060
:102EA000CE018D960E94430DBE01675C7F4FCE011F
:102EB00087960E94A503BE01675C7F4FCE01819675
:102EC0000E947B03BE01675C7F4FCE0101960E948A
:102ED00017039E01235D3F4FAE01495D5F4FBE0169
:102EE0006F5D7F4FCE0101960E944C08CE01019686
:102EF0000E94350DCE0181960E94350DCE01879638
:102F00000E94350DCE018D960E94350DBE01675C85
:102F10007F4FCE0101960E9462036FED71E0CE01FA
:102F200001960E94EC0B182FCE0101960E94350DE0
:102F3000112309F4B0C0BE01675C7F4F85E094E0C7
:102F40000E948109BE01675C7F4FCE0101960E94FD
:102F5000DF02BE01675C7F4FCE0187960E947B0334
:102F6000BE01695D7F4FCE0181960E94C80368ED66
:102F700071E0CE018D960E94430DBE016F5D7F4FC3
:102F8000CE018D960E94840CBE016F5F7F4F0E9420
:102F9000840C6CED71E00E946B0CBC01CE01C396F9
:102FA0000E943A0DCE018D960E94350DCE0181967C
:102FB0000E94350DCE0187960E94350DCE010196F7
:102FC0000E94350DBE016D5C7F4FCE0101960E94BF
:102FD0006F024D815E8169817A81CE01C3960E9424
:102FE0003D0CCE0101960E94350DCE01C3960E9484
:102FF000B502CE01C3960E94350DBE01675C7F4FBE
:1030000085E094E00E94C408019609F08FC06FED3E
:1030100071E0CE018D960E94430DBE01675C7F4F2B
:10302000CE0187960E94A503BE01675C7F4FCE014B
:1030300081960E947B03BE01675C7F4FCE010196A3
:103040000E9417039E01235D3F4FAE01495D5F4F14
:10305000BE016F5D7F4FCE0101960E944C08CE01EC
:1030600001960E94350DCE0181960E94350DCE014C
:1030700087960E94350DCE018D960E94350D809168
:10308000110490911204069734F060E070E085E03E
:1030900094E00E942402BE01675C7F4FCE0101963E
:1030A0000E9462036EED71E0CE0101960E94EC0B6E
:1030B000182FCE0101960E94350D1123B9F1BE01E2
:1030C000675C7F4FCE0181960E94170300E010E0FD
:1030D00080911F04909120040817190718F517FD17
:1030E00004C0081719070CF4E4C063E174E0CE01D2
:1030F00001960E94DF02BE016F5D7F4FCE010196F7
:103100000E940B0CD82ECE0101960E94350DDD20B9
:1031100031F0B80183E194E00E94240203C00F5F04
:103120001F4FD6CFCE0181960E94350DCE01C99694
:103130000E94350D80910A0281110DC00E94E40E9B
:10314000609306027093070280930802909309022D
:1031500081E080930A020E94E40E00910602109121
:1031600007022091080230910902DC01CB01801B8B
:10317000910BA20BB30B893E9340A105B10508F456
:1031800090C0812C912C00E010E080911F04909160
:1031900020040817190708F07AC017FD04C00817A3
:1031A00019070CF48EC083E1C82E84E0D82E63EE9C
:1031B00071E0CE0101960E94430DB601CE01019649
:1031C0000E94840C0E94B502CE0101960E94350D2A
:1031D0008091010490910204801791073CF0E091E6
:1031E000FD03F091FE03E80DF91D02C0E3E0F4E0F9
:1031F00080819181019691838083809101049091D7
:103200000204801791073CF0E091FD03F091FE036A
:10321000E80DF91D02C0E3E0F4E080819181F8013E
:1032200031966F01089770F1B80183E194E00E9434
:103230002402E091FD03F091FE03E80DF91D80E00A
:1032400090E02091010430910204A9014F5F5F4F8B
:10325000401B510B8417950734F4A601480F591FE2
:10326000241735074CF40C191D09200F311F30931A
:1032700002042093010406C02281338121933193FB
:103280000196DFCF8601F2E08F0E911C7ECF0E9467
:10329000E40E6093060270930702809308029093F5
:1032A00009020E940E0B14CD86EE91E00E9442139B
:1032B000FFCFB09EB001B19E700D11246D5E7B4FAB
:1032C00016CFB09EC001B19E900D11249C012D5EC1
:1032D0003B4F69016CCFCF93DF93E0E0F3E01382C3
:1032E000128288EE93E0A0E0B0E084839583A68309
:1032F000B7832EE031E03183208325EC30E0358741
:10330000248724EC30E03787268720EC30E0318BAF
:10331000208B21EC30E0338B228B22EC30E0358B9C
:10332000248B26EC30E0378B268B118E128E138E79
:10333000148EEDE9F3E01382128284839583A683D1
:10334000B78380E291E091838083E9EAF3E013821E
:10335000128282E391E09183808380E5848781E01B
:10336000858781E294E0978786878AE090E0918B59
:10337000808B89E090E0938B828B82E090E0958B4C
:10338000848B168A178A108E118E138E128E158ECC
:10339000148E178E168E148215821682178283E180
:1033A00094E00E94E50985E094E00E94E509CBEFF6
:1033B000D3E084E491E09983888380E090E00E94E8
:1033C0004A1F9B838A832FEF3FEF3F832E839D838A
:1033D0008C836EEF71E085EF93E00E94430D6EEFFA
:1033E00071E08FEE93E00E94430D6EEF71E089EE85
:1033F00093E00E94430D6EEF71E083EE93E00E9434
:10340000430D85ED93E00E94E5096EEF71E08FECCE
:1034100093E00E94430D6EEF71E089EC93E0DF9141
:10342000CF910C94430DEF920F931F93CF93DF93A3
:10343000E80147FD02C034E001C034E1E42F440F4D
:10344000FF0BF7FF03C0F195E195F109E32E022F81
:103450002E2FAE010E94941ACE01DF91CF911F91C1
:103460000F91EF9008951F93FC0199278827BC01C5
:10347000E89411911032E9F3193010F01E30C8F3BE
:103480001B3251F01D3249F4689406C00E94651A3F
:10349000610F711D811D911D119110531A30B0F3F0
:1034A0003EF490958095709561957F4F8F4F9F4F1B
:1034B0001F910895BB274A3031F4992322F4BDE2CD
:1034C000909581959F4F0C947B1A592F482F372F39
:1034D000262F660F771F881F991F660F771F881F7B
:1034E000991F620F731F841F951F660F771F881F18
:1034F000991F0895BB27FB015527AA27880F991FFD
:10350000AA1FA41710F0A41B83955051B9F7A05D12
:10351000AA3308F0A95DA193009779F7B111B1938F
:103520001192CB010C94FA1C4F925F926F927F9292
:103530009F92AF92BF92CF92DF92EF92FF920F9342
:103540001F93CF93DF93CDB7DEB729970FB6F894CB
:10355000DEBF0FBECDBF6A01122FB02E2BE32017A6
:1035600020F0FF24F394F00E02C0BCE3FB2E0F2DDD
:1035700027E0AE014F5F5F4F0E94221CAC018981A2
:10358000982F9970913031F0E1FC06C0E0FE06C042
:1035900090E205C09DE203C09BE201C090E0EE2DE9
:1035A000E07183FF3CC0911102C083E001C084E060
:1035B000811718F4212F281B01C020E0E1110BC056
:1035C000F601822F30E2882319F031938150FBCF2E
:1035D000C20ED11C20E0992329F0D6019C93F6015C
:1035E00031966F01C6010396E2FE0AC03EE4D601A1
:1035F0003C9341E411964C93119712963C9306C06C
:103600003EE6F601308341E641833283FC01322FEE
:1036100040E2332309F442C041933150FACF82FF94
:1036200044C0911102C083E001C084E0811718F406
:10363000212F281B01C020E0E1110BC0F601822FD1
:1036400030E2882319F031938150FBCFC20ED11C98
:1036500020E0992329F0D6019C93F60131966F0161
:10366000C6010396E2FE0BC039E4D6013C933EE46A
:1036700011963C93119736E412963C9307C039E6B5
:10368000F60130833EE6318336E63283FC01322F89
:1036900040E2332319F041933150FBCFFC01E20F9C
:1036A000F11D10828EEF9FEFB7C0F1E0911101C0C4
:1036B000F0E06F2F70E01416150624F49A012F5FC6
:1036C0003F4F02C021E030E0260F371FBB2029F01A
:1036D0006B2D70E06F5F7F4F02C060E070E0260FDF
:1036E000371F612F70E0261737071CF4121B212F9C
:1036F00001C020E03E2D387159F4D601322F60E22E
:10370000332319F06D933150FBCFC20ED11C20E052
:10371000FF2331F0D6019C93B6016F5F7F4F6B01A1
:10372000E1110BC0F601922F30E3992319F0319388
:103730009150FBCFC20ED11C20E09F2D940F3A81F7
:10374000782F7071A72E84FF03C0313309F4915094
:10375000191624F4993018F098E001C091E0E42F94
:10376000852F57FF02C0E0E080E06E2F782FE0E069
:10377000F0E0AEE29A2E3A01691A71082A01461A5F
:10378000570A0B2D10E01195019511096F3F8FEF2E
:10379000780729F4D6019C92C60101966C01461760
:1037A000570784F0661677066CF47F01E40CF51C6D
:1037B000A1E0B0E0AC0FBD1FEA0EFB1ED7011196D1
:1037C000BC9002C090E3B92E615071093196C601D8
:1037D00001967C016017710724F0D601BC926C0140
:1037E000D5CF6417750741F4363320F4353321F40F
:1037F000A11002C081E3B82EF601B082F701822F3A
:1038000090E2882319F091938150FBCFF701E20FEA
:10381000F11D108280E090E029960FB6F894DEBF8B
:103820000FBECDBFDF91CF911F910F91FF90EF9011
:10383000DF90CF90BF90AF909F907F906F905F9000
:103840004F900895283008F027E03327DA01990FC8
:10385000311D87FD916000966105710539F4326074
:103860002E5F3D9330E32A95E1F708959F3F30F0B6
:1038700080387105610509F03C5F3C5F3D939130F4
:1038800008F08068911DDF93CF931F930F93FF92F1
:10389000EF92192F987F9695E92F96959695E90FB7
:1038A000FF27EE53FF4F99273327EE24FF24A7016C
:1038B000E70105900894079428F4360FE71EF81ED8
:1038C000491F511D660F771F881F991F0694A1F786
:1038D0000590079428F4E70EF81E491F561FC11DD6
:1038E000770F881F991F661F0694A1F7059007940C
:1038F00028F4F80E491F561FC71FD11D880F991FA6
:10390000661F771F0694A1F70590079420F4490FCE
:10391000561FC71FD81F990F661F771F881F069451
:10392000A9F784911095177041F0D695C7955795D2
:103930004795F794E7941A95C1F7E8E6F0E06894A4
:103940001590159135916591959105907FE273954C
:10395000E118F10A430B560BC90BD009C0F7E10C73
:10396000F11E431F561FC91FD01D7EF4703311F482
:103970008A95E6CFE894015030F0080F0AF400274A
:10398000021708F4202F2395022F7A3328F079E3C9
:103990007D932A95E9F710C07D932A9589F60694C0
:1039A00097956795379517951794E118F10A430B8A
:1039B000560BC90BD00998F023957E9173957A33F5
:1039C00008F070E37C932013B8F77E9170617D93CB
:1039D00030F0839571E37D9370E32A95E1F711242C
:1039E000EF90FF900F911F91CF91DF91992787FD65
:1039F00090950895DC01FC01672F71917723E1F721
:103A0000329704C07C916D9370836291AE17BF07AB
:103A1000C8F30895E89409C097FB3EF4909580950B
:103A2000709561957F4F8F4F9F4F9923A9F0F92F84
:103A300096E9BB279395F695879577956795B79502
:103A4000F111F8CFFAF4BB0F11F460FF1BC06F5FE8
:103A50007F4F8F4F9F4F16C0882311F096E911C0FA
:103A6000772321F09EE8872F762F05C0662371F01B
:103A700096E8862F70E060E02AF09A95660F771F2F
:103A8000881FDAF7880F9695879597F908950E9411
:103A90005A1D0C94CB1D0E94BD1D38F00E94C41D00
:103AA00020F0952311F00C94B41D0C94BA1D112430
:103AB0000C94FF1D0E94DC1D70F3959FC1F3950FC0
:103AC00050E0551F629FF001729FBB27F00DB11DA2
:103AD000639FAA27F00DB11DAA1F649F6627B00D32
:103AE000A11D661F829F2227B00DA11D621F739F1B
:103AF000B00DA11D621F839FA00D611D221F749F29
:103B00003327A00D611D231F849F600D211D822F6F
:103B1000762F6A2F11249F5750409AF0F1F0882396
:103B20004AF0EE0FFF1FBB1F661F771F881F9150C3
:103B30005040A9F79E3F510580F00C94B41D0C94A1
:103B4000FF1D5F3FE4F3983ED4F386957795679524
:103B5000B795F795E7959F5FC1F7FE2B880F911DED
:103B60009695879597F9089597F99F6780E870E093
:103B700060E008959FEF80EC089500240A941616E3
:103B8000170618060906089500240A94121613064B
:103B9000140605060895092E0394000C11F48823D9
:103BA00052F0BB0F40F4BF2B11F460FF04C06F5FF5
:103BB0007F4F8F4F9F4F089557FD9058440F551FCB
:103BC00059F05F3F71F04795880F97FB991F61F09F
:103BD0009F3F79F087950895121613061406551F16
:103BE000F2CF4695F1DF08C0161617061806991F82
:103BF000F1CF86957105610508940895E894BB2777
:103C000066277727CB0197F908950E94711EA59F1B
:103C1000900DB49F900DA49F800D911D11240895C7
:103C2000B7FF0C94051E0E94051E821B930B08957E
:103C30002F923F924F925F926F927F928F929F92BC
:103C4000AF92BF92CF92DF92EF92FF920F931F93AA
:103C5000CF93DF93CDB7DEB7CA1BDB0B0FB6F8945B
:103C6000DEBF0FBECDBF09942A88398848885F849B
:103C70006E847D848C849B84AA84B984C884DF800C
:103C8000EE80FD800C811B81AA81B981CE0FD11DF0
:103C90000FB6F894DEBF0FBECDBFED010895A1E2CF
:103CA0001A2EAA1BBB1BFD010DC0AA1FBB1FEE1FB6
:103CB000FF1FA217B307E407F50720F0A21BB30B01
:103CC000E40BF50B661F771F881F991F1A9469F77D
:103CD00060957095809590959B01AC01BD01CF01D9
:103CE0000895A29FB001B39FC001A39F700D811DD5
:103CF0001124911DB29F700D811D1124911D0895F5
:103D00000E94941E0C94CB1D0E94C41D58F00E946A
:103D1000BD1D40F029F45F3F29F00C94B41D5111F2
:103D20000C94FF1D0C94BA1D0E94DC1D68F39923AE
:103D3000B1F3552391F3951B550BBB27AA276217A7
:103D40007307840738F09F5F5F4F220F331F441FB4
:103D5000AA1FA9F335D00E2E3AF0E0E832D09150E8
:103D60005040E695001CCAF72BD0FE2F29D0660FD5
:103D7000771F881FBB1F261737074807AB07B0E818
:103D800009F0BB0B802DBF01FF2793585F4F3AF01E
:103D90009E3F510578F00C94B41D0C94FF1D5F3FBD
:103DA000E4F3983ED4F3869577956795B795F795A4
:103DB0009F5FC9F7880F911D9695879597F908958C
:103DC000E1E0660F771F881FBB1F62177307840728
:103DD000BA0720F0621B730B840BBA0BEE1F88F737
:103DE000E09508950E94F91E6894B1110C94FF1D8E
:103DF00008950E94E41D88F09F5798F0B92F9927E5
:103E0000B751B0F0E1F0660F771F881F991F1AF0C5
:103E1000BA95C9F714C0B13091F00E94FE1DB1E00F
:103E200008950C94FE1D672F782F8827B85F39F00E
:103E3000B93FCCF3869577956795B395D9F73EF45E
:103E400090958095709561957F4F8F4F9F4F089506
:103E5000DB018F939F930E94051EBF91AF91A29F9C
:103E6000800D911DA39F900DB29F900D1124089578
:103E7000991B79E004C0991F961708F0961B881FBC
:103E80007A95C9F780950895EE0FFF1F0590F4917C
:103E9000E02D0994CF93DF938230910510F482E0F6
:103EA00090E0E0912404F091250420E030E0C0E0AF
:103EB000D0E0309711F14081518148175907C0F087
:103EC0004817590761F482819381209719F09B83E9
:103ED0008A832BC0909325048093240426C0211547
:103EE000310519F04217530718F49A01BE01DF019A
:103EF000EF010280F381E02DDCCF2115310509F1BE
:103F0000281B390B2430310590F412968D919C9129
:103F100013976115710521F0FB019383828304C01F
:103F20009093250480932404FD01329644C0FD0142
:103F3000E20FF31F81939193225031092D933C930B
:103F40003AC02091220430912304232B41F4209184
:103F5000060130910701309323042093220420911D
:103F60000401309105012115310541F42DB73EB70B
:103F70004091080150910901241B350BE091220466
:103F8000F0912304E217F307A0F42E1B3F0B281730
:103F9000390778F0AC014E5F5F4F2417350748F0C2
:103FA0004E0F5F1F509323044093220481939193FB
:103FB00002C0E0E0F0E0CF01DF91CF9108950F93D0
:103FC0001F93CF93DF93009709F48CC0FC013297C5
:103FD0001382128200912404109125040115110509
:103FE00081F420813181820F931F2091220430912E
:103FF00023042817390779F5F0932304E09322046A
:1040000071C0D80140E050E0AE17BF0750F41296DF
:104010002D913C911397AD012115310509F1D9017D
:10402000F3CF9D01DA013383228360817181860F92
:10403000971F8217930769F4EC0128813981260FB5
:10404000371F2E5F3F4F318320838A819B8193836B
:104050008283452B29F4F0932504E093240442C085
:104060001396FC93EE931297ED01499159919E019D
:10407000240F351FE217F30771F480819181840FBB
:10408000951F029611969C938E938281938113962D
:104090009C938E931297E0E0F0E0D80112968D91F8
:1040A0009C911397009719F0F8018C01F6CF8D9130
:1040B0009C9198012E5F3F4F820F931F2091220405
:1040C000309123042817390769F4309729F41092A6
:1040D00025041092240402C0138212821093230438
:1040E00000932204DF91CF911F910F910895A0E0DA
:1040F000B0E0EDE7F0E20C941C1EEC01009721F417
:10410000CB010E944A1FB8C0FC01E60FF71F9C01BB
:1041100022503109E217F30708F4ACC0D9010D9120
:104120001C91119706171707B0F00530110508F418
:104130009FC0C80104978617970708F499C00250DA
:104140001109061B170B019311936D937C93CF01FB
:104150000E94DF1F8DC05B01A01AB10A4C01800EC6
:10416000911EA0912404B091250440E050E0E12C80
:10417000F12C109709F44AC0A815B905D1F56D9036
:104180007C901197630182E0C80ED11CCA14DB0435
:1041900080F1A3014A195B096A0182E0C80ED11CB3
:1041A0001296BC9012971396AC91B5E0CB16D10441
:1041B00040F0B282A38351834083D9016D937C93F5
:1041C0000AC00E5F1F4FC301800F911FF901918339
:1041D0008083EB2DFA2FE114F10431F0D70113960F
:1041E000FC93EE93129744C0F0932504E0932404CB
:1041F0003FC08D919C9111974817590708F4AC0165
:104200007D0112960D90BC91A02DB3CF8091220418
:104210009091230488159905E1F446175707C8F4CF
:104220008091040190910501009741F48DB79EB7EC
:104230004091080150910901841B950BE817F9077B
:10424000C8F4F0932304E0932204F901718360839E
:104250000FC0CB010E944A1F7C01009759F0A801B2
:10426000BE010E944621CE010E94DF1FC70104C08B
:10427000CE0102C080E090E0CDB7DEB7EEE00C9456
:10428000381E81E090E0F8940C940B24FB01DC01D3
:1042900002C001900D9241505040D8F70895FC01A2
:1042A0008191861721F08823D9F7992708953197AE
:1042B000CF010895FB01DC018D910190801901105F
:1042C000D9F3990B0895FB01DC0101900D920020B8
:1042D000E1F70895AEE0B0E0E0E7F1E20C94261ECD
:1042E0000D891E8986E08C831A8309838FEF9FE7EF
:1042F0009E838D83AE01475E5F4F6F89788DCE01BF
:1043000001960E948D212F813885F801E20FF31F5D
:1043100010822E96E4E00C94421EACE0B0E0E3E99B
:10432000F1E20C94181E7C016B018A01FC011782DA
:104330001682838181FFBDC1CE0101964C01F70138
:104340009381F60193FD859193FF81916F018823FD
:1043500009F4ABC1853239F493FD859193FF8191C6
:104360006F01853229F4B70190E00E947523E7CFF1
:10437000512C312C20E02032A0F48B3269F030F443
:10438000803259F0833269F420612CC08D3239F0CB
:10439000803339F4216026C02260246023C0286065
:1043A00021C027FD27C030ED380F3A3078F426FFC2
:1043B00006C0FAE05F9E300D1124532E13C08AE030
:1043C000389E300D1124332E20620CC08E3221F421
:1043D00026FD6BC1206406C08C3611F4206802C033
:1043E000883641F4F60193FD859193FF81916F0129
:1043F0008111C1CF982F9F7D9554933028F40C5F85
:104400001F4FFFE3F9830DC0833631F0833771F01E
:10441000833509F05BC022C0F801808189830E5F7B
:104420001F4F44244394512C540115C03801F2E02D
:104430006F0E711CF801A080B18026FF03C0652DAE
:1044400070E002C06FEF7FEFC5012C870E946A23E6
:104450002C0183012C852F77222E17C03801F2E022
:104460006F0E711CF801A080B18026FF03C0652D7E
:1044700070E002C06FEF7FEFC5012C870E945F23C1
:104480002C012C852068222E830123FC1BC0832D48
:1044900090E048165906B0F4B70180E290E00E941F
:1044A00075233A94F4CFF50127FC859127FE81917D
:1044B0005F01B70190E00E94752331103A94F1E05A
:1044C0004F1A51084114510471F7E5C0843611F0B8
:1044D000893639F5F80127FF07C060817181828133
:1044E00093810C5F1F4F08C060817181072E000C03
:1044F000880B990B0E5F1F4F2F76722E97FF09C006
:1045000090958095709561957F4F8F4F9F4F206854
:10451000722E2AE030E0A4010E94AD23A82EA81834
:1045200044C0853729F42F7EB22E2AE030E025C022
:10453000F22FF97FBF2E8F36C1F018F4883579F04D
:10454000B4C0803719F0883721F0AFC02F2F206119
:10455000B22EB4FE0DC08B2D8460B82E09C024FF8E
:104560000AC09F2F9660B92E06C028E030E005C033
:1045700020E130E002C020E132E0F801B7FE07C0E0
:1045800060817181828193810C5F1F4F06C06081C1
:10459000718180E090E00E5F1F4FA4010E94AD2367
:1045A000A82EA818FB2DFF777F2E76FE0BC0372D87
:1045B0003E7FA51450F474FE0AC072FC08C0372D6B
:1045C0003E7E05C0BA2C372D03C0BA2C01C0B52CD5
:1045D00034FF0DC0FE01EA0DF11D8081803311F41E
:1045E000397E09C032FF06C0B394B39404C0832F50
:1045F000867809F0B39433FD13C030FF06C05A2CFF
:10460000B31418F4530C5B18B32CB31468F4B7014B
:1046100080E290E03C870E947523B3943C85F5CFFF
:10462000B31410F43B1801C0312C34FF12C0B70191
:1046300080E390E03C870E9475233C8532FF17C0E1
:1046400031FD03C088E790E002C088E590E0B70143
:104650000CC0832F867859F031FF02C08BE201C075
:1046600080E237FD8DE2B70190E00E947523A5142A
:1046700038F4B70180E390E00E9475235A94F7CF95
:10468000AA94F401EA0DF11D8081B70190E00E9427
:104690007523A110F5CF332009F451CEB70180E284
:1046A00090E00E9475233A94F6CFF70186819781B6
:1046B00002C08FEF9FEF2C96E2E10C94341EFC01B8
:1046C0000590615070400110D8F7809590958E0F3D
:1046D0009F1F0895FC016150704001900110D8F7B0
:1046E000809590958E0F9F1F08950F931F93CF93E2
:1046F000DF93FB01238121FD03C08FEF9FEF28C0D3
:1047000022FF16C046815781248135814217530705
:1047100044F4A081B1819D012F5F3F4F31832083FD
:104720008C93268137812F5F3F4F3783268310C0BC
:10473000EB01092F182F0084F185E02D0995892BB5
:10474000E1F68E819F8101969F838E83812F902F2A
:10475000DF91CF911F910F910895FA01AA27283078
:1047600051F1203181F1E8946F936E7F6E5F7F4F3E
:104770008F4F9F4FAF4FB1E03ED0B4E03CD0670FBA
:10478000781F891F9A1FA11D680F791F8A1F911D0D
:10479000A11D6A0F711D811D911DA11D20D009F45D
:1047A00068943F912AE0269F11243019305D31939F
:1047B000DEF6CF010895462F4770405D4193B3E088
:1047C0000FD0C9F7F6CF462F4F70405D4A3318F02F
:1047D000495D31FD4052419302D0A9F7EACFB4E0E0
:1047E000A6959795879577956795BA95C9F7009798
:1047F0006105710508959B01AC010A2E0694579539
:10480000479537952795BA95C9F7620F731F841F8F
:10481000951FA01D089510E0CAEDD0E004C0FE0170
:104820000E94441F2196CB3DD107C9F7F894FFCFD2
:104830003D0B3D0B00002604800000000000A50A8F
:10484000120A3D0AEC0A6E0A4C0A600A00000000D7
:104850002001DE101D01480B6C0B580B490B0000AA
:1048600000000601DC011D010501CB01B001820140
:104870000000000059026502312E302E302E30002B
:10488000716F732F73796E63007B2274223A2273E7
:10489000746174696F6E222C226C223A20002C22E3
:1048A00054223A002C2268223A002C2261223A003B
:1048B0002C2243223A002C224E223A002C22722231
:1048C0003A002C2262223A002C2273223A002C2237
:1048D00071223A007D007265732F6A736F6E002437
:1048E00000302E302E302E30007564707C257325FC
:1048F000737C0025732573002300737461727465E3
:10490000642E2E0075647000727463707C00727483
:104910006370007463005374617274696E67204C35
:104920006F5261206661696C656421000D0A0000A8
:107800000C94343C0C94513C0C94513C0C94513CE1
:107810000C94513C0C94513C0C94513C0C94513CB4
:107820000C94513C0C94513C0C94513C0C94513CA4
:107830000C94513C0C94513C0C94513C0C94513C94
:107840000C94513C0C94513C0C94513C0C94513C84
:107850000C94513C0C94513C0C94513C0C94513C74
:107860000C94513C0C94513C11241FBECFEFD8E036
:10787000DEBFCDBF11E0A0E0B1E0ECE9FFE702C060
:1078800005900D92A230B107D9F712E0A2E0B1E065
:1078900001C01D92AD30B107E1F70E942D3D0C945F
:1078A000CC3F0C94003C982F959595959595959582
:1078B000905D8F708A307CF0282F295A8091C0000B
:1078C00085FFFCCF9093C6008091C00085FFFCCF60
:1078D0002093C6000895282F205DF0CF982F809127
:1078E000C00085FFFCCF9093C6000895EF92FF92F1
:1078F0000F931F93EE24FF2487018091C00087FD22
:1079000017C00894E11CF11C011D111D81E4E8164B
:1079100082E4F8068FE0080780E0180770F3E09132
:107920000401F091050109958091C00087FFE9CF1E
:107930008091C6001F910F91FF90EF9008950E94D3
:10794000763C982F8091C00085FFFCCF9093C600B5
:1079500091362CF490330CF09053892F089597555D
:10796000892F08951F930E949F3C182F0E949F3CCF
:107970001295107F810F1F9108951F93182F882350
:1079800021F00E94763C1150E1F71F9108951F935A
:10799000182F0E94763C803249F0809103018F5F5E
:1079A000809303018530C1F01F9108958091C0003C
:1079B00085FFFCCF84E18093C6008091C00085FFE5
:1079C000FCCF1093C6008091C00085FFFCCF80E102
:1079D0008093C6001F910895E0910401F091050184
:1079E00009951F9108950E94763C803241F0809164
:1079F00003018F5F80930301853081F008958091AA
:107A0000C00085FFFCCF84E18093C6008091C00058
:107A100085FFFCCF80E18093C6000895E0910401CA
:107A2000F09105010995089540E951E08823A1F0FE
:107A30002D9A28EE33E0FA013197F1F721503040CA
:107A4000D1F72D9828EE33E0FA013197F1F7215064
:107A50003040D1F7815061F708953F924F925F9285
:107A60006F927F928F929F92AF92BF92CF92DF924E
:107A7000EF92FF920F931F93CF93DF93000080E16B
:107A80008093C4001092C50088E18093C10086E015
:107A90008093C2005098589A259A81E00E94143D24
:107AA00024E1F22E9EE1E92E85E9D82E0FE0C02ECA
:107AB00010E1B12EAA24A394B1E49B2EA6E58A2E50
:107AC000F2E57F2EE0E26E2E79E4572E63E5462E36
:107AD00050E5352E0E94763C8033B1F18133B9F107
:107AE000803409F46FC0813409F476C0823409F41B
:107AF00085C0853409F488C0803531F1823521F1A3
:107B0000813511F1853509F485C0863509F48DC0BC
:107B1000843609F496C0843709F403C1853709F423
:107B200072C1863709F466C0809103018F5F80932C
:107B30000301853079F6E0910401F0910501099582
:107B40000E94763C803351F60E94F33CC3CF0E94E2
:107B5000763C803249F78091C00085FFFCCFF092DF
:107B6000C6008091C00085FFFCCF9092C600809136
:107B7000C00085FFFCCF8092C6008091C00085FFC9
:107B8000FCCF7092C6008091C00085FFFCCF609250
:107B9000C6008091C00085FFFCCF5092C600809146
:107BA000C00085FFFCCF4092C6008091C00085FFD9
:107BB000FCCF3092C6008091C00085FFFCCFB09210
:107BC000C60088CF0E94763C863808F4BDCF0E945C
:107BD000763C0E94F33C7ECF0E94763C803809F4CC
:107BE0009CC0813809F40BC1823809F43CC1883942
:107BF00009F48FC080E00E94C73C6CCF84E10E94F2
:107C0000BD3C0E94F33C66CF85E00E94BD3C0E94D3
:107C1000F33C60CF0E94763C809306010E94763C44
:107C2000809307010E94F33C55CF0E94763C80333D
:107C300009F41DC183E00E94BD3C80E00E94C73C66
:107C400049CF0E94763C809309020E94763C809343
:107C5000080280910C028E7F80930C020E94763C79
:107C6000853409F415C18091080290910902892B8D
:107C700089F000E010E00E94763CF801E85FFE4FDA
:107C800080830F5F1F4F80910802909109020817AF
:107C9000190788F30E94763C803209F045CF809125
:107CA0000C0280FF01C16091060170910701660F0F
:107CB000771F7093070160930601A0910802B091AD
:107CC00009021097C9F0E8E0F1E09B01AD014E0F09
:107CD0005F1FF999FECF32BD21BD819180BDFA9A17
:107CE000F99A2F5F3F4FE417F50799F76A0F7B1F4B
:107CF00070930701609306018091C00085FFFCCF5F
:107D0000F092C6008091C00085FFFCCFB092C60003
:107D1000E1CE83E00E94C73CDDCE82E00E94C73CFA
:107D2000D9CE0E94763C809309020E94763C8093D3
:107D300008028091060190910701880F991F909386
:107D40000701809306010E94763C853409F4A6C0A1
:107D500080910C028E7F80930C020E94763C8032D0
:107D600009F0B8CE8091C00085FFFCCFF092C6002C
:107D7000609108027091090261157105B9F140E046
:107D800050E080910C02A82FA170B82FB27011C0E2
:107D9000BB2309F45CC0E0910601F0910701319624
:107DA000F0930701E09306014F5F5F4F46175707B7
:107DB000E8F4AA2369F3F999FECF209106013091E6
:107DC000070132BD21BDF89A90B58091C00085FFB2
:107DD000FCCF9093C6002F5F3F4F30930701209355
:107DE00006014F5F5F4F4617570718F38091C00099
:107DF00085FDE5CE8091C00085FFF8CFE0CE81E023
:107E00000E94C73C67CE0E94763C803209F08CCE3F
:107E10008091C00085FFFCCFF092C6008091C00029
:107E200085FFFCCFE092C6008091C00085FFFCCFAB
:107E3000D092C6008091C00085FFFCCFC092C600E2
:107E40008091C00085FFFCCFB092C60043CEE09188
:107E50000601F091070194918091C00085FFFCCF4D
:107E60009093C6009CCF80E10E94C73C33CE0E9415
:107E7000763C0E94763C182F0E94763C112309F430
:107E800083C0113009F484C08FE00E94C73C22CE29
:107E900080910C02816080930C02E5CE80910C02EF
:107EA000816080930C0259CF809107018823880F4D
:107EB000880B8A2180930B02809106019091070123
:107EC000880F991F90930701809306018091080203
:107ED00080FF09C080910802909109020196909359
:107EE000090280930802F894F999FECF1127E091D6
:107EF0000601F0910701C8E0D1E08091080290915D
:107F00000902103091F40091570001700130D9F34B
:107F100003E000935700E89500915700017001308D
:107F2000D9F301E100935700E89509901990009169
:107F3000570001700130D9F301E000935700E89534
:107F40001395103498F011270091570001700130FB
:107F5000D9F305E000935700E895009157000170B0
:107F60000130D9F301E100935700E895329602976A
:107F700009F0C7CF103011F00296E5CF112480919F
:107F8000C00085FFB9CEBCCE8EE10E94C73CA2CD19
:0C7F900085E90E94C73C9ECDF894FFCF0D
:027F9C00800063
:040000030000780081
:00000001FF
